{"contracts/EscrowFactory.sol":{"EscrowFactory":{"abi":[{"anonymous":false,"inputs":[{"indexed":false,"internalType":"address","name":"escrowAddress","type":"address"},{"indexed":false,"internalType":"address","name":"arbiter","type":"address"},{"indexed":false,"internalType":"address","name":"depositor","type":"address"},{"indexed":false,"internalType":"address","name":"beneficiary","type":"address"},{"indexed":false,"internalType":"uint256","name":"amount","type":"uint256"},{"indexed":false,"internalType":"uint256","name":"duration","type":"uint256"}],"name":"EscrowCreated","type":"event"},{"inputs":[{"internalType":"address","name":"_arbiter","type":"address"},{"internalType":"address payable","name":"_beneficiary","type":"address"},{"internalType":"uint256","name":"_durationInDays","type":"uint256"}],"name":"createEscrow","outputs":[{"internalType":"contract ChainGuardEscrow","name":"","type":"address"}],"stateMutability":"payable","type":"function"},{"inputs":[{"internalType":"uint256","name":"","type":"uint256"}],"name":"escrows","outputs":[{"internalType":"contract ChainGuardEscrow","name":"","type":"address"}],"stateMutability":"view","type":"function"},{"inputs":[],"name":"getEscrows","outputs":[{"internalType":"contract ChainGuardEscrow[]","name":"","type":"address[]"}],"stateMutability":"view","type":"function"}],"evm":{"bytecode":{"linkReferences":{},"object":"608060405234801561001057600080fd5b506113bc806100206000396000f3fe608060405260043610620000385760003560e01c8063012f52ee146200003d5780636afcb6da1462000081578063c361765014620000b1575b600080fd5b3480156200004a57600080fd5b50620000696004803603810190620000639190620002fc565b620000e7565b604051620000789190620003b9565b60405180910390f35b3480156200008e57600080fd5b506200009962000127565b604051620000a89190620004a4565b60405180910390f35b620000cf6004803603810190620000c9919062000552565b620001b7565b604051620000de9190620003b9565b60405180910390f35b60008181548110620000f857600080fd5b906000526020600020016000915054906101000a900473ffffffffffffffffffffffffffffffffffffffff1681565b60606000805480602002602001604051908101604052809291908181526020018280548015620001ad57602002820191906000526020600020905b8160009054906101000a900473ffffffffffffffffffffffffffffffffffffffff1673ffffffffffffffffffffffffffffffffffffffff168152602001906001019080831162000162575b5050505050905090565b6000803485338686604051620001cd90620002ae565b620001dc9493929190620005e1565b6040518091039082f0905080158015620001fa573d6000803e3d6000fd5b5090506000819080600181540180825580915050600190039060005260206000200160009091909190916101000a81548173ffffffffffffffffffffffffffffffffffffffff021916908373ffffffffffffffffffffffffffffffffffffffff1602179055507fae4afeae517547c89e021ef11c8647b223ef2849e6a4929e9e238dc5945c4e7c8186338734886040516200029b9695949392919062000653565b60405180910390a1809150509392505050565b610cc680620006c183390190565b600080fd5b6000819050919050565b620002d681620002c1565b8114620002e257600080fd5b50565b600081359050620002f681620002cb565b92915050565b600060208284031215620003155762000314620002bc565b5b60006200032584828501620002e5565b91505092915050565b600073ffffffffffffffffffffffffffffffffffffffff82169050919050565b6000819050919050565b600062000379620003736200036d846200032e565b6200034e565b6200032e565b9050919050565b60006200038d8262000358565b9050919050565b6000620003a18262000380565b9050919050565b620003b38162000394565b82525050565b6000602082019050620003d06000830184620003a8565b92915050565b600081519050919050565b600082825260208201905092915050565b6000819050602082019050919050565b6200040d8162000394565b82525050565b600062000421838362000402565b60208301905092915050565b6000602082019050919050565b60006200044782620003d6565b620004538185620003e1565b93506200046083620003f2565b8060005b83811015620004975781516200047b888262000413565b975062000488836200042d565b92505060018101905062000464565b5085935050505092915050565b60006020820190508181036000830152620004c081846200043a565b905092915050565b6000620004d5826200032e565b9050919050565b620004e781620004c8565b8114620004f357600080fd5b50565b6000813590506200050781620004dc565b92915050565b60006200051a826200032e565b9050919050565b6200052c816200050d565b81146200053857600080fd5b50565b6000813590506200054c8162000521565b92915050565b6000806000606084860312156200056e576200056d620002bc565b5b60006200057e86828701620004f6565b935050602062000591868287016200053b565b9250506040620005a486828701620002e5565b9150509250925092565b620005b981620004c8565b82525050565b620005ca816200050d565b82525050565b620005db81620002c1565b82525050565b6000608082019050620005f86000830187620005ae565b620006076020830186620005bf565b620006166040830185620005bf565b620006256060830184620005d0565b95945050505050565b60006200063b8262000380565b9050919050565b6200064d816200062e565b82525050565b600060c0820190506200066a6000830189620005ae565b620006796020830188620005ae565b620006886040830187620005ae565b62000697606083018662000642565b620006a66080830185620005d0565b620006b560a0830184620005d0565b97965050505050505056fe608060405260405162000cc638038062000cc68339818101604052810190620000299190620001fd565b836000806101000a81548173ffffffffffffffffffffffffffffffffffffffff021916908373ffffffffffffffffffffffffffffffffffffffff16021790555082600160006101000a81548173ffffffffffffffffffffffffffffffffffffffff021916908373ffffffffffffffffffffffffffffffffffffffff16021790555081600260006101000a81548173ffffffffffffffffffffffffffffffffffffffff021916908373ffffffffffffffffffffffffffffffffffffffff1602179055504260038190555062015180816200010391906200029e565b60048190555050505050620002e9565b600080fd5b600073ffffffffffffffffffffffffffffffffffffffff82169050919050565b6000620001458262000118565b9050919050565b620001578162000138565b81146200016357600080fd5b50565b60008151905062000177816200014c565b92915050565b60006200018a8262000118565b9050919050565b6200019c816200017d565b8114620001a857600080fd5b50565b600081519050620001bc8162000191565b92915050565b6000819050919050565b620001d781620001c2565b8114620001e357600080fd5b50565b600081519050620001f781620001cc565b92915050565b600080600080608085870312156200021a576200021962000113565b5b60006200022a8782880162000166565b94505060206200023d87828801620001ab565b93505060406200025087828801620001ab565b92505060606200026387828801620001e6565b91505092959194509250565b7f4e487b7100000000000000000000000000000000000000000000000000000000600052601160045260246000fd5b6000620002ab82620001c2565b9150620002b883620001c2565b9250828202620002c881620001c2565b91508282048414831517620002e257620002e16200026f565b5b5092915050565b6109cd80620002f96000396000f3fe608060405234801561001057600080fd5b50600436106100935760003560e01c8063590e1ae311610066578063590e1ae3146100fc578063c7c4ff4614610106578063d8270dce14610124578063efb98bcf14610142578063fe25e00a1461016057610093565b80630fb5a6b41461009857806312424e3f146100b657806328f371aa146100c057806338af3eed146100de575b600080fd5b6100a061017e565b6040516100ad9190610610565b60405180910390f35b6100be610184565b005b6100c8610304565b6040516100d59190610646565b60405180910390f35b6100e6610317565b6040516100f391906106a2565b60405180910390f35b61010461033d565b005b61010e610565565b60405161011b91906106a2565b60405180910390f35b61012c61058b565b6040516101399190610610565b60405180910390f35b61014a610591565b6040516101579190610610565b60405180910390f35b6101686105d3565b60405161017591906106de565b60405180910390f35b60045481565b60008054906101000a900473ffffffffffffffffffffffffffffffffffffffff1673ffffffffffffffffffffffffffffffffffffffff163373ffffffffffffffffffffffffffffffffffffffff1614610212576040517f08c379a000000000000000000000000000000000000000000000000000000000815260040161020990610756565b60405180910390fd5b60004790506000600260009054906101000a900473ffffffffffffffffffffffffffffffffffffffff1673ffffffffffffffffffffffffffffffffffffffff168260405161025f906107a7565b60006040518083038185875af1925050503d806000811461029c576040519150601f19603f3d011682016040523d82523d6000602084013e6102a1565b606091505b50509050806102e5576040517f08c379a00000000000000000000000000000000000000000000000000000000081526004016102dc90610808565b60405180910390fd5b6001600560006101000a81548160ff0219169083151502179055505050565b600560009054906101000a900460ff1681565b600260009054906101000a900473ffffffffffffffffffffffffffffffffffffffff1681565b60008054906101000a900473ffffffffffffffffffffffffffffffffffffffff1673ffffffffffffffffffffffffffffffffffffffff163373ffffffffffffffffffffffffffffffffffffffff1614806103ff5750600160009054906101000a900473ffffffffffffffffffffffffffffffffffffffff1673ffffffffffffffffffffffffffffffffffffffff163373ffffffffffffffffffffffffffffffffffffffff161480156103fe57506004546003546103fa9190610857565b4210155b5b61043e576040517f08c379a0000000000000000000000000000000000000000000000000000000008152600401610435906108d7565b60405180910390fd5b600560009054906101000a900460ff161561048e576040517f08c379a000000000000000000000000000000000000000000000000000000000815260040161048590610943565b60405180910390fd5b60004790506000600160009054906101000a900473ffffffffffffffffffffffffffffffffffffffff1673ffffffffffffffffffffffffffffffffffffffff16826040516104db906107a7565b60006040518083038185875af1925050503d8060008114610518576040519150601f19603f3d011682016040523d82523d6000602084013e61051d565b606091505b5050905080610561576040517f08c379a000000000000000000000000000000000000000000000000000000000815260040161055890610808565b60405180910390fd5b5050565b600160009054906101000a900473ffffffffffffffffffffffffffffffffffffffff1681565b60035481565b60006004546003546105a39190610857565b42106105b257600090506105d0565b426004546003546105c39190610857565b6105cd9190610963565b90505b90565b60008054906101000a900473ffffffffffffffffffffffffffffffffffffffff1681565b6000819050919050565b61060a816105f7565b82525050565b60006020820190506106256000830184610601565b92915050565b60008115159050919050565b6106408161062b565b82525050565b600060208201905061065b6000830184610637565b92915050565b600073ffffffffffffffffffffffffffffffffffffffff82169050919050565b600061068c82610661565b9050919050565b61069c81610681565b82525050565b60006020820190506106b76000830184610693565b92915050565b60006106c882610661565b9050919050565b6106d8816106bd565b82525050565b60006020820190506106f360008301846106cf565b92915050565b600082825260208201905092915050565b7f4f6e6c7920617262697465722063616e20617070726f76650000000000000000600082015250565b60006107406018836106f9565b915061074b8261070a565b602082019050919050565b6000602082019050818103600083015261076f81610733565b9050919050565b600081905092915050565b50565b6000610791600083610776565b915061079c82610781565b600082019050919050565b60006107b282610784565b9150819050919050565b7f4661696c656420746f2073656e64204574686572000000000000000000000000600082015250565b60006107f26014836106f9565b91506107fd826107bc565b602082019050919050565b60006020820190508181036000830152610821816107e5565b9050919050565b7f4e487b7100000000000000000000000000000000000000000000000000000000600052601160045260246000fd5b6000610862826105f7565b915061086d836105f7565b925082820190508082111561088557610884610828565b5b92915050565b7f4e6f7420617574686f72697a656420746f20726566756e640000000000000000600082015250565b60006108c16018836106f9565b91506108cc8261088b565b602082019050919050565b600060208201905081810360008301526108f0816108b4565b9050919050565b7f416c726561647920617070726f76656400000000000000000000000000000000600082015250565b600061092d6010836106f9565b9150610938826108f7565b602082019050919050565b6000602082019050818103600083015261095c81610920565b9050919050565b600061096e826105f7565b9150610979836105f7565b925082820390508181111561099157610990610828565b5b9291505056fea2646970667358221220e12d803b37dc3b2f3af492a710223d73ae0d159d92717999d1753cf9fa16ca3864736f6c63430008180033a2646970667358221220f669ddc6fd43cc9f2ab633ce97fc4ebd931d617153bb0803b4add9271d82dc1964736f6c63430008180033","opcodes":"PUSH1 0x80 PUSH1 0x40 MSTORE CALLVALUE DUP1 ISZERO PUSH2 0x10 JUMPI PUSH1 0x0 DUP1 REVERT JUMPDEST POP PUSH2 0x13BC DUP1 PUSH2 0x20 PUSH1 0x0 CODECOPY PUSH1 0x0 RETURN INVALID PUSH1 0x80 PUSH1 0x40 MSTORE PUSH1 0x4 CALLDATASIZE LT PUSH3 0x38 JUMPI PUSH1 0x0 CALLDATALOAD PUSH1 0xE0 SHR DUP1 PUSH4 0x12F52EE EQ PUSH3 0x3D JUMPI DUP1 PUSH4 0x6AFCB6DA EQ PUSH3 0x81 JUMPI DUP1 PUSH4 0xC3617650 EQ PUSH3 0xB1 JUMPI JUMPDEST PUSH1 0x0 DUP1 REVERT JUMPDEST CALLVALUE DUP1 ISZERO PUSH3 0x4A JUMPI PUSH1 0x0 DUP1 REVERT JUMPDEST POP PUSH3 0x69 PUSH1 0x4 DUP1 CALLDATASIZE SUB DUP2 ADD SWAP1 PUSH3 0x63 SWAP2 SWAP1 PUSH3 0x2FC JUMP JUMPDEST PUSH3 0xE7 JUMP JUMPDEST PUSH1 0x40 MLOAD PUSH3 0x78 SWAP2 SWAP1 PUSH3 0x3B9 JUMP JUMPDEST PUSH1 0x40 MLOAD DUP1 SWAP2 SUB SWAP1 RETURN JUMPDEST CALLVALUE DUP1 ISZERO PUSH3 0x8E JUMPI PUSH1 0x0 DUP1 REVERT JUMPDEST POP PUSH3 0x99 PUSH3 0x127 JUMP JUMPDEST PUSH1 0x40 MLOAD PUSH3 0xA8 SWAP2 SWAP1 PUSH3 0x4A4 JUMP JUMPDEST PUSH1 0x40 MLOAD DUP1 SWAP2 SUB SWAP1 RETURN JUMPDEST PUSH3 0xCF PUSH1 0x4 DUP1 CALLDATASIZE SUB DUP2 ADD SWAP1 PUSH3 0xC9 SWAP2 SWAP1 PUSH3 0x552 JUMP JUMPDEST PUSH3 0x1B7 JUMP JUMPDEST PUSH1 0x40 MLOAD PUSH3 0xDE SWAP2 SWAP1 PUSH3 0x3B9 JUMP JUMPDEST PUSH1 0x40 MLOAD DUP1 SWAP2 SUB SWAP1 RETURN JUMPDEST PUSH1 0x0 DUP2 DUP2 SLOAD DUP2 LT PUSH3 0xF8 JUMPI PUSH1 0x0 DUP1 REVERT JUMPDEST SWAP1 PUSH1 0x0 MSTORE PUSH1 0x20 PUSH1 0x0 KECCAK256 ADD PUSH1 0x0 SWAP2 POP SLOAD SWAP1 PUSH2 0x100 EXP SWAP1 DIV PUSH20 0xFFFFFFFFFFFFFFFFFFFFFFFFFFFFFFFFFFFFFFFF AND DUP2 JUMP JUMPDEST PUSH1 0x60 PUSH1 0x0 DUP1 SLOAD DUP1 PUSH1 0x20 MUL PUSH1 0x20 ADD PUSH1 0x40 MLOAD SWAP1 DUP2 ADD PUSH1 0x40 MSTORE DUP1 SWAP3 SWAP2 SWAP1 DUP2 DUP2 MSTORE PUSH1 0x20 ADD DUP3 DUP1 SLOAD DUP1 ISZERO PUSH3 0x1AD JUMPI PUSH1 0x20 MUL DUP3 ADD SWAP2 SWAP1 PUSH1 0x0 MSTORE PUSH1 0x20 PUSH1 0x0 KECCAK256 SWAP1 JUMPDEST DUP2 PUSH1 0x0 SWAP1 SLOAD SWAP1 PUSH2 0x100 EXP SWAP1 DIV PUSH20 0xFFFFFFFFFFFFFFFFFFFFFFFFFFFFFFFFFFFFFFFF AND PUSH20 0xFFFFFFFFFFFFFFFFFFFFFFFFFFFFFFFFFFFFFFFF AND DUP2 MSTORE PUSH1 0x20 ADD SWAP1 PUSH1 0x1 ADD SWAP1 DUP1 DUP4 GT PUSH3 0x162 JUMPI JUMPDEST POP POP POP POP POP SWAP1 POP SWAP1 JUMP JUMPDEST PUSH1 0x0 DUP1 CALLVALUE DUP6 CALLER DUP7 DUP7 PUSH1 0x40 MLOAD PUSH3 0x1CD SWAP1 PUSH3 0x2AE JUMP JUMPDEST PUSH3 0x1DC SWAP5 SWAP4 SWAP3 SWAP2 SWAP1 PUSH3 0x5E1 JUMP JUMPDEST PUSH1 0x40 MLOAD DUP1 SWAP2 SUB SWAP1 DUP3 CREATE SWAP1 POP DUP1 ISZERO DUP1 ISZERO PUSH3 0x1FA JUMPI RETURNDATASIZE PUSH1 0x0 DUP1 RETURNDATACOPY RETURNDATASIZE PUSH1 0x0 REVERT JUMPDEST POP SWAP1 POP PUSH1 0x0 DUP2 SWAP1 DUP1 PUSH1 0x1 DUP2 SLOAD ADD DUP1 DUP3 SSTORE DUP1 SWAP2 POP POP PUSH1 0x1 SWAP1 SUB SWAP1 PUSH1 0x0 MSTORE PUSH1 0x20 PUSH1 0x0 KECCAK256 ADD PUSH1 0x0 SWAP1 SWAP2 SWAP1 SWAP2 SWAP1 SWAP2 PUSH2 0x100 EXP DUP2 SLOAD DUP2 PUSH20 0xFFFFFFFFFFFFFFFFFFFFFFFFFFFFFFFFFFFFFFFF MUL NOT AND SWAP1 DUP4 PUSH20 0xFFFFFFFFFFFFFFFFFFFFFFFFFFFFFFFFFFFFFFFF AND MUL OR SWAP1 SSTORE POP PUSH32 0xAE4AFEAE517547C89E021EF11C8647B223EF2849E6A4929E9E238DC5945C4E7C DUP2 DUP7 CALLER DUP8 CALLVALUE DUP9 PUSH1 0x40 MLOAD PUSH3 0x29B SWAP7 SWAP6 SWAP5 SWAP4 SWAP3 SWAP2 SWAP1 PUSH3 0x653 JUMP JUMPDEST PUSH1 0x40 MLOAD DUP1 SWAP2 SUB SWAP1 LOG1 DUP1 SWAP2 POP POP SWAP4 SWAP3 POP POP POP JUMP JUMPDEST PUSH2 0xCC6 DUP1 PUSH3 0x6C1 DUP4 CODECOPY ADD SWAP1 JUMP JUMPDEST PUSH1 0x0 DUP1 REVERT JUMPDEST PUSH1 0x0 DUP2 SWAP1 POP SWAP2 SWAP1 POP JUMP JUMPDEST PUSH3 0x2D6 DUP2 PUSH3 0x2C1 JUMP JUMPDEST DUP2 EQ PUSH3 0x2E2 JUMPI PUSH1 0x0 DUP1 REVERT JUMPDEST POP JUMP JUMPDEST PUSH1 0x0 DUP2 CALLDATALOAD SWAP1 POP PUSH3 0x2F6 DUP2 PUSH3 0x2CB JUMP JUMPDEST SWAP3 SWAP2 POP POP JUMP JUMPDEST PUSH1 0x0 PUSH1 0x20 DUP3 DUP5 SUB SLT ISZERO PUSH3 0x315 JUMPI PUSH3 0x314 PUSH3 0x2BC JUMP JUMPDEST JUMPDEST PUSH1 0x0 PUSH3 0x325 DUP5 DUP3 DUP6 ADD PUSH3 0x2E5 JUMP JUMPDEST SWAP2 POP POP SWAP3 SWAP2 POP POP JUMP JUMPDEST PUSH1 0x0 PUSH20 0xFFFFFFFFFFFFFFFFFFFFFFFFFFFFFFFFFFFFFFFF DUP3 AND SWAP1 POP SWAP2 SWAP1 POP JUMP JUMPDEST PUSH1 0x0 DUP2 SWAP1 POP SWAP2 SWAP1 POP JUMP JUMPDEST PUSH1 0x0 PUSH3 0x379 PUSH3 0x373 PUSH3 0x36D DUP5 PUSH3 0x32E JUMP JUMPDEST PUSH3 0x34E JUMP JUMPDEST PUSH3 0x32E JUMP JUMPDEST SWAP1 POP SWAP2 SWAP1 POP JUMP JUMPDEST PUSH1 0x0 PUSH3 0x38D DUP3 PUSH3 0x358 JUMP JUMPDEST SWAP1 POP SWAP2 SWAP1 POP JUMP JUMPDEST PUSH1 0x0 PUSH3 0x3A1 DUP3 PUSH3 0x380 JUMP JUMPDEST SWAP1 POP SWAP2 SWAP1 POP JUMP JUMPDEST PUSH3 0x3B3 DUP2 PUSH3 0x394 JUMP JUMPDEST DUP3 MSTORE POP POP JUMP JUMPDEST PUSH1 0x0 PUSH1 0x20 DUP3 ADD SWAP1 POP PUSH3 0x3D0 PUSH1 0x0 DUP4 ADD DUP5 PUSH3 0x3A8 JUMP JUMPDEST SWAP3 SWAP2 POP POP JUMP JUMPDEST PUSH1 0x0 DUP2 MLOAD SWAP1 POP SWAP2 SWAP1 POP JUMP JUMPDEST PUSH1 0x0 DUP3 DUP3 MSTORE PUSH1 0x20 DUP3 ADD SWAP1 POP SWAP3 SWAP2 POP POP JUMP JUMPDEST PUSH1 0x0 DUP2 SWAP1 POP PUSH1 0x20 DUP3 ADD SWAP1 POP SWAP2 SWAP1 POP JUMP JUMPDEST PUSH3 0x40D DUP2 PUSH3 0x394 JUMP JUMPDEST DUP3 MSTORE POP POP JUMP JUMPDEST PUSH1 0x0 PUSH3 0x421 DUP4 DUP4 PUSH3 0x402 JUMP JUMPDEST PUSH1 0x20 DUP4 ADD SWAP1 POP SWAP3 SWAP2 POP POP JUMP JUMPDEST PUSH1 0x0 PUSH1 0x20 DUP3 ADD SWAP1 POP SWAP2 SWAP1 POP JUMP JUMPDEST PUSH1 0x0 PUSH3 0x447 DUP3 PUSH3 0x3D6 JUMP JUMPDEST PUSH3 0x453 DUP2 DUP6 PUSH3 0x3E1 JUMP JUMPDEST SWAP4 POP PUSH3 0x460 DUP4 PUSH3 0x3F2 JUMP JUMPDEST DUP1 PUSH1 0x0 JUMPDEST DUP4 DUP2 LT ISZERO PUSH3 0x497 JUMPI DUP2 MLOAD PUSH3 0x47B DUP9 DUP3 PUSH3 0x413 JUMP JUMPDEST SWAP8 POP PUSH3 0x488 DUP4 PUSH3 0x42D JUMP JUMPDEST SWAP3 POP POP PUSH1 0x1 DUP2 ADD SWAP1 POP PUSH3 0x464 JUMP JUMPDEST POP DUP6 SWAP4 POP POP POP POP SWAP3 SWAP2 POP POP JUMP JUMPDEST PUSH1 0x0 PUSH1 0x20 DUP3 ADD SWAP1 POP DUP2 DUP2 SUB PUSH1 0x0 DUP4 ADD MSTORE PUSH3 0x4C0 DUP2 DUP5 PUSH3 0x43A JUMP JUMPDEST SWAP1 POP SWAP3 SWAP2 POP POP JUMP JUMPDEST PUSH1 0x0 PUSH3 0x4D5 DUP3 PUSH3 0x32E JUMP JUMPDEST SWAP1 POP SWAP2 SWAP1 POP JUMP JUMPDEST PUSH3 0x4E7 DUP2 PUSH3 0x4C8 JUMP JUMPDEST DUP2 EQ PUSH3 0x4F3 JUMPI PUSH1 0x0 DUP1 REVERT JUMPDEST POP JUMP JUMPDEST PUSH1 0x0 DUP2 CALLDATALOAD SWAP1 POP PUSH3 0x507 DUP2 PUSH3 0x4DC JUMP JUMPDEST SWAP3 SWAP2 POP POP JUMP JUMPDEST PUSH1 0x0 PUSH3 0x51A DUP3 PUSH3 0x32E JUMP JUMPDEST SWAP1 POP SWAP2 SWAP1 POP JUMP JUMPDEST PUSH3 0x52C DUP2 PUSH3 0x50D JUMP JUMPDEST DUP2 EQ PUSH3 0x538 JUMPI PUSH1 0x0 DUP1 REVERT JUMPDEST POP JUMP JUMPDEST PUSH1 0x0 DUP2 CALLDATALOAD SWAP1 POP PUSH3 0x54C DUP2 PUSH3 0x521 JUMP JUMPDEST SWAP3 SWAP2 POP POP JUMP JUMPDEST PUSH1 0x0 DUP1 PUSH1 0x0 PUSH1 0x60 DUP5 DUP7 SUB SLT ISZERO PUSH3 0x56E JUMPI PUSH3 0x56D PUSH3 0x2BC JUMP JUMPDEST JUMPDEST PUSH1 0x0 PUSH3 0x57E DUP7 DUP3 DUP8 ADD PUSH3 0x4F6 JUMP JUMPDEST SWAP4 POP POP PUSH1 0x20 PUSH3 0x591 DUP7 DUP3 DUP8 ADD PUSH3 0x53B JUMP JUMPDEST SWAP3 POP POP PUSH1 0x40 PUSH3 0x5A4 DUP7 DUP3 DUP8 ADD PUSH3 0x2E5 JUMP JUMPDEST SWAP2 POP POP SWAP3 POP SWAP3 POP SWAP3 JUMP JUMPDEST PUSH3 0x5B9 DUP2 PUSH3 0x4C8 JUMP JUMPDEST DUP3 MSTORE POP POP JUMP JUMPDEST PUSH3 0x5CA DUP2 PUSH3 0x50D JUMP JUMPDEST DUP3 MSTORE POP POP JUMP JUMPDEST PUSH3 0x5DB DUP2 PUSH3 0x2C1 JUMP JUMPDEST DUP3 MSTORE POP POP JUMP JUMPDEST PUSH1 0x0 PUSH1 0x80 DUP3 ADD SWAP1 POP PUSH3 0x5F8 PUSH1 0x0 DUP4 ADD DUP8 PUSH3 0x5AE JUMP JUMPDEST PUSH3 0x607 PUSH1 0x20 DUP4 ADD DUP7 PUSH3 0x5BF JUMP JUMPDEST PUSH3 0x616 PUSH1 0x40 DUP4 ADD DUP6 PUSH3 0x5BF JUMP JUMPDEST PUSH3 0x625 PUSH1 0x60 DUP4 ADD DUP5 PUSH3 0x5D0 JUMP JUMPDEST SWAP6 SWAP5 POP POP POP POP POP JUMP JUMPDEST PUSH1 0x0 PUSH3 0x63B DUP3 PUSH3 0x380 JUMP JUMPDEST SWAP1 POP SWAP2 SWAP1 POP JUMP JUMPDEST PUSH3 0x64D DUP2 PUSH3 0x62E JUMP JUMPDEST DUP3 MSTORE POP POP JUMP JUMPDEST PUSH1 0x0 PUSH1 0xC0 DUP3 ADD SWAP1 POP PUSH3 0x66A PUSH1 0x0 DUP4 ADD DUP10 PUSH3 0x5AE JUMP JUMPDEST PUSH3 0x679 PUSH1 0x20 DUP4 ADD DUP9 PUSH3 0x5AE JUMP JUMPDEST PUSH3 0x688 PUSH1 0x40 DUP4 ADD DUP8 PUSH3 0x5AE JUMP JUMPDEST PUSH3 0x697 PUSH1 0x60 DUP4 ADD DUP7 PUSH3 0x642 JUMP JUMPDEST PUSH3 0x6A6 PUSH1 0x80 DUP4 ADD DUP6 PUSH3 0x5D0 JUMP JUMPDEST PUSH3 0x6B5 PUSH1 0xA0 DUP4 ADD DUP5 PUSH3 0x5D0 JUMP JUMPDEST SWAP8 SWAP7 POP POP POP POP POP POP POP JUMP INVALID PUSH1 0x80 PUSH1 0x40 MSTORE PUSH1 0x40 MLOAD PUSH3 0xCC6 CODESIZE SUB DUP1 PUSH3 0xCC6 DUP4 CODECOPY DUP2 DUP2 ADD PUSH1 0x40 MSTORE DUP2 ADD SWAP1 PUSH3 0x29 SWAP2 SWAP1 PUSH3 0x1FD JUMP JUMPDEST DUP4 PUSH1 0x0 DUP1 PUSH2 0x100 EXP DUP2 SLOAD DUP2 PUSH20 0xFFFFFFFFFFFFFFFFFFFFFFFFFFFFFFFFFFFFFFFF MUL NOT AND SWAP1 DUP4 PUSH20 0xFFFFFFFFFFFFFFFFFFFFFFFFFFFFFFFFFFFFFFFF AND MUL OR SWAP1 SSTORE POP DUP3 PUSH1 0x1 PUSH1 0x0 PUSH2 0x100 EXP DUP2 SLOAD DUP2 PUSH20 0xFFFFFFFFFFFFFFFFFFFFFFFFFFFFFFFFFFFFFFFF MUL NOT AND SWAP1 DUP4 PUSH20 0xFFFFFFFFFFFFFFFFFFFFFFFFFFFFFFFFFFFFFFFF AND MUL OR SWAP1 SSTORE POP DUP2 PUSH1 0x2 PUSH1 0x0 PUSH2 0x100 EXP DUP2 SLOAD DUP2 PUSH20 0xFFFFFFFFFFFFFFFFFFFFFFFFFFFFFFFFFFFFFFFF MUL NOT AND SWAP1 DUP4 PUSH20 0xFFFFFFFFFFFFFFFFFFFFFFFFFFFFFFFFFFFFFFFF AND MUL OR SWAP1 SSTORE POP TIMESTAMP PUSH1 0x3 DUP2 SWAP1 SSTORE POP PUSH3 0x15180 DUP2 PUSH3 0x103 SWAP2 SWAP1 PUSH3 0x29E JUMP JUMPDEST PUSH1 0x4 DUP2 SWAP1 SSTORE POP POP POP POP POP PUSH3 0x2E9 JUMP JUMPDEST PUSH1 0x0 DUP1 REVERT JUMPDEST PUSH1 0x0 PUSH20 0xFFFFFFFFFFFFFFFFFFFFFFFFFFFFFFFFFFFFFFFF DUP3 AND SWAP1 POP SWAP2 SWAP1 POP JUMP JUMPDEST PUSH1 0x0 PUSH3 0x145 DUP3 PUSH3 0x118 JUMP JUMPDEST SWAP1 POP SWAP2 SWAP1 POP JUMP JUMPDEST PUSH3 0x157 DUP2 PUSH3 0x138 JUMP JUMPDEST DUP2 EQ PUSH3 0x163 JUMPI PUSH1 0x0 DUP1 REVERT JUMPDEST POP JUMP JUMPDEST PUSH1 0x0 DUP2 MLOAD SWAP1 POP PUSH3 0x177 DUP2 PUSH3 0x14C JUMP JUMPDEST SWAP3 SWAP2 POP POP JUMP JUMPDEST PUSH1 0x0 PUSH3 0x18A DUP3 PUSH3 0x118 JUMP JUMPDEST SWAP1 POP SWAP2 SWAP1 POP JUMP JUMPDEST PUSH3 0x19C DUP2 PUSH3 0x17D JUMP JUMPDEST DUP2 EQ PUSH3 0x1A8 JUMPI PUSH1 0x0 DUP1 REVERT JUMPDEST POP JUMP JUMPDEST PUSH1 0x0 DUP2 MLOAD SWAP1 POP PUSH3 0x1BC DUP2 PUSH3 0x191 JUMP JUMPDEST SWAP3 SWAP2 POP POP JUMP JUMPDEST PUSH1 0x0 DUP2 SWAP1 POP SWAP2 SWAP1 POP JUMP JUMPDEST PUSH3 0x1D7 DUP2 PUSH3 0x1C2 JUMP JUMPDEST DUP2 EQ PUSH3 0x1E3 JUMPI PUSH1 0x0 DUP1 REVERT JUMPDEST POP JUMP JUMPDEST PUSH1 0x0 DUP2 MLOAD SWAP1 POP PUSH3 0x1F7 DUP2 PUSH3 0x1CC JUMP JUMPDEST SWAP3 SWAP2 POP POP JUMP JUMPDEST PUSH1 0x0 DUP1 PUSH1 0x0 DUP1 PUSH1 0x80 DUP6 DUP8 SUB SLT ISZERO PUSH3 0x21A JUMPI PUSH3 0x219 PUSH3 0x113 JUMP JUMPDEST JUMPDEST PUSH1 0x0 PUSH3 0x22A DUP8 DUP3 DUP9 ADD PUSH3 0x166 JUMP JUMPDEST SWAP5 POP POP PUSH1 0x20 PUSH3 0x23D DUP8 DUP3 DUP9 ADD PUSH3 0x1AB JUMP JUMPDEST SWAP4 POP POP PUSH1 0x40 PUSH3 0x250 DUP8 DUP3 DUP9 ADD PUSH3 0x1AB JUMP JUMPDEST SWAP3 POP POP PUSH1 0x60 PUSH3 0x263 DUP8 DUP3 DUP9 ADD PUSH3 0x1E6 JUMP JUMPDEST SWAP2 POP POP SWAP3 SWAP6 SWAP2 SWAP5 POP SWAP3 POP JUMP JUMPDEST PUSH32 0x4E487B7100000000000000000000000000000000000000000000000000000000 PUSH1 0x0 MSTORE PUSH1 0x11 PUSH1 0x4 MSTORE PUSH1 0x24 PUSH1 0x0 REVERT JUMPDEST PUSH1 0x0 PUSH3 0x2AB DUP3 PUSH3 0x1C2 JUMP JUMPDEST SWAP2 POP PUSH3 0x2B8 DUP4 PUSH3 0x1C2 JUMP JUMPDEST SWAP3 POP DUP3 DUP3 MUL PUSH3 0x2C8 DUP2 PUSH3 0x1C2 JUMP JUMPDEST SWAP2 POP DUP3 DUP3 DIV DUP5 EQ DUP4 ISZERO OR PUSH3 0x2E2 JUMPI PUSH3 0x2E1 PUSH3 0x26F JUMP JUMPDEST JUMPDEST POP SWAP3 SWAP2 POP POP JUMP JUMPDEST PUSH2 0x9CD DUP1 PUSH3 0x2F9 PUSH1 0x0 CODECOPY PUSH1 0x0 RETURN INVALID PUSH1 0x80 PUSH1 0x40 MSTORE CALLVALUE DUP1 ISZERO PUSH2 0x10 JUMPI PUSH1 0x0 DUP1 REVERT JUMPDEST POP PUSH1 0x4 CALLDATASIZE LT PUSH2 0x93 JUMPI PUSH1 0x0 CALLDATALOAD PUSH1 0xE0 SHR DUP1 PUSH4 0x590E1AE3 GT PUSH2 0x66 JUMPI DUP1 PUSH4 0x590E1AE3 EQ PUSH2 0xFC JUMPI DUP1 PUSH4 0xC7C4FF46 EQ PUSH2 0x106 JUMPI DUP1 PUSH4 0xD8270DCE EQ PUSH2 0x124 JUMPI DUP1 PUSH4 0xEFB98BCF EQ PUSH2 0x142 JUMPI DUP1 PUSH4 0xFE25E00A EQ PUSH2 0x160 JUMPI PUSH2 0x93 JUMP JUMPDEST DUP1 PUSH4 0xFB5A6B4 EQ PUSH2 0x98 JUMPI DUP1 PUSH4 0x12424E3F EQ PUSH2 0xB6 JUMPI DUP1 PUSH4 0x28F371AA EQ PUSH2 0xC0 JUMPI DUP1 PUSH4 0x38AF3EED EQ PUSH2 0xDE JUMPI JUMPDEST PUSH1 0x0 DUP1 REVERT JUMPDEST PUSH2 0xA0 PUSH2 0x17E JUMP JUMPDEST PUSH1 0x40 MLOAD PUSH2 0xAD SWAP2 SWAP1 PUSH2 0x610 JUMP JUMPDEST PUSH1 0x40 MLOAD DUP1 SWAP2 SUB SWAP1 RETURN JUMPDEST PUSH2 0xBE PUSH2 0x184 JUMP JUMPDEST STOP JUMPDEST PUSH2 0xC8 PUSH2 0x304 JUMP JUMPDEST PUSH1 0x40 MLOAD PUSH2 0xD5 SWAP2 SWAP1 PUSH2 0x646 JUMP JUMPDEST PUSH1 0x40 MLOAD DUP1 SWAP2 SUB SWAP1 RETURN JUMPDEST PUSH2 0xE6 PUSH2 0x317 JUMP JUMPDEST PUSH1 0x40 MLOAD PUSH2 0xF3 SWAP2 SWAP1 PUSH2 0x6A2 JUMP JUMPDEST PUSH1 0x40 MLOAD DUP1 SWAP2 SUB SWAP1 RETURN JUMPDEST PUSH2 0x104 PUSH2 0x33D JUMP JUMPDEST STOP JUMPDEST PUSH2 0x10E PUSH2 0x565 JUMP JUMPDEST PUSH1 0x40 MLOAD PUSH2 0x11B SWAP2 SWAP1 PUSH2 0x6A2 JUMP JUMPDEST PUSH1 0x40 MLOAD DUP1 SWAP2 SUB SWAP1 RETURN JUMPDEST PUSH2 0x12C PUSH2 0x58B JUMP JUMPDEST PUSH1 0x40 MLOAD PUSH2 0x139 SWAP2 SWAP1 PUSH2 0x610 JUMP JUMPDEST PUSH1 0x40 MLOAD DUP1 SWAP2 SUB SWAP1 RETURN JUMPDEST PUSH2 0x14A PUSH2 0x591 JUMP JUMPDEST PUSH1 0x40 MLOAD PUSH2 0x157 SWAP2 SWAP1 PUSH2 0x610 JUMP JUMPDEST PUSH1 0x40 MLOAD DUP1 SWAP2 SUB SWAP1 RETURN JUMPDEST PUSH2 0x168 PUSH2 0x5D3 JUMP JUMPDEST PUSH1 0x40 MLOAD PUSH2 0x175 SWAP2 SWAP1 PUSH2 0x6DE JUMP JUMPDEST PUSH1 0x40 MLOAD DUP1 SWAP2 SUB SWAP1 RETURN JUMPDEST PUSH1 0x4 SLOAD DUP2 JUMP JUMPDEST PUSH1 0x0 DUP1 SLOAD SWAP1 PUSH2 0x100 EXP SWAP1 DIV PUSH20 0xFFFFFFFFFFFFFFFFFFFFFFFFFFFFFFFFFFFFFFFF AND PUSH20 0xFFFFFFFFFFFFFFFFFFFFFFFFFFFFFFFFFFFFFFFF AND CALLER PUSH20 0xFFFFFFFFFFFFFFFFFFFFFFFFFFFFFFFFFFFFFFFF AND EQ PUSH2 0x212 JUMPI PUSH1 0x40 MLOAD PUSH32 0x8C379A000000000000000000000000000000000000000000000000000000000 DUP2 MSTORE PUSH1 0x4 ADD PUSH2 0x209 SWAP1 PUSH2 0x756 JUMP JUMPDEST PUSH1 0x40 MLOAD DUP1 SWAP2 SUB SWAP1 REVERT JUMPDEST PUSH1 0x0 SELFBALANCE SWAP1 POP PUSH1 0x0 PUSH1 0x2 PUSH1 0x0 SWAP1 SLOAD SWAP1 PUSH2 0x100 EXP SWAP1 DIV PUSH20 0xFFFFFFFFFFFFFFFFFFFFFFFFFFFFFFFFFFFFFFFF AND PUSH20 0xFFFFFFFFFFFFFFFFFFFFFFFFFFFFFFFFFFFFFFFF AND DUP3 PUSH1 0x40 MLOAD PUSH2 0x25F SWAP1 PUSH2 0x7A7 JUMP JUMPDEST PUSH1 0x0 PUSH1 0x40 MLOAD DUP1 DUP4 SUB DUP2 DUP6 DUP8 GAS CALL SWAP3 POP POP POP RETURNDATASIZE DUP1 PUSH1 0x0 DUP2 EQ PUSH2 0x29C JUMPI PUSH1 0x40 MLOAD SWAP2 POP PUSH1 0x1F NOT PUSH1 0x3F RETURNDATASIZE ADD AND DUP3 ADD PUSH1 0x40 MSTORE RETURNDATASIZE DUP3 MSTORE RETURNDATASIZE PUSH1 0x0 PUSH1 0x20 DUP5 ADD RETURNDATACOPY PUSH2 0x2A1 JUMP JUMPDEST PUSH1 0x60 SWAP2 POP JUMPDEST POP POP SWAP1 POP DUP1 PUSH2 0x2E5 JUMPI PUSH1 0x40 MLOAD PUSH32 0x8C379A000000000000000000000000000000000000000000000000000000000 DUP2 MSTORE PUSH1 0x4 ADD PUSH2 0x2DC SWAP1 PUSH2 0x808 JUMP JUMPDEST PUSH1 0x40 MLOAD DUP1 SWAP2 SUB SWAP1 REVERT JUMPDEST PUSH1 0x1 PUSH1 0x5 PUSH1 0x0 PUSH2 0x100 EXP DUP2 SLOAD DUP2 PUSH1 0xFF MUL NOT AND SWAP1 DUP4 ISZERO ISZERO MUL OR SWAP1 SSTORE POP POP POP JUMP JUMPDEST PUSH1 0x5 PUSH1 0x0 SWAP1 SLOAD SWAP1 PUSH2 0x100 EXP SWAP1 DIV PUSH1 0xFF AND DUP2 JUMP JUMPDEST PUSH1 0x2 PUSH1 0x0 SWAP1 SLOAD SWAP1 PUSH2 0x100 EXP SWAP1 DIV PUSH20 0xFFFFFFFFFFFFFFFFFFFFFFFFFFFFFFFFFFFFFFFF AND DUP2 JUMP JUMPDEST PUSH1 0x0 DUP1 SLOAD SWAP1 PUSH2 0x100 EXP SWAP1 DIV PUSH20 0xFFFFFFFFFFFFFFFFFFFFFFFFFFFFFFFFFFFFFFFF AND PUSH20 0xFFFFFFFFFFFFFFFFFFFFFFFFFFFFFFFFFFFFFFFF AND CALLER PUSH20 0xFFFFFFFFFFFFFFFFFFFFFFFFFFFFFFFFFFFFFFFF AND EQ DUP1 PUSH2 0x3FF JUMPI POP PUSH1 0x1 PUSH1 0x0 SWAP1 SLOAD SWAP1 PUSH2 0x100 EXP SWAP1 DIV PUSH20 0xFFFFFFFFFFFFFFFFFFFFFFFFFFFFFFFFFFFFFFFF AND PUSH20 0xFFFFFFFFFFFFFFFFFFFFFFFFFFFFFFFFFFFFFFFF AND CALLER PUSH20 0xFFFFFFFFFFFFFFFFFFFFFFFFFFFFFFFFFFFFFFFF AND EQ DUP1 ISZERO PUSH2 0x3FE JUMPI POP PUSH1 0x4 SLOAD PUSH1 0x3 SLOAD PUSH2 0x3FA SWAP2 SWAP1 PUSH2 0x857 JUMP JUMPDEST TIMESTAMP LT ISZERO JUMPDEST JUMPDEST PUSH2 0x43E JUMPI PUSH1 0x40 MLOAD PUSH32 0x8C379A000000000000000000000000000000000000000000000000000000000 DUP2 MSTORE PUSH1 0x4 ADD PUSH2 0x435 SWAP1 PUSH2 0x8D7 JUMP JUMPDEST PUSH1 0x40 MLOAD DUP1 SWAP2 SUB SWAP1 REVERT JUMPDEST PUSH1 0x5 PUSH1 0x0 SWAP1 SLOAD SWAP1 PUSH2 0x100 EXP SWAP1 DIV PUSH1 0xFF AND ISZERO PUSH2 0x48E JUMPI PUSH1 0x40 MLOAD PUSH32 0x8C379A000000000000000000000000000000000000000000000000000000000 DUP2 MSTORE PUSH1 0x4 ADD PUSH2 0x485 SWAP1 PUSH2 0x943 JUMP JUMPDEST PUSH1 0x40 MLOAD DUP1 SWAP2 SUB SWAP1 REVERT JUMPDEST PUSH1 0x0 SELFBALANCE SWAP1 POP PUSH1 0x0 PUSH1 0x1 PUSH1 0x0 SWAP1 SLOAD SWAP1 PUSH2 0x100 EXP SWAP1 DIV PUSH20 0xFFFFFFFFFFFFFFFFFFFFFFFFFFFFFFFFFFFFFFFF AND PUSH20 0xFFFFFFFFFFFFFFFFFFFFFFFFFFFFFFFFFFFFFFFF AND DUP3 PUSH1 0x40 MLOAD PUSH2 0x4DB SWAP1 PUSH2 0x7A7 JUMP JUMPDEST PUSH1 0x0 PUSH1 0x40 MLOAD DUP1 DUP4 SUB DUP2 DUP6 DUP8 GAS CALL SWAP3 POP POP POP RETURNDATASIZE DUP1 PUSH1 0x0 DUP2 EQ PUSH2 0x518 JUMPI PUSH1 0x40 MLOAD SWAP2 POP PUSH1 0x1F NOT PUSH1 0x3F RETURNDATASIZE ADD AND DUP3 ADD PUSH1 0x40 MSTORE RETURNDATASIZE DUP3 MSTORE RETURNDATASIZE PUSH1 0x0 PUSH1 0x20 DUP5 ADD RETURNDATACOPY PUSH2 0x51D JUMP JUMPDEST PUSH1 0x60 SWAP2 POP JUMPDEST POP POP SWAP1 POP DUP1 PUSH2 0x561 JUMPI PUSH1 0x40 MLOAD PUSH32 0x8C379A000000000000000000000000000000000000000000000000000000000 DUP2 MSTORE PUSH1 0x4 ADD PUSH2 0x558 SWAP1 PUSH2 0x808 JUMP JUMPDEST PUSH1 0x40 MLOAD DUP1 SWAP2 SUB SWAP1 REVERT JUMPDEST POP POP JUMP JUMPDEST PUSH1 0x1 PUSH1 0x0 SWAP1 SLOAD SWAP1 PUSH2 0x100 EXP SWAP1 DIV PUSH20 0xFFFFFFFFFFFFFFFFFFFFFFFFFFFFFFFFFFFFFFFF AND DUP2 JUMP JUMPDEST PUSH1 0x3 SLOAD DUP2 JUMP JUMPDEST PUSH1 0x0 PUSH1 0x4 SLOAD PUSH1 0x3 SLOAD PUSH2 0x5A3 SWAP2 SWAP1 PUSH2 0x857 JUMP JUMPDEST TIMESTAMP LT PUSH2 0x5B2 JUMPI PUSH1 0x0 SWAP1 POP PUSH2 0x5D0 JUMP JUMPDEST TIMESTAMP PUSH1 0x4 SLOAD PUSH1 0x3 SLOAD PUSH2 0x5C3 SWAP2 SWAP1 PUSH2 0x857 JUMP JUMPDEST PUSH2 0x5CD SWAP2 SWAP1 PUSH2 0x963 JUMP JUMPDEST SWAP1 POP JUMPDEST SWAP1 JUMP JUMPDEST PUSH1 0x0 DUP1 SLOAD SWAP1 PUSH2 0x100 EXP SWAP1 DIV PUSH20 0xFFFFFFFFFFFFFFFFFFFFFFFFFFFFFFFFFFFFFFFF AND DUP2 JUMP JUMPDEST PUSH1 0x0 DUP2 SWAP1 POP SWAP2 SWAP1 POP JUMP JUMPDEST PUSH2 0x60A DUP2 PUSH2 0x5F7 JUMP JUMPDEST DUP3 MSTORE POP POP JUMP JUMPDEST PUSH1 0x0 PUSH1 0x20 DUP3 ADD SWAP1 POP PUSH2 0x625 PUSH1 0x0 DUP4 ADD DUP5 PUSH2 0x601 JUMP JUMPDEST SWAP3 SWAP2 POP POP JUMP JUMPDEST PUSH1 0x0 DUP2 ISZERO ISZERO SWAP1 POP SWAP2 SWAP1 POP JUMP JUMPDEST PUSH2 0x640 DUP2 PUSH2 0x62B JUMP JUMPDEST DUP3 MSTORE POP POP JUMP JUMPDEST PUSH1 0x0 PUSH1 0x20 DUP3 ADD SWAP1 POP PUSH2 0x65B PUSH1 0x0 DUP4 ADD DUP5 PUSH2 0x637 JUMP JUMPDEST SWAP3 SWAP2 POP POP JUMP JUMPDEST PUSH1 0x0 PUSH20 0xFFFFFFFFFFFFFFFFFFFFFFFFFFFFFFFFFFFFFFFF DUP3 AND SWAP1 POP SWAP2 SWAP1 POP JUMP JUMPDEST PUSH1 0x0 PUSH2 0x68C DUP3 PUSH2 0x661 JUMP JUMPDEST SWAP1 POP SWAP2 SWAP1 POP JUMP JUMPDEST PUSH2 0x69C DUP2 PUSH2 0x681 JUMP JUMPDEST DUP3 MSTORE POP POP JUMP JUMPDEST PUSH1 0x0 PUSH1 0x20 DUP3 ADD SWAP1 POP PUSH2 0x6B7 PUSH1 0x0 DUP4 ADD DUP5 PUSH2 0x693 JUMP JUMPDEST SWAP3 SWAP2 POP POP JUMP JUMPDEST PUSH1 0x0 PUSH2 0x6C8 DUP3 PUSH2 0x661 JUMP JUMPDEST SWAP1 POP SWAP2 SWAP1 POP JUMP JUMPDEST PUSH2 0x6D8 DUP2 PUSH2 0x6BD JUMP JUMPDEST DUP3 MSTORE POP POP JUMP JUMPDEST PUSH1 0x0 PUSH1 0x20 DUP3 ADD SWAP1 POP PUSH2 0x6F3 PUSH1 0x0 DUP4 ADD DUP5 PUSH2 0x6CF JUMP JUMPDEST SWAP3 SWAP2 POP POP JUMP JUMPDEST PUSH1 0x0 DUP3 DUP3 MSTORE PUSH1 0x20 DUP3 ADD SWAP1 POP SWAP3 SWAP2 POP POP JUMP JUMPDEST PUSH32 0x4F6E6C7920617262697465722063616E20617070726F76650000000000000000 PUSH1 0x0 DUP3 ADD MSTORE POP JUMP JUMPDEST PUSH1 0x0 PUSH2 0x740 PUSH1 0x18 DUP4 PUSH2 0x6F9 JUMP JUMPDEST SWAP2 POP PUSH2 0x74B DUP3 PUSH2 0x70A JUMP JUMPDEST PUSH1 0x20 DUP3 ADD SWAP1 POP SWAP2 SWAP1 POP JUMP JUMPDEST PUSH1 0x0 PUSH1 0x20 DUP3 ADD SWAP1 POP DUP2 DUP2 SUB PUSH1 0x0 DUP4 ADD MSTORE PUSH2 0x76F DUP2 PUSH2 0x733 JUMP JUMPDEST SWAP1 POP SWAP2 SWAP1 POP JUMP JUMPDEST PUSH1 0x0 DUP2 SWAP1 POP SWAP3 SWAP2 POP POP JUMP JUMPDEST POP JUMP JUMPDEST PUSH1 0x0 PUSH2 0x791 PUSH1 0x0 DUP4 PUSH2 0x776 JUMP JUMPDEST SWAP2 POP PUSH2 0x79C DUP3 PUSH2 0x781 JUMP JUMPDEST PUSH1 0x0 DUP3 ADD SWAP1 POP SWAP2 SWAP1 POP JUMP JUMPDEST PUSH1 0x0 PUSH2 0x7B2 DUP3 PUSH2 0x784 JUMP JUMPDEST SWAP2 POP DUP2 SWAP1 POP SWAP2 SWAP1 POP JUMP JUMPDEST PUSH32 0x4661696C656420746F2073656E64204574686572000000000000000000000000 PUSH1 0x0 DUP3 ADD MSTORE POP JUMP JUMPDEST PUSH1 0x0 PUSH2 0x7F2 PUSH1 0x14 DUP4 PUSH2 0x6F9 JUMP JUMPDEST SWAP2 POP PUSH2 0x7FD DUP3 PUSH2 0x7BC JUMP JUMPDEST PUSH1 0x20 DUP3 ADD SWAP1 POP SWAP2 SWAP1 POP JUMP JUMPDEST PUSH1 0x0 PUSH1 0x20 DUP3 ADD SWAP1 POP DUP2 DUP2 SUB PUSH1 0x0 DUP4 ADD MSTORE PUSH2 0x821 DUP2 PUSH2 0x7E5 JUMP JUMPDEST SWAP1 POP SWAP2 SWAP1 POP JUMP JUMPDEST PUSH32 0x4E487B7100000000000000000000000000000000000000000000000000000000 PUSH1 0x0 MSTORE PUSH1 0x11 PUSH1 0x4 MSTORE PUSH1 0x24 PUSH1 0x0 REVERT JUMPDEST PUSH1 0x0 PUSH2 0x862 DUP3 PUSH2 0x5F7 JUMP JUMPDEST SWAP2 POP PUSH2 0x86D DUP4 PUSH2 0x5F7 JUMP JUMPDEST SWAP3 POP DUP3 DUP3 ADD SWAP1 POP DUP1 DUP3 GT ISZERO PUSH2 0x885 JUMPI PUSH2 0x884 PUSH2 0x828 JUMP JUMPDEST JUMPDEST SWAP3 SWAP2 POP POP JUMP JUMPDEST PUSH32 0x4E6F7420617574686F72697A656420746F20726566756E640000000000000000 PUSH1 0x0 DUP3 ADD MSTORE POP JUMP JUMPDEST PUSH1 0x0 PUSH2 0x8C1 PUSH1 0x18 DUP4 PUSH2 0x6F9 JUMP JUMPDEST SWAP2 POP PUSH2 0x8CC DUP3 PUSH2 0x88B JUMP JUMPDEST PUSH1 0x20 DUP3 ADD SWAP1 POP SWAP2 SWAP1 POP JUMP JUMPDEST PUSH1 0x0 PUSH1 0x20 DUP3 ADD SWAP1 POP DUP2 DUP2 SUB PUSH1 0x0 DUP4 ADD MSTORE PUSH2 0x8F0 DUP2 PUSH2 0x8B4 JUMP JUMPDEST SWAP1 POP SWAP2 SWAP1 POP JUMP JUMPDEST PUSH32 0x416C726561647920617070726F76656400000000000000000000000000000000 PUSH1 0x0 DUP3 ADD MSTORE POP JUMP JUMPDEST PUSH1 0x0 PUSH2 0x92D PUSH1 0x10 DUP4 PUSH2 0x6F9 JUMP JUMPDEST SWAP2 POP PUSH2 0x938 DUP3 PUSH2 0x8F7 JUMP JUMPDEST PUSH1 0x20 DUP3 ADD SWAP1 POP SWAP2 SWAP1 POP JUMP JUMPDEST PUSH1 0x0 PUSH1 0x20 DUP3 ADD SWAP1 POP DUP2 DUP2 SUB PUSH1 0x0 DUP4 ADD MSTORE PUSH2 0x95C DUP2 PUSH2 0x920 JUMP JUMPDEST SWAP1 POP SWAP2 SWAP1 POP JUMP JUMPDEST PUSH1 0x0 PUSH2 0x96E DUP3 PUSH2 0x5F7 JUMP JUMPDEST SWAP2 POP PUSH2 0x979 DUP4 PUSH2 0x5F7 JUMP JUMPDEST SWAP3 POP DUP3 DUP3 SUB SWAP1 POP DUP2 DUP2 GT ISZERO PUSH2 0x991 JUMPI PUSH2 0x990 PUSH2 0x828 JUMP JUMPDEST JUMPDEST SWAP3 SWAP2 POP POP JUMP INVALID LOG2 PUSH5 0x6970667358 0x22 SLT KECCAK256 0xE1 0x2D DUP1 EXTCODESIZE CALLDATACOPY 0xDC EXTCODESIZE 0x2F GASPRICE DELEGATECALL SWAP3 0xA7 LT 0x22 RETURNDATASIZE PUSH20 0xAE0D159D92717999D1753CF9FA16CA3864736F6C PUSH4 0x43000818 STOP CALLER LOG2 PUSH5 0x6970667358 0x22 SLT KECCAK256 0xF6 PUSH10 0xDDC6FD43CC9F2AB633CE SWAP8 0xFC 0x4E 0xBD SWAP4 SAR PUSH2 0x7153 0xBB ADDMOD SUB 0xB4 0xAD 0xD9 0x27 SAR DUP3 0xDC NOT PUSH5 0x736F6C6343 STOP ADDMOD XOR STOP CALLER "},"methodIdentifiers":{"createEscrow(address,address,uint256)":"c3617650","escrows(uint256)":"012f52ee","getEscrows()":"6afcb6da"}}}}}