{"contracts/EscrowFactory.sol":{"EscrowFactory":{"abi":[{"anonymous":false,"inputs":[{"indexed":true,"internalType":"address","name":"escrowAddress","type":"address"},{"indexed":true,"internalType":"address","name":"arbiter","type":"address"},{"indexed":true,"internalType":"address","name":"beneficiary","type":"address"},{"indexed":false,"internalType":"uint256","name":"amount","type":"uint256"}],"name":"EscrowCreated","type":"event"},{"inputs":[{"internalType":"address","name":"_arbiter","type":"address"},{"internalType":"address payable","name":"_beneficiary","type":"address"}],"name":"createEscrow","outputs":[{"internalType":"contract ChainGuardEscrow","name":"","type":"address"}],"stateMutability":"payable","type":"function"},{"inputs":[{"internalType":"uint256","name":"","type":"uint256"}],"name":"escrows","outputs":[{"internalType":"contract ChainGuardEscrow","name":"","type":"address"}],"stateMutability":"view","type":"function"},{"inputs":[],"name":"getEscrows","outputs":[{"internalType":"contract ChainGuardEscrow[]","name":"","type":"address[]"}],"stateMutability":"view","type":"function"}],"evm":{"bytecode":{"linkReferences":{},"object":"608060405234801561001057600080fd5b5061164a806100206000396000f3fe608060405260043610620000385760003560e01c8063012f52ee146200003d5780636afcb6da1462000081578063834cc6fc14620000b1575b600080fd5b3480156200004a57600080fd5b5062000069600480360381019062000063919062000332565b620000e7565b604051620000789190620003ef565b60405180910390f35b3480156200008e57600080fd5b506200009962000127565b604051620000a89190620004da565b60405180910390f35b620000cf6004803603810190620000c9919062000588565b620001b7565b604051620000de9190620003ef565b60405180910390f35b60008181548110620000f857600080fd5b906000526020600020016000915054906101000a900473ffffffffffffffffffffffffffffffffffffffff1681565b60606000805480602002602001604051908101604052809291908181526020018280548015620001ad57602002820191906000526020600020905b8160009054906101000a900473ffffffffffffffffffffffffffffffffffffffff1673ffffffffffffffffffffffffffffffffffffffff168152602001906001019080831162000162575b5050505050905090565b600080348484604051620001cb90620002e4565b620001d8929190620005f1565b6040518091039082f0905080158015620001f6573d6000803e3d6000fd5b5090506000819080600181540180825580915050600190039060005260206000200160009091909190916101000a81548173ffffffffffffffffffffffffffffffffffffffff021916908373ffffffffffffffffffffffffffffffffffffffff1602179055508273ffffffffffffffffffffffffffffffffffffffff168473ffffffffffffffffffffffffffffffffffffffff168273ffffffffffffffffffffffffffffffffffffffff167fd99c67ae0185d6b0a36717d67d259f252914f7955744e4d81a91685ff480896d34604051620002d291906200062f565b60405180910390a48091505092915050565b610fc8806200064d83390190565b600080fd5b6000819050919050565b6200030c81620002f7565b81146200031857600080fd5b50565b6000813590506200032c8162000301565b92915050565b6000602082840312156200034b576200034a620002f2565b5b60006200035b848285016200031b565b91505092915050565b600073ffffffffffffffffffffffffffffffffffffffff82169050919050565b6000819050919050565b6000620003af620003a9620003a38462000364565b62000384565b62000364565b9050919050565b6000620003c3826200038e565b9050919050565b6000620003d782620003b6565b9050919050565b620003e981620003ca565b82525050565b6000602082019050620004066000830184620003de565b92915050565b600081519050919050565b600082825260208201905092915050565b6000819050602082019050919050565b6200044381620003ca565b82525050565b600062000457838362000438565b60208301905092915050565b6000602082019050919050565b60006200047d826200040c565b62000489818562000417565b9350620004968362000428565b8060005b83811015620004cd578151620004b1888262000449565b9750620004be8362000463565b9250506001810190506200049a565b5085935050505092915050565b60006020820190508181036000830152620004f6818462000470565b905092915050565b60006200050b8262000364565b9050919050565b6200051d81620004fe565b81146200052957600080fd5b50565b6000813590506200053d8162000512565b92915050565b6000620005508262000364565b9050919050565b620005628162000543565b81146200056e57600080fd5b50565b600081359050620005828162000557565b92915050565b60008060408385031215620005a257620005a1620002f2565b5b6000620005b2858286016200052c565b9250506020620005c58582860162000571565b9150509250929050565b620005da81620004fe565b82525050565b620005eb8162000543565b82525050565b6000604082019050620006086000830185620005cf565b620006176020830184620005e0565b9392505050565b6200062981620002f7565b82525050565b60006020820190506200064660008301846200061e565b9291505056fe60e060405260405162000fc838038062000fc88339818101604052810190620000299190620001ca565b60016000819055506000341162000077576040517f08c379a00000000000000000000000000000000000000000000000000000000081526004016200006e9062000298565b60405180910390fd5b8173ffffffffffffffffffffffffffffffffffffffff1660808173ffffffffffffffffffffffffffffffffffffffff16815250503373ffffffffffffffffffffffffffffffffffffffff1660a08173ffffffffffffffffffffffffffffffffffffffff16815250508073ffffffffffffffffffffffffffffffffffffffff1660c08173ffffffffffffffffffffffffffffffffffffffff16815250505050620002ba565b600080fd5b600073ffffffffffffffffffffffffffffffffffffffff82169050919050565b60006200014d8262000120565b9050919050565b6200015f8162000140565b81146200016b57600080fd5b50565b6000815190506200017f8162000154565b92915050565b6000620001928262000120565b9050919050565b620001a48162000185565b8114620001b057600080fd5b50565b600081519050620001c48162000199565b92915050565b60008060408385031215620001e457620001e36200011b565b5b6000620001f4858286016200016e565b92505060206200020785828601620001b3565b9150509250929050565b600082825260208201905092915050565b7f4465706f73697420616d6f756e74206d7573742062652067726561746572207460008201527f68616e2030000000000000000000000000000000000000000000000000000000602082015250565b60006200028060258362000211565b91506200028d8262000222565b604082019050919050565b60006020820190508181036000830152620002b38162000271565b9050919050565b60805160a05160c051610cc262000306600039600081816102f701526104170152600081816105d301526106f10152600081816101670152818161044301526107150152610cc26000f3fe608060405234801561001057600080fd5b50600436106100885760003560e01c8063590e1ae31161005b578063590e1ae3146100f1578063779cd083146100fb578063c7c4ff4614610119578063fe25e00a1461013757610088565b806312065fe01461008d57806312424e3f146100ab57806328f371aa146100b557806338af3eed146100d3575b600080fd5b610095610155565b6040516100a291906107a0565b60405180910390f35b6100b361015d565b005b6100bd610402565b6040516100ca91906107d6565b60405180910390f35b6100db610415565b6040516100e89190610832565b60405180910390f35b6100f9610439565b005b6101036106de565b60405161011091906107d6565b60405180910390f35b6101216106ef565b60405161012e919061086e565b60405180910390f35b61013f610713565b60405161014c919061086e565b60405180910390f35b600047905090565b610165610737565b7f000000000000000000000000000000000000000000000000000000000000000073ffffffffffffffffffffffffffffffffffffffff163373ffffffffffffffffffffffffffffffffffffffff16146101f3576040517f08c379a00000000000000000000000000000000000000000000000000000000081526004016101ea906108e6565b60405180910390fd5b600160009054906101000a900460ff1615610243576040517f08c379a000000000000000000000000000000000000000000000000000000000815260040161023a90610952565b60405180910390fd5b60018054906101000a900460ff1615610291576040517f08c379a0000000000000000000000000000000000000000000000000000000008152600401610288906109be565b60405180910390fd5b6000479050600081116102d9576040517f08c379a00000000000000000000000000000000000000000000000000000000081526004016102d090610a2a565b60405180910390fd5b60018060006101000a81548160ff02191690831515021790555060007f000000000000000000000000000000000000000000000000000000000000000073ffffffffffffffffffffffffffffffffffffffff168260405161033990610a7b565b60006040518083038185875af1925050503d8060008114610376576040519150601f19603f3d011682016040523d82523d6000602084013e61037b565b606091505b50509050806103bf576040517f08c379a00000000000000000000000000000000000000000000000000000000081526004016103b690610b02565b60405180910390fd5b7f3ad93af63cb7967b23e4fb500b7d7d28b07516325dcf341f88bebf959d82c1cb826040516103ee91906107a0565b60405180910390a1505061040061077d565b565b600160009054906101000a900460ff1681565b7f000000000000000000000000000000000000000000000000000000000000000081565b610441610737565b7f000000000000000000000000000000000000000000000000000000000000000073ffffffffffffffffffffffffffffffffffffffff163373ffffffffffffffffffffffffffffffffffffffff16146104cf576040517f08c379a00000000000000000000000000000000000000000000000000000000081526004016104c690610b6e565b60405180910390fd5b600160009054906101000a900460ff161561051f576040517f08c379a000000000000000000000000000000000000000000000000000000000815260040161051690610952565b60405180910390fd5b60018054906101000a900460ff161561056d576040517f08c379a0000000000000000000000000000000000000000000000000000000008152600401610564906109be565b60405180910390fd5b6000479050600081116105b5576040517f08c379a00000000000000000000000000000000000000000000000000000000081526004016105ac90610bda565b60405180910390fd5b60018060016101000a81548160ff02191690831515021790555060007f000000000000000000000000000000000000000000000000000000000000000073ffffffffffffffffffffffffffffffffffffffff168260405161061590610a7b565b60006040518083038185875af1925050503d8060008114610652576040519150601f19603f3d011682016040523d82523d6000602084013e610657565b606091505b505090508061069b576040517f08c379a000000000000000000000000000000000000000000000000000000000815260040161069290610c6c565b60405180910390fd5b7f3d2a04f53164bedf9a8a46353305d6b2d2261410406df3b41f99ce6489dc003c826040516106ca91906107a0565b60405180910390a150506106dc61077d565b565b60018054906101000a900460ff1681565b7f000000000000000000000000000000000000000000000000000000000000000081565b7f000000000000000000000000000000000000000000000000000000000000000081565b600260005403610773576040517f3ee5aeb500000000000000000000000000000000000000000000000000000000815260040160405180910390fd5b6002600081905550565b6001600081905550565b6000819050919050565b61079a81610787565b82525050565b60006020820190506107b56000830184610791565b92915050565b60008115159050919050565b6107d0816107bb565b82525050565b60006020820190506107eb60008301846107c7565b92915050565b600073ffffffffffffffffffffffffffffffffffffffff82169050919050565b600061081c826107f1565b9050919050565b61082c81610811565b82525050565b60006020820190506108476000830184610823565b92915050565b6000610858826107f1565b9050919050565b6108688161084d565b82525050565b6000602082019050610883600083018461085f565b92915050565b600082825260208201905092915050565b7f4f6e6c7920617262697465722063616e20617070726f76650000000000000000600082015250565b60006108d0601883610889565b91506108db8261089a565b602082019050919050565b600060208201905081810360008301526108ff816108c3565b9050919050565b7f416c726561647920617070726f76656400000000000000000000000000000000600082015250565b600061093c601083610889565b915061094782610906565b602082019050919050565b6000602082019050818103600083015261096b8161092f565b9050919050565b7f416c726561647920726566756e64656400000000000000000000000000000000600082015250565b60006109a8601083610889565b91506109b382610972565b602082019050919050565b600060208201905081810360008301526109d78161099b565b9050919050565b7f4e6f2066756e647320746f20617070726f766500000000000000000000000000600082015250565b6000610a14601383610889565b9150610a1f826109de565b602082019050919050565b60006020820190508181036000830152610a4381610a07565b9050919050565b600081905092915050565b50565b6000610a65600083610a4a565b9150610a7082610a55565b600082019050919050565b6000610a8682610a58565b9150819050919050565b7f4661696c656420746f2073656e6420457468657220746f2062656e656669636960008201527f6172790000000000000000000000000000000000000000000000000000000000602082015250565b6000610aec602383610889565b9150610af782610a90565b604082019050919050565b60006020820190508181036000830152610b1b81610adf565b9050919050565b7f4f6e6c7920617262697465722063616e20726566756e64000000000000000000600082015250565b6000610b58601783610889565b9150610b6382610b22565b602082019050919050565b60006020820190508181036000830152610b8781610b4b565b9050919050565b7f4e6f2066756e647320746f20726566756e640000000000000000000000000000600082015250565b6000610bc4601283610889565b9150610bcf82610b8e565b602082019050919050565b60006020820190508181036000830152610bf381610bb7565b9050919050565b7f4661696c656420746f2073656e6420457468657220746f206465706f7369746f60008201527f7200000000000000000000000000000000000000000000000000000000000000602082015250565b6000610c56602183610889565b9150610c6182610bfa565b604082019050919050565b60006020820190508181036000830152610c8581610c49565b905091905056fea2646970667358221220073fa5314c2ffecbe82cac2f9f75f7b7e2180d3e0440f5f14cee7ca91a81348d64736f6c63430008180033a2646970667358221220883775a4cb5cbd96ee3f0b78afb5f208897852f12daa39964fa8b076efbddeb564736f6c63430008180033","opcodes":"PUSH1 0x80 PUSH1 0x40 MSTORE CALLVALUE DUP1 ISZERO PUSH2 0x10 JUMPI PUSH1 0x0 DUP1 REVERT JUMPDEST POP PUSH2 0x164A DUP1 PUSH2 0x20 PUSH1 0x0 CODECOPY PUSH1 0x0 RETURN INVALID PUSH1 0x80 PUSH1 0x40 MSTORE PUSH1 0x4 CALLDATASIZE LT PUSH3 0x38 JUMPI PUSH1 0x0 CALLDATALOAD PUSH1 0xE0 SHR DUP1 PUSH4 0x12F52EE EQ PUSH3 0x3D JUMPI DUP1 PUSH4 0x6AFCB6DA EQ PUSH3 0x81 JUMPI DUP1 PUSH4 0x834CC6FC EQ PUSH3 0xB1 JUMPI JUMPDEST PUSH1 0x0 DUP1 REVERT JUMPDEST CALLVALUE DUP1 ISZERO PUSH3 0x4A JUMPI PUSH1 0x0 DUP1 REVERT JUMPDEST POP PUSH3 0x69 PUSH1 0x4 DUP1 CALLDATASIZE SUB DUP2 ADD SWAP1 PUSH3 0x63 SWAP2 SWAP1 PUSH3 0x332 JUMP JUMPDEST PUSH3 0xE7 JUMP JUMPDEST PUSH1 0x40 MLOAD PUSH3 0x78 SWAP2 SWAP1 PUSH3 0x3EF JUMP JUMPDEST PUSH1 0x40 MLOAD DUP1 SWAP2 SUB SWAP1 RETURN JUMPDEST CALLVALUE DUP1 ISZERO PUSH3 0x8E JUMPI PUSH1 0x0 DUP1 REVERT JUMPDEST POP PUSH3 0x99 PUSH3 0x127 JUMP JUMPDEST PUSH1 0x40 MLOAD PUSH3 0xA8 SWAP2 SWAP1 PUSH3 0x4DA JUMP JUMPDEST PUSH1 0x40 MLOAD DUP1 SWAP2 SUB SWAP1 RETURN JUMPDEST PUSH3 0xCF PUSH1 0x4 DUP1 CALLDATASIZE SUB DUP2 ADD SWAP1 PUSH3 0xC9 SWAP2 SWAP1 PUSH3 0x588 JUMP JUMPDEST PUSH3 0x1B7 JUMP JUMPDEST PUSH1 0x40 MLOAD PUSH3 0xDE SWAP2 SWAP1 PUSH3 0x3EF JUMP JUMPDEST PUSH1 0x40 MLOAD DUP1 SWAP2 SUB SWAP1 RETURN JUMPDEST PUSH1 0x0 DUP2 DUP2 SLOAD DUP2 LT PUSH3 0xF8 JUMPI PUSH1 0x0 DUP1 REVERT JUMPDEST SWAP1 PUSH1 0x0 MSTORE PUSH1 0x20 PUSH1 0x0 KECCAK256 ADD PUSH1 0x0 SWAP2 POP SLOAD SWAP1 PUSH2 0x100 EXP SWAP1 DIV PUSH20 0xFFFFFFFFFFFFFFFFFFFFFFFFFFFFFFFFFFFFFFFF AND DUP2 JUMP JUMPDEST PUSH1 0x60 PUSH1 0x0 DUP1 SLOAD DUP1 PUSH1 0x20 MUL PUSH1 0x20 ADD PUSH1 0x40 MLOAD SWAP1 DUP2 ADD PUSH1 0x40 MSTORE DUP1 SWAP3 SWAP2 SWAP1 DUP2 DUP2 MSTORE PUSH1 0x20 ADD DUP3 DUP1 SLOAD DUP1 ISZERO PUSH3 0x1AD JUMPI PUSH1 0x20 MUL DUP3 ADD SWAP2 SWAP1 PUSH1 0x0 MSTORE PUSH1 0x20 PUSH1 0x0 KECCAK256 SWAP1 JUMPDEST DUP2 PUSH1 0x0 SWAP1 SLOAD SWAP1 PUSH2 0x100 EXP SWAP1 DIV PUSH20 0xFFFFFFFFFFFFFFFFFFFFFFFFFFFFFFFFFFFFFFFF AND PUSH20 0xFFFFFFFFFFFFFFFFFFFFFFFFFFFFFFFFFFFFFFFF AND DUP2 MSTORE PUSH1 0x20 ADD SWAP1 PUSH1 0x1 ADD SWAP1 DUP1 DUP4 GT PUSH3 0x162 JUMPI JUMPDEST POP POP POP POP POP SWAP1 POP SWAP1 JUMP JUMPDEST PUSH1 0x0 DUP1 CALLVALUE DUP5 DUP5 PUSH1 0x40 MLOAD PUSH3 0x1CB SWAP1 PUSH3 0x2E4 JUMP JUMPDEST PUSH3 0x1D8 SWAP3 SWAP2 SWAP1 PUSH3 0x5F1 JUMP JUMPDEST PUSH1 0x40 MLOAD DUP1 SWAP2 SUB SWAP1 DUP3 CREATE SWAP1 POP DUP1 ISZERO DUP1 ISZERO PUSH3 0x1F6 JUMPI RETURNDATASIZE PUSH1 0x0 DUP1 RETURNDATACOPY RETURNDATASIZE PUSH1 0x0 REVERT JUMPDEST POP SWAP1 POP PUSH1 0x0 DUP2 SWAP1 DUP1 PUSH1 0x1 DUP2 SLOAD ADD DUP1 DUP3 SSTORE DUP1 SWAP2 POP POP PUSH1 0x1 SWAP1 SUB SWAP1 PUSH1 0x0 MSTORE PUSH1 0x20 PUSH1 0x0 KECCAK256 ADD PUSH1 0x0 SWAP1 SWAP2 SWAP1 SWAP2 SWAP1 SWAP2 PUSH2 0x100 EXP DUP2 SLOAD DUP2 PUSH20 0xFFFFFFFFFFFFFFFFFFFFFFFFFFFFFFFFFFFFFFFF MUL NOT AND SWAP1 DUP4 PUSH20 0xFFFFFFFFFFFFFFFFFFFFFFFFFFFFFFFFFFFFFFFF AND MUL OR SWAP1 SSTORE POP DUP3 PUSH20 0xFFFFFFFFFFFFFFFFFFFFFFFFFFFFFFFFFFFFFFFF AND DUP5 PUSH20 0xFFFFFFFFFFFFFFFFFFFFFFFFFFFFFFFFFFFFFFFF AND DUP3 PUSH20 0xFFFFFFFFFFFFFFFFFFFFFFFFFFFFFFFFFFFFFFFF AND PUSH32 0xD99C67AE0185D6B0A36717D67D259F252914F7955744E4D81A91685FF480896D CALLVALUE PUSH1 0x40 MLOAD PUSH3 0x2D2 SWAP2 SWAP1 PUSH3 0x62F JUMP JUMPDEST PUSH1 0x40 MLOAD DUP1 SWAP2 SUB SWAP1 LOG4 DUP1 SWAP2 POP POP SWAP3 SWAP2 POP POP JUMP JUMPDEST PUSH2 0xFC8 DUP1 PUSH3 0x64D DUP4 CODECOPY ADD SWAP1 JUMP JUMPDEST PUSH1 0x0 DUP1 REVERT JUMPDEST PUSH1 0x0 DUP2 SWAP1 POP SWAP2 SWAP1 POP JUMP JUMPDEST PUSH3 0x30C DUP2 PUSH3 0x2F7 JUMP JUMPDEST DUP2 EQ PUSH3 0x318 JUMPI PUSH1 0x0 DUP1 REVERT JUMPDEST POP JUMP JUMPDEST PUSH1 0x0 DUP2 CALLDATALOAD SWAP1 POP PUSH3 0x32C DUP2 PUSH3 0x301 JUMP JUMPDEST SWAP3 SWAP2 POP POP JUMP JUMPDEST PUSH1 0x0 PUSH1 0x20 DUP3 DUP5 SUB SLT ISZERO PUSH3 0x34B JUMPI PUSH3 0x34A PUSH3 0x2F2 JUMP JUMPDEST JUMPDEST PUSH1 0x0 PUSH3 0x35B DUP5 DUP3 DUP6 ADD PUSH3 0x31B JUMP JUMPDEST SWAP2 POP POP SWAP3 SWAP2 POP POP JUMP JUMPDEST PUSH1 0x0 PUSH20 0xFFFFFFFFFFFFFFFFFFFFFFFFFFFFFFFFFFFFFFFF DUP3 AND SWAP1 POP SWAP2 SWAP1 POP JUMP JUMPDEST PUSH1 0x0 DUP2 SWAP1 POP SWAP2 SWAP1 POP JUMP JUMPDEST PUSH1 0x0 PUSH3 0x3AF PUSH3 0x3A9 PUSH3 0x3A3 DUP5 PUSH3 0x364 JUMP JUMPDEST PUSH3 0x384 JUMP JUMPDEST PUSH3 0x364 JUMP JUMPDEST SWAP1 POP SWAP2 SWAP1 POP JUMP JUMPDEST PUSH1 0x0 PUSH3 0x3C3 DUP3 PUSH3 0x38E JUMP JUMPDEST SWAP1 POP SWAP2 SWAP1 POP JUMP JUMPDEST PUSH1 0x0 PUSH3 0x3D7 DUP3 PUSH3 0x3B6 JUMP JUMPDEST SWAP1 POP SWAP2 SWAP1 POP JUMP JUMPDEST PUSH3 0x3E9 DUP2 PUSH3 0x3CA JUMP JUMPDEST DUP3 MSTORE POP POP JUMP JUMPDEST PUSH1 0x0 PUSH1 0x20 DUP3 ADD SWAP1 POP PUSH3 0x406 PUSH1 0x0 DUP4 ADD DUP5 PUSH3 0x3DE JUMP JUMPDEST SWAP3 SWAP2 POP POP JUMP JUMPDEST PUSH1 0x0 DUP2 MLOAD SWAP1 POP SWAP2 SWAP1 POP JUMP JUMPDEST PUSH1 0x0 DUP3 DUP3 MSTORE PUSH1 0x20 DUP3 ADD SWAP1 POP SWAP3 SWAP2 POP POP JUMP JUMPDEST PUSH1 0x0 DUP2 SWAP1 POP PUSH1 0x20 DUP3 ADD SWAP1 POP SWAP2 SWAP1 POP JUMP JUMPDEST PUSH3 0x443 DUP2 PUSH3 0x3CA JUMP JUMPDEST DUP3 MSTORE POP POP JUMP JUMPDEST PUSH1 0x0 PUSH3 0x457 DUP4 DUP4 PUSH3 0x438 JUMP JUMPDEST PUSH1 0x20 DUP4 ADD SWAP1 POP SWAP3 SWAP2 POP POP JUMP JUMPDEST PUSH1 0x0 PUSH1 0x20 DUP3 ADD SWAP1 POP SWAP2 SWAP1 POP JUMP JUMPDEST PUSH1 0x0 PUSH3 0x47D DUP3 PUSH3 0x40C JUMP JUMPDEST PUSH3 0x489 DUP2 DUP6 PUSH3 0x417 JUMP JUMPDEST SWAP4 POP PUSH3 0x496 DUP4 PUSH3 0x428 JUMP JUMPDEST DUP1 PUSH1 0x0 JUMPDEST DUP4 DUP2 LT ISZERO PUSH3 0x4CD JUMPI DUP2 MLOAD PUSH3 0x4B1 DUP9 DUP3 PUSH3 0x449 JUMP JUMPDEST SWAP8 POP PUSH3 0x4BE DUP4 PUSH3 0x463 JUMP JUMPDEST SWAP3 POP POP PUSH1 0x1 DUP2 ADD SWAP1 POP PUSH3 0x49A JUMP JUMPDEST POP DUP6 SWAP4 POP POP POP POP SWAP3 SWAP2 POP POP JUMP JUMPDEST PUSH1 0x0 PUSH1 0x20 DUP3 ADD SWAP1 POP DUP2 DUP2 SUB PUSH1 0x0 DUP4 ADD MSTORE PUSH3 0x4F6 DUP2 DUP5 PUSH3 0x470 JUMP JUMPDEST SWAP1 POP SWAP3 SWAP2 POP POP JUMP JUMPDEST PUSH1 0x0 PUSH3 0x50B DUP3 PUSH3 0x364 JUMP JUMPDEST SWAP1 POP SWAP2 SWAP1 POP JUMP JUMPDEST PUSH3 0x51D DUP2 PUSH3 0x4FE JUMP JUMPDEST DUP2 EQ PUSH3 0x529 JUMPI PUSH1 0x0 DUP1 REVERT JUMPDEST POP JUMP JUMPDEST PUSH1 0x0 DUP2 CALLDATALOAD SWAP1 POP PUSH3 0x53D DUP2 PUSH3 0x512 JUMP JUMPDEST SWAP3 SWAP2 POP POP JUMP JUMPDEST PUSH1 0x0 PUSH3 0x550 DUP3 PUSH3 0x364 JUMP JUMPDEST SWAP1 POP SWAP2 SWAP1 POP JUMP JUMPDEST PUSH3 0x562 DUP2 PUSH3 0x543 JUMP JUMPDEST DUP2 EQ PUSH3 0x56E JUMPI PUSH1 0x0 DUP1 REVERT JUMPDEST POP JUMP JUMPDEST PUSH1 0x0 DUP2 CALLDATALOAD SWAP1 POP PUSH3 0x582 DUP2 PUSH3 0x557 JUMP JUMPDEST SWAP3 SWAP2 POP POP JUMP JUMPDEST PUSH1 0x0 DUP1 PUSH1 0x40 DUP4 DUP6 SUB SLT ISZERO PUSH3 0x5A2 JUMPI PUSH3 0x5A1 PUSH3 0x2F2 JUMP JUMPDEST JUMPDEST PUSH1 0x0 PUSH3 0x5B2 DUP6 DUP3 DUP7 ADD PUSH3 0x52C JUMP JUMPDEST SWAP3 POP POP PUSH1 0x20 PUSH3 0x5C5 DUP6 DUP3 DUP7 ADD PUSH3 0x571 JUMP JUMPDEST SWAP2 POP POP SWAP3 POP SWAP3 SWAP1 POP JUMP JUMPDEST PUSH3 0x5DA DUP2 PUSH3 0x4FE JUMP JUMPDEST DUP3 MSTORE POP POP JUMP JUMPDEST PUSH3 0x5EB DUP2 PUSH3 0x543 JUMP JUMPDEST DUP3 MSTORE POP POP JUMP JUMPDEST PUSH1 0x0 PUSH1 0x40 DUP3 ADD SWAP1 POP PUSH3 0x608 PUSH1 0x0 DUP4 ADD DUP6 PUSH3 0x5CF JUMP JUMPDEST PUSH3 0x617 PUSH1 0x20 DUP4 ADD DUP5 PUSH3 0x5E0 JUMP JUMPDEST SWAP4 SWAP3 POP POP POP JUMP JUMPDEST PUSH3 0x629 DUP2 PUSH3 0x2F7 JUMP JUMPDEST DUP3 MSTORE POP POP JUMP JUMPDEST PUSH1 0x0 PUSH1 0x20 DUP3 ADD SWAP1 POP PUSH3 0x646 PUSH1 0x0 DUP4 ADD DUP5 PUSH3 0x61E JUMP JUMPDEST SWAP3 SWAP2 POP POP JUMP INVALID PUSH1 0xE0 PUSH1 0x40 MSTORE PUSH1 0x40 MLOAD PUSH3 0xFC8 CODESIZE SUB DUP1 PUSH3 0xFC8 DUP4 CODECOPY DUP2 DUP2 ADD PUSH1 0x40 MSTORE DUP2 ADD SWAP1 PUSH3 0x29 SWAP2 SWAP1 PUSH3 0x1CA JUMP JUMPDEST PUSH1 0x1 PUSH1 0x0 DUP2 SWAP1 SSTORE POP PUSH1 0x0 CALLVALUE GT PUSH3 0x77 JUMPI PUSH1 0x40 MLOAD PUSH32 0x8C379A000000000000000000000000000000000000000000000000000000000 DUP2 MSTORE PUSH1 0x4 ADD PUSH3 0x6E SWAP1 PUSH3 0x298 JUMP JUMPDEST PUSH1 0x40 MLOAD DUP1 SWAP2 SUB SWAP1 REVERT JUMPDEST DUP2 PUSH20 0xFFFFFFFFFFFFFFFFFFFFFFFFFFFFFFFFFFFFFFFF AND PUSH1 0x80 DUP2 PUSH20 0xFFFFFFFFFFFFFFFFFFFFFFFFFFFFFFFFFFFFFFFF AND DUP2 MSTORE POP POP CALLER PUSH20 0xFFFFFFFFFFFFFFFFFFFFFFFFFFFFFFFFFFFFFFFF AND PUSH1 0xA0 DUP2 PUSH20 0xFFFFFFFFFFFFFFFFFFFFFFFFFFFFFFFFFFFFFFFF AND DUP2 MSTORE POP POP DUP1 PUSH20 0xFFFFFFFFFFFFFFFFFFFFFFFFFFFFFFFFFFFFFFFF AND PUSH1 0xC0 DUP2 PUSH20 0xFFFFFFFFFFFFFFFFFFFFFFFFFFFFFFFFFFFFFFFF AND DUP2 MSTORE POP POP POP POP PUSH3 0x2BA JUMP JUMPDEST PUSH1 0x0 DUP1 REVERT JUMPDEST PUSH1 0x0 PUSH20 0xFFFFFFFFFFFFFFFFFFFFFFFFFFFFFFFFFFFFFFFF DUP3 AND SWAP1 POP SWAP2 SWAP1 POP JUMP JUMPDEST PUSH1 0x0 PUSH3 0x14D DUP3 PUSH3 0x120 JUMP JUMPDEST SWAP1 POP SWAP2 SWAP1 POP JUMP JUMPDEST PUSH3 0x15F DUP2 PUSH3 0x140 JUMP JUMPDEST DUP2 EQ PUSH3 0x16B JUMPI PUSH1 0x0 DUP1 REVERT JUMPDEST POP JUMP JUMPDEST PUSH1 0x0 DUP2 MLOAD SWAP1 POP PUSH3 0x17F DUP2 PUSH3 0x154 JUMP JUMPDEST SWAP3 SWAP2 POP POP JUMP JUMPDEST PUSH1 0x0 PUSH3 0x192 DUP3 PUSH3 0x120 JUMP JUMPDEST SWAP1 POP SWAP2 SWAP1 POP JUMP JUMPDEST PUSH3 0x1A4 DUP2 PUSH3 0x185 JUMP JUMPDEST DUP2 EQ PUSH3 0x1B0 JUMPI PUSH1 0x0 DUP1 REVERT JUMPDEST POP JUMP JUMPDEST PUSH1 0x0 DUP2 MLOAD SWAP1 POP PUSH3 0x1C4 DUP2 PUSH3 0x199 JUMP JUMPDEST SWAP3 SWAP2 POP POP JUMP JUMPDEST PUSH1 0x0 DUP1 PUSH1 0x40 DUP4 DUP6 SUB SLT ISZERO PUSH3 0x1E4 JUMPI PUSH3 0x1E3 PUSH3 0x11B JUMP JUMPDEST JUMPDEST PUSH1 0x0 PUSH3 0x1F4 DUP6 DUP3 DUP7 ADD PUSH3 0x16E JUMP JUMPDEST SWAP3 POP POP PUSH1 0x20 PUSH3 0x207 DUP6 DUP3 DUP7 ADD PUSH3 0x1B3 JUMP JUMPDEST SWAP2 POP POP SWAP3 POP SWAP3 SWAP1 POP JUMP JUMPDEST PUSH1 0x0 DUP3 DUP3 MSTORE PUSH1 0x20 DUP3 ADD SWAP1 POP SWAP3 SWAP2 POP POP JUMP JUMPDEST PUSH32 0x4465706F73697420616D6F756E74206D75737420626520677265617465722074 PUSH1 0x0 DUP3 ADD MSTORE PUSH32 0x68616E2030000000000000000000000000000000000000000000000000000000 PUSH1 0x20 DUP3 ADD MSTORE POP JUMP JUMPDEST PUSH1 0x0 PUSH3 0x280 PUSH1 0x25 DUP4 PUSH3 0x211 JUMP JUMPDEST SWAP2 POP PUSH3 0x28D DUP3 PUSH3 0x222 JUMP JUMPDEST PUSH1 0x40 DUP3 ADD SWAP1 POP SWAP2 SWAP1 POP JUMP JUMPDEST PUSH1 0x0 PUSH1 0x20 DUP3 ADD SWAP1 POP DUP2 DUP2 SUB PUSH1 0x0 DUP4 ADD MSTORE PUSH3 0x2B3 DUP2 PUSH3 0x271 JUMP JUMPDEST SWAP1 POP SWAP2 SWAP1 POP JUMP JUMPDEST PUSH1 0x80 MLOAD PUSH1 0xA0 MLOAD PUSH1 0xC0 MLOAD PUSH2 0xCC2 PUSH3 0x306 PUSH1 0x0 CODECOPY PUSH1 0x0 DUP2 DUP2 PUSH2 0x2F7 ADD MSTORE PUSH2 0x417 ADD MSTORE PUSH1 0x0 DUP2 DUP2 PUSH2 0x5D3 ADD MSTORE PUSH2 0x6F1 ADD MSTORE PUSH1 0x0 DUP2 DUP2 PUSH2 0x167 ADD MSTORE DUP2 DUP2 PUSH2 0x443 ADD MSTORE PUSH2 0x715 ADD MSTORE PUSH2 0xCC2 PUSH1 0x0 RETURN INVALID PUSH1 0x80 PUSH1 0x40 MSTORE CALLVALUE DUP1 ISZERO PUSH2 0x10 JUMPI PUSH1 0x0 DUP1 REVERT JUMPDEST POP PUSH1 0x4 CALLDATASIZE LT PUSH2 0x88 JUMPI PUSH1 0x0 CALLDATALOAD PUSH1 0xE0 SHR DUP1 PUSH4 0x590E1AE3 GT PUSH2 0x5B JUMPI DUP1 PUSH4 0x590E1AE3 EQ PUSH2 0xF1 JUMPI DUP1 PUSH4 0x779CD083 EQ PUSH2 0xFB JUMPI DUP1 PUSH4 0xC7C4FF46 EQ PUSH2 0x119 JUMPI DUP1 PUSH4 0xFE25E00A EQ PUSH2 0x137 JUMPI PUSH2 0x88 JUMP JUMPDEST DUP1 PUSH4 0x12065FE0 EQ PUSH2 0x8D JUMPI DUP1 PUSH4 0x12424E3F EQ PUSH2 0xAB JUMPI DUP1 PUSH4 0x28F371AA EQ PUSH2 0xB5 JUMPI DUP1 PUSH4 0x38AF3EED EQ PUSH2 0xD3 JUMPI JUMPDEST PUSH1 0x0 DUP1 REVERT JUMPDEST PUSH2 0x95 PUSH2 0x155 JUMP JUMPDEST PUSH1 0x40 MLOAD PUSH2 0xA2 SWAP2 SWAP1 PUSH2 0x7A0 JUMP JUMPDEST PUSH1 0x40 MLOAD DUP1 SWAP2 SUB SWAP1 RETURN JUMPDEST PUSH2 0xB3 PUSH2 0x15D JUMP JUMPDEST STOP JUMPDEST PUSH2 0xBD PUSH2 0x402 JUMP JUMPDEST PUSH1 0x40 MLOAD PUSH2 0xCA SWAP2 SWAP1 PUSH2 0x7D6 JUMP JUMPDEST PUSH1 0x40 MLOAD DUP1 SWAP2 SUB SWAP1 RETURN JUMPDEST PUSH2 0xDB PUSH2 0x415 JUMP JUMPDEST PUSH1 0x40 MLOAD PUSH2 0xE8 SWAP2 SWAP1 PUSH2 0x832 JUMP JUMPDEST PUSH1 0x40 MLOAD DUP1 SWAP2 SUB SWAP1 RETURN JUMPDEST PUSH2 0xF9 PUSH2 0x439 JUMP JUMPDEST STOP JUMPDEST PUSH2 0x103 PUSH2 0x6DE JUMP JUMPDEST PUSH1 0x40 MLOAD PUSH2 0x110 SWAP2 SWAP1 PUSH2 0x7D6 JUMP JUMPDEST PUSH1 0x40 MLOAD DUP1 SWAP2 SUB SWAP1 RETURN JUMPDEST PUSH2 0x121 PUSH2 0x6EF JUMP JUMPDEST PUSH1 0x40 MLOAD PUSH2 0x12E SWAP2 SWAP1 PUSH2 0x86E JUMP JUMPDEST PUSH1 0x40 MLOAD DUP1 SWAP2 SUB SWAP1 RETURN JUMPDEST PUSH2 0x13F PUSH2 0x713 JUMP JUMPDEST PUSH1 0x40 MLOAD PUSH2 0x14C SWAP2 SWAP1 PUSH2 0x86E JUMP JUMPDEST PUSH1 0x40 MLOAD DUP1 SWAP2 SUB SWAP1 RETURN JUMPDEST PUSH1 0x0 SELFBALANCE SWAP1 POP SWAP1 JUMP JUMPDEST PUSH2 0x165 PUSH2 0x737 JUMP JUMPDEST PUSH32 0x0 PUSH20 0xFFFFFFFFFFFFFFFFFFFFFFFFFFFFFFFFFFFFFFFF AND CALLER PUSH20 0xFFFFFFFFFFFFFFFFFFFFFFFFFFFFFFFFFFFFFFFF AND EQ PUSH2 0x1F3 JUMPI PUSH1 0x40 MLOAD PUSH32 0x8C379A000000000000000000000000000000000000000000000000000000000 DUP2 MSTORE PUSH1 0x4 ADD PUSH2 0x1EA SWAP1 PUSH2 0x8E6 JUMP JUMPDEST PUSH1 0x40 MLOAD DUP1 SWAP2 SUB SWAP1 REVERT JUMPDEST PUSH1 0x1 PUSH1 0x0 SWAP1 SLOAD SWAP1 PUSH2 0x100 EXP SWAP1 DIV PUSH1 0xFF AND ISZERO PUSH2 0x243 JUMPI PUSH1 0x40 MLOAD PUSH32 0x8C379A000000000000000000000000000000000000000000000000000000000 DUP2 MSTORE PUSH1 0x4 ADD PUSH2 0x23A SWAP1 PUSH2 0x952 JUMP JUMPDEST PUSH1 0x40 MLOAD DUP1 SWAP2 SUB SWAP1 REVERT JUMPDEST PUSH1 0x1 DUP1 SLOAD SWAP1 PUSH2 0x100 EXP SWAP1 DIV PUSH1 0xFF AND ISZERO PUSH2 0x291 JUMPI PUSH1 0x40 MLOAD PUSH32 0x8C379A000000000000000000000000000000000000000000000000000000000 DUP2 MSTORE PUSH1 0x4 ADD PUSH2 0x288 SWAP1 PUSH2 0x9BE JUMP JUMPDEST PUSH1 0x40 MLOAD DUP1 SWAP2 SUB SWAP1 REVERT JUMPDEST PUSH1 0x0 SELFBALANCE SWAP1 POP PUSH1 0x0 DUP2 GT PUSH2 0x2D9 JUMPI PUSH1 0x40 MLOAD PUSH32 0x8C379A000000000000000000000000000000000000000000000000000000000 DUP2 MSTORE PUSH1 0x4 ADD PUSH2 0x2D0 SWAP1 PUSH2 0xA2A JUMP JUMPDEST PUSH1 0x40 MLOAD DUP1 SWAP2 SUB SWAP1 REVERT JUMPDEST PUSH1 0x1 DUP1 PUSH1 0x0 PUSH2 0x100 EXP DUP2 SLOAD DUP2 PUSH1 0xFF MUL NOT AND SWAP1 DUP4 ISZERO ISZERO MUL OR SWAP1 SSTORE POP PUSH1 0x0 PUSH32 0x0 PUSH20 0xFFFFFFFFFFFFFFFFFFFFFFFFFFFFFFFFFFFFFFFF AND DUP3 PUSH1 0x40 MLOAD PUSH2 0x339 SWAP1 PUSH2 0xA7B JUMP JUMPDEST PUSH1 0x0 PUSH1 0x40 MLOAD DUP1 DUP4 SUB DUP2 DUP6 DUP8 GAS CALL SWAP3 POP POP POP RETURNDATASIZE DUP1 PUSH1 0x0 DUP2 EQ PUSH2 0x376 JUMPI PUSH1 0x40 MLOAD SWAP2 POP PUSH1 0x1F NOT PUSH1 0x3F RETURNDATASIZE ADD AND DUP3 ADD PUSH1 0x40 MSTORE RETURNDATASIZE DUP3 MSTORE RETURNDATASIZE PUSH1 0x0 PUSH1 0x20 DUP5 ADD RETURNDATACOPY PUSH2 0x37B JUMP JUMPDEST PUSH1 0x60 SWAP2 POP JUMPDEST POP POP SWAP1 POP DUP1 PUSH2 0x3BF JUMPI PUSH1 0x40 MLOAD PUSH32 0x8C379A000000000000000000000000000000000000000000000000000000000 DUP2 MSTORE PUSH1 0x4 ADD PUSH2 0x3B6 SWAP1 PUSH2 0xB02 JUMP JUMPDEST PUSH1 0x40 MLOAD DUP1 SWAP2 SUB SWAP1 REVERT JUMPDEST PUSH32 0x3AD93AF63CB7967B23E4FB500B7D7D28B07516325DCF341F88BEBF959D82C1CB DUP3 PUSH1 0x40 MLOAD PUSH2 0x3EE SWAP2 SWAP1 PUSH2 0x7A0 JUMP JUMPDEST PUSH1 0x40 MLOAD DUP1 SWAP2 SUB SWAP1 LOG1 POP POP PUSH2 0x400 PUSH2 0x77D JUMP JUMPDEST JUMP JUMPDEST PUSH1 0x1 PUSH1 0x0 SWAP1 SLOAD SWAP1 PUSH2 0x100 EXP SWAP1 DIV PUSH1 0xFF AND DUP2 JUMP JUMPDEST PUSH32 0x0 DUP2 JUMP JUMPDEST PUSH2 0x441 PUSH2 0x737 JUMP JUMPDEST PUSH32 0x0 PUSH20 0xFFFFFFFFFFFFFFFFFFFFFFFFFFFFFFFFFFFFFFFF AND CALLER PUSH20 0xFFFFFFFFFFFFFFFFFFFFFFFFFFFFFFFFFFFFFFFF AND EQ PUSH2 0x4CF JUMPI PUSH1 0x40 MLOAD PUSH32 0x8C379A000000000000000000000000000000000000000000000000000000000 DUP2 MSTORE PUSH1 0x4 ADD PUSH2 0x4C6 SWAP1 PUSH2 0xB6E JUMP JUMPDEST PUSH1 0x40 MLOAD DUP1 SWAP2 SUB SWAP1 REVERT JUMPDEST PUSH1 0x1 PUSH1 0x0 SWAP1 SLOAD SWAP1 PUSH2 0x100 EXP SWAP1 DIV PUSH1 0xFF AND ISZERO PUSH2 0x51F JUMPI PUSH1 0x40 MLOAD PUSH32 0x8C379A000000000000000000000000000000000000000000000000000000000 DUP2 MSTORE PUSH1 0x4 ADD PUSH2 0x516 SWAP1 PUSH2 0x952 JUMP JUMPDEST PUSH1 0x40 MLOAD DUP1 SWAP2 SUB SWAP1 REVERT JUMPDEST PUSH1 0x1 DUP1 SLOAD SWAP1 PUSH2 0x100 EXP SWAP1 DIV PUSH1 0xFF AND ISZERO PUSH2 0x56D JUMPI PUSH1 0x40 MLOAD PUSH32 0x8C379A000000000000000000000000000000000000000000000000000000000 DUP2 MSTORE PUSH1 0x4 ADD PUSH2 0x564 SWAP1 PUSH2 0x9BE JUMP JUMPDEST PUSH1 0x40 MLOAD DUP1 SWAP2 SUB SWAP1 REVERT JUMPDEST PUSH1 0x0 SELFBALANCE SWAP1 POP PUSH1 0x0 DUP2 GT PUSH2 0x5B5 JUMPI PUSH1 0x40 MLOAD PUSH32 0x8C379A000000000000000000000000000000000000000000000000000000000 DUP2 MSTORE PUSH1 0x4 ADD PUSH2 0x5AC SWAP1 PUSH2 0xBDA JUMP JUMPDEST PUSH1 0x40 MLOAD DUP1 SWAP2 SUB SWAP1 REVERT JUMPDEST PUSH1 0x1 DUP1 PUSH1 0x1 PUSH2 0x100 EXP DUP2 SLOAD DUP2 PUSH1 0xFF MUL NOT AND SWAP1 DUP4 ISZERO ISZERO MUL OR SWAP1 SSTORE POP PUSH1 0x0 PUSH32 0x0 PUSH20 0xFFFFFFFFFFFFFFFFFFFFFFFFFFFFFFFFFFFFFFFF AND DUP3 PUSH1 0x40 MLOAD PUSH2 0x615 SWAP1 PUSH2 0xA7B JUMP JUMPDEST PUSH1 0x0 PUSH1 0x40 MLOAD DUP1 DUP4 SUB DUP2 DUP6 DUP8 GAS CALL SWAP3 POP POP POP RETURNDATASIZE DUP1 PUSH1 0x0 DUP2 EQ PUSH2 0x652 JUMPI PUSH1 0x40 MLOAD SWAP2 POP PUSH1 0x1F NOT PUSH1 0x3F RETURNDATASIZE ADD AND DUP3 ADD PUSH1 0x40 MSTORE RETURNDATASIZE DUP3 MSTORE RETURNDATASIZE PUSH1 0x0 PUSH1 0x20 DUP5 ADD RETURNDATACOPY PUSH2 0x657 JUMP JUMPDEST PUSH1 0x60 SWAP2 POP JUMPDEST POP POP SWAP1 POP DUP1 PUSH2 0x69B JUMPI PUSH1 0x40 MLOAD PUSH32 0x8C379A000000000000000000000000000000000000000000000000000000000 DUP2 MSTORE PUSH1 0x4 ADD PUSH2 0x692 SWAP1 PUSH2 0xC6C JUMP JUMPDEST PUSH1 0x40 MLOAD DUP1 SWAP2 SUB SWAP1 REVERT JUMPDEST PUSH32 0x3D2A04F53164BEDF9A8A46353305D6B2D2261410406DF3B41F99CE6489DC003C DUP3 PUSH1 0x40 MLOAD PUSH2 0x6CA SWAP2 SWAP1 PUSH2 0x7A0 JUMP JUMPDEST PUSH1 0x40 MLOAD DUP1 SWAP2 SUB SWAP1 LOG1 POP POP PUSH2 0x6DC PUSH2 0x77D JUMP JUMPDEST JUMP JUMPDEST PUSH1 0x1 DUP1 SLOAD SWAP1 PUSH2 0x100 EXP SWAP1 DIV PUSH1 0xFF AND DUP2 JUMP JUMPDEST PUSH32 0x0 DUP2 JUMP JUMPDEST PUSH32 0x0 DUP2 JUMP JUMPDEST PUSH1 0x2 PUSH1 0x0 SLOAD SUB PUSH2 0x773 JUMPI PUSH1 0x40 MLOAD PUSH32 0x3EE5AEB500000000000000000000000000000000000000000000000000000000 DUP2 MSTORE PUSH1 0x4 ADD PUSH1 0x40 MLOAD DUP1 SWAP2 SUB SWAP1 REVERT JUMPDEST PUSH1 0x2 PUSH1 0x0 DUP2 SWAP1 SSTORE POP JUMP JUMPDEST PUSH1 0x1 PUSH1 0x0 DUP2 SWAP1 SSTORE POP JUMP JUMPDEST PUSH1 0x0 DUP2 SWAP1 POP SWAP2 SWAP1 POP JUMP JUMPDEST PUSH2 0x79A DUP2 PUSH2 0x787 JUMP JUMPDEST DUP3 MSTORE POP POP JUMP JUMPDEST PUSH1 0x0 PUSH1 0x20 DUP3 ADD SWAP1 POP PUSH2 0x7B5 PUSH1 0x0 DUP4 ADD DUP5 PUSH2 0x791 JUMP JUMPDEST SWAP3 SWAP2 POP POP JUMP JUMPDEST PUSH1 0x0 DUP2 ISZERO ISZERO SWAP1 POP SWAP2 SWAP1 POP JUMP JUMPDEST PUSH2 0x7D0 DUP2 PUSH2 0x7BB JUMP JUMPDEST DUP3 MSTORE POP POP JUMP JUMPDEST PUSH1 0x0 PUSH1 0x20 DUP3 ADD SWAP1 POP PUSH2 0x7EB PUSH1 0x0 DUP4 ADD DUP5 PUSH2 0x7C7 JUMP JUMPDEST SWAP3 SWAP2 POP POP JUMP JUMPDEST PUSH1 0x0 PUSH20 0xFFFFFFFFFFFFFFFFFFFFFFFFFFFFFFFFFFFFFFFF DUP3 AND SWAP1 POP SWAP2 SWAP1 POP JUMP JUMPDEST PUSH1 0x0 PUSH2 0x81C DUP3 PUSH2 0x7F1 JUMP JUMPDEST SWAP1 POP SWAP2 SWAP1 POP JUMP JUMPDEST PUSH2 0x82C DUP2 PUSH2 0x811 JUMP JUMPDEST DUP3 MSTORE POP POP JUMP JUMPDEST PUSH1 0x0 PUSH1 0x20 DUP3 ADD SWAP1 POP PUSH2 0x847 PUSH1 0x0 DUP4 ADD DUP5 PUSH2 0x823 JUMP JUMPDEST SWAP3 SWAP2 POP POP JUMP JUMPDEST PUSH1 0x0 PUSH2 0x858 DUP3 PUSH2 0x7F1 JUMP JUMPDEST SWAP1 POP SWAP2 SWAP1 POP JUMP JUMPDEST PUSH2 0x868 DUP2 PUSH2 0x84D JUMP JUMPDEST DUP3 MSTORE POP POP JUMP JUMPDEST PUSH1 0x0 PUSH1 0x20 DUP3 ADD SWAP1 POP PUSH2 0x883 PUSH1 0x0 DUP4 ADD DUP5 PUSH2 0x85F JUMP JUMPDEST SWAP3 SWAP2 POP POP JUMP JUMPDEST PUSH1 0x0 DUP3 DUP3 MSTORE PUSH1 0x20 DUP3 ADD SWAP1 POP SWAP3 SWAP2 POP POP JUMP JUMPDEST PUSH32 0x4F6E6C7920617262697465722063616E20617070726F76650000000000000000 PUSH1 0x0 DUP3 ADD MSTORE POP JUMP JUMPDEST PUSH1 0x0 PUSH2 0x8D0 PUSH1 0x18 DUP4 PUSH2 0x889 JUMP JUMPDEST SWAP2 POP PUSH2 0x8DB DUP3 PUSH2 0x89A JUMP JUMPDEST PUSH1 0x20 DUP3 ADD SWAP1 POP SWAP2 SWAP1 POP JUMP JUMPDEST PUSH1 0x0 PUSH1 0x20 DUP3 ADD SWAP1 POP DUP2 DUP2 SUB PUSH1 0x0 DUP4 ADD MSTORE PUSH2 0x8FF DUP2 PUSH2 0x8C3 JUMP JUMPDEST SWAP1 POP SWAP2 SWAP1 POP JUMP JUMPDEST PUSH32 0x416C726561647920617070726F76656400000000000000000000000000000000 PUSH1 0x0 DUP3 ADD MSTORE POP JUMP JUMPDEST PUSH1 0x0 PUSH2 0x93C PUSH1 0x10 DUP4 PUSH2 0x889 JUMP JUMPDEST SWAP2 POP PUSH2 0x947 DUP3 PUSH2 0x906 JUMP JUMPDEST PUSH1 0x20 DUP3 ADD SWAP1 POP SWAP2 SWAP1 POP JUMP JUMPDEST PUSH1 0x0 PUSH1 0x20 DUP3 ADD SWAP1 POP DUP2 DUP2 SUB PUSH1 0x0 DUP4 ADD MSTORE PUSH2 0x96B DUP2 PUSH2 0x92F JUMP JUMPDEST SWAP1 POP SWAP2 SWAP1 POP JUMP JUMPDEST PUSH32 0x416C726561647920726566756E64656400000000000000000000000000000000 PUSH1 0x0 DUP3 ADD MSTORE POP JUMP JUMPDEST PUSH1 0x0 PUSH2 0x9A8 PUSH1 0x10 DUP4 PUSH2 0x889 JUMP JUMPDEST SWAP2 POP PUSH2 0x9B3 DUP3 PUSH2 0x972 JUMP JUMPDEST PUSH1 0x20 DUP3 ADD SWAP1 POP SWAP2 SWAP1 POP JUMP JUMPDEST PUSH1 0x0 PUSH1 0x20 DUP3 ADD SWAP1 POP DUP2 DUP2 SUB PUSH1 0x0 DUP4 ADD MSTORE PUSH2 0x9D7 DUP2 PUSH2 0x99B JUMP JUMPDEST SWAP1 POP SWAP2 SWAP1 POP JUMP JUMPDEST PUSH32 0x4E6F2066756E647320746F20617070726F766500000000000000000000000000 PUSH1 0x0 DUP3 ADD MSTORE POP JUMP JUMPDEST PUSH1 0x0 PUSH2 0xA14 PUSH1 0x13 DUP4 PUSH2 0x889 JUMP JUMPDEST SWAP2 POP PUSH2 0xA1F DUP3 PUSH2 0x9DE JUMP JUMPDEST PUSH1 0x20 DUP3 ADD SWAP1 POP SWAP2 SWAP1 POP JUMP JUMPDEST PUSH1 0x0 PUSH1 0x20 DUP3 ADD SWAP1 POP DUP2 DUP2 SUB PUSH1 0x0 DUP4 ADD MSTORE PUSH2 0xA43 DUP2 PUSH2 0xA07 JUMP JUMPDEST SWAP1 POP SWAP2 SWAP1 POP JUMP JUMPDEST PUSH1 0x0 DUP2 SWAP1 POP SWAP3 SWAP2 POP POP JUMP JUMPDEST POP JUMP JUMPDEST PUSH1 0x0 PUSH2 0xA65 PUSH1 0x0 DUP4 PUSH2 0xA4A JUMP JUMPDEST SWAP2 POP PUSH2 0xA70 DUP3 PUSH2 0xA55 JUMP JUMPDEST PUSH1 0x0 DUP3 ADD SWAP1 POP SWAP2 SWAP1 POP JUMP JUMPDEST PUSH1 0x0 PUSH2 0xA86 DUP3 PUSH2 0xA58 JUMP JUMPDEST SWAP2 POP DUP2 SWAP1 POP SWAP2 SWAP1 POP JUMP JUMPDEST PUSH32 0x4661696C656420746F2073656E6420457468657220746F2062656E6566696369 PUSH1 0x0 DUP3 ADD MSTORE PUSH32 0x6172790000000000000000000000000000000000000000000000000000000000 PUSH1 0x20 DUP3 ADD MSTORE POP JUMP JUMPDEST PUSH1 0x0 PUSH2 0xAEC PUSH1 0x23 DUP4 PUSH2 0x889 JUMP JUMPDEST SWAP2 POP PUSH2 0xAF7 DUP3 PUSH2 0xA90 JUMP JUMPDEST PUSH1 0x40 DUP3 ADD SWAP1 POP SWAP2 SWAP1 POP JUMP JUMPDEST PUSH1 0x0 PUSH1 0x20 DUP3 ADD SWAP1 POP DUP2 DUP2 SUB PUSH1 0x0 DUP4 ADD MSTORE PUSH2 0xB1B DUP2 PUSH2 0xADF JUMP JUMPDEST SWAP1 POP SWAP2 SWAP1 POP JUMP JUMPDEST PUSH32 0x4F6E6C7920617262697465722063616E20726566756E64000000000000000000 PUSH1 0x0 DUP3 ADD MSTORE POP JUMP JUMPDEST PUSH1 0x0 PUSH2 0xB58 PUSH1 0x17 DUP4 PUSH2 0x889 JUMP JUMPDEST SWAP2 POP PUSH2 0xB63 DUP3 PUSH2 0xB22 JUMP JUMPDEST PUSH1 0x20 DUP3 ADD SWAP1 POP SWAP2 SWAP1 POP JUMP JUMPDEST PUSH1 0x0 PUSH1 0x20 DUP3 ADD SWAP1 POP DUP2 DUP2 SUB PUSH1 0x0 DUP4 ADD MSTORE PUSH2 0xB87 DUP2 PUSH2 0xB4B JUMP JUMPDEST SWAP1 POP SWAP2 SWAP1 POP JUMP JUMPDEST PUSH32 0x4E6F2066756E647320746F20726566756E640000000000000000000000000000 PUSH1 0x0 DUP3 ADD MSTORE POP JUMP JUMPDEST PUSH1 0x0 PUSH2 0xBC4 PUSH1 0x12 DUP4 PUSH2 0x889 JUMP JUMPDEST SWAP2 POP PUSH2 0xBCF DUP3 PUSH2 0xB8E JUMP JUMPDEST PUSH1 0x20 DUP3 ADD SWAP1 POP SWAP2 SWAP1 POP JUMP JUMPDEST PUSH1 0x0 PUSH1 0x20 DUP3 ADD SWAP1 POP DUP2 DUP2 SUB PUSH1 0x0 DUP4 ADD MSTORE PUSH2 0xBF3 DUP2 PUSH2 0xBB7 JUMP JUMPDEST SWAP1 POP SWAP2 SWAP1 POP JUMP JUMPDEST PUSH32 0x4661696C656420746F2073656E6420457468657220746F206465706F7369746F PUSH1 0x0 DUP3 ADD MSTORE PUSH32 0x7200000000000000000000000000000000000000000000000000000000000000 PUSH1 0x20 DUP3 ADD MSTORE POP JUMP JUMPDEST PUSH1 0x0 PUSH2 0xC56 PUSH1 0x21 DUP4 PUSH2 0x889 JUMP JUMPDEST SWAP2 POP PUSH2 0xC61 DUP3 PUSH2 0xBFA JUMP JUMPDEST PUSH1 0x40 DUP3 ADD SWAP1 POP SWAP2 SWAP1 POP JUMP JUMPDEST PUSH1 0x0 PUSH1 0x20 DUP3 ADD SWAP1 POP DUP2 DUP2 SUB PUSH1 0x0 DUP4 ADD MSTORE PUSH2 0xC85 DUP2 PUSH2 0xC49 JUMP JUMPDEST SWAP1 POP SWAP2 SWAP1 POP JUMP INVALID LOG2 PUSH5 0x6970667358 0x22 SLT KECCAK256 SMOD EXTCODEHASH 0xA5 BALANCE 0x4C 0x2F INVALID 0xCB 0xE8 0x2C 0xAC 0x2F SWAP16 PUSH22 0xF7B7E2180D3E0440F5F14CEE7CA91A81348D64736F6C PUSH4 0x43000818 STOP CALLER LOG2 PUSH5 0x6970667358 0x22 SLT KECCAK256 DUP9 CALLDATACOPY PUSH22 0xA4CB5CBD96EE3F0B78AFB5F208897852F12DAA39964F 0xA8 0xB0 PUSH23 0xEFBDDEB564736F6C634300081800330000000000000000 "},"methodIdentifiers":{"createEscrow(address,address)":"834cc6fc","escrows(uint256)":"012f52ee","getEscrows()":"6afcb6da"}}}}}