{"contracts/TimeLockFactory.sol":{"TimeLockFactory":{"abi":[{"anonymous":false,"inputs":[{"indexed":false,"internalType":"address","name":"timeLockAddress","type":"address"},{"indexed":false,"internalType":"address","name":"beneficiary","type":"address"},{"indexed":false,"internalType":"uint256","name":"amount","type":"uint256"},{"indexed":false,"internalType":"uint256","name":"duration","type":"uint256"}],"name":"TimeLockCreated","type":"event"},{"inputs":[{"internalType":"uint256","name":"_durationInMonths","type":"uint256"}],"name":"createTimeLock","outputs":[],"stateMutability":"payable","type":"function"},{"inputs":[],"name":"getTimeLocks","outputs":[{"internalType":"contract TimeLock[]","name":"","type":"address[]"}],"stateMutability":"view","type":"function"},{"inputs":[{"internalType":"uint256","name":"","type":"uint256"}],"name":"timeLocks","outputs":[{"internalType":"contract TimeLock","name":"","type":"address"}],"stateMutability":"view","type":"function"}],"evm":{"bytecode":{"linkReferences":{},"object":"608060405234801561001057600080fd5b50610c13806100206000396000f3fe608060405260043610620000385760003560e01c806322ec598c146200003d5780638f2900d5146200005d578063fb63fc6e14620000a1575b600080fd5b6200005b6004803603810190620000559190620002d6565b620000d1565b005b3480156200006a57600080fd5b50620000896004803603810190620000839190620002d6565b620001b8565b60405162000098919062000393565b60405180910390f35b348015620000ae57600080fd5b50620000b9620001f8565b604051620000c891906200047e565b60405180910390f35b6000343383604051620000e49062000288565b620000f1929190620004d8565b6040518091039082f09050801580156200010f573d6000803e3d6000fd5b5090506000819080600181540180825580915050600190039060005260206000200160009091909190916101000a81548173ffffffffffffffffffffffffffffffffffffffff021916908373ffffffffffffffffffffffffffffffffffffffff1602179055507f1c8f7b440f482b06261ac96d409fd6b44d229993c0022aa2fe29deca216dc93d81333485604051620001ac949392919062000505565b60405180910390a15050565b60008181548110620001c957600080fd5b906000526020600020016000915054906101000a900473ffffffffffffffffffffffffffffffffffffffff1681565b606060008054806020026020016040519081016040528092919081815260200182805480156200027e57602002820191906000526020600020905b8160009054906101000a900473ffffffffffffffffffffffffffffffffffffffff1673ffffffffffffffffffffffffffffffffffffffff168152602001906001019080831162000233575b5050505050905090565b61068b806200055383390190565b600080fd5b6000819050919050565b620002b0816200029b565b8114620002bc57600080fd5b50565b600081359050620002d081620002a5565b92915050565b600060208284031215620002ef57620002ee62000296565b5b6000620002ff84828501620002bf565b91505092915050565b600073ffffffffffffffffffffffffffffffffffffffff82169050919050565b6000819050919050565b6000620003536200034d620003478462000308565b62000328565b62000308565b9050919050565b6000620003678262000332565b9050919050565b60006200037b826200035a565b9050919050565b6200038d816200036e565b82525050565b6000602082019050620003aa600083018462000382565b92915050565b600081519050919050565b600082825260208201905092915050565b6000819050602082019050919050565b620003e7816200036e565b82525050565b6000620003fb8383620003dc565b60208301905092915050565b6000602082019050919050565b60006200042182620003b0565b6200042d8185620003bb565b93506200043a83620003cc565b8060005b8381101562000471578151620004558882620003ed565b9750620004628362000407565b9250506001810190506200043e565b5085935050505092915050565b600060208201905081810360008301526200049a818462000414565b905092915050565b6000620004af8262000308565b9050919050565b620004c181620004a2565b82525050565b620004d2816200029b565b82525050565b6000604082019050620004ef6000830185620004b6565b620004fe6020830184620004c7565b9392505050565b60006080820190506200051c6000830187620004b6565b6200052b6020830186620004b6565b6200053a6040830185620004c7565b620005496060830184620004c7565b9594505050505056fe608060405260405161068b38038061068b83398181016040528101906100259190610168565b60008111610068576040517f08c379a000000000000000000000000000000000000000000000000000000000815260040161005f90610205565b60405180910390fd5b816000806101000a81548173ffffffffffffffffffffffffffffffffffffffff021916908373ffffffffffffffffffffffffffffffffffffffff16021790555062278d00816100b79190610254565b426100c29190610296565b60018190555050506102ca565b600080fd5b600073ffffffffffffffffffffffffffffffffffffffff82169050919050565b60006100ff826100d4565b9050919050565b61010f816100f4565b811461011a57600080fd5b50565b60008151905061012c81610106565b92915050565b6000819050919050565b61014581610132565b811461015057600080fd5b50565b6000815190506101628161013c565b92915050565b6000806040838503121561017f5761017e6100cf565b5b600061018d8582860161011d565b925050602061019e85828601610153565b9150509250929050565b600082825260208201905092915050565b7f4475726174696f6e206d7573742062652067726561746572207468616e203000600082015250565b60006101ef601f836101a8565b91506101fa826101b9565b602082019050919050565b6000602082019050818103600083015261021e816101e2565b9050919050565b7f4e487b7100000000000000000000000000000000000000000000000000000000600052601160045260246000fd5b600061025f82610132565b915061026a83610132565b925082820261027881610132565b9150828204841483151761028f5761028e610225565b5b5092915050565b60006102a182610132565b91506102ac83610132565b92508282019050808211156102c4576102c3610225565b5b92915050565b6103b2806102d96000396000f3fe608060405234801561001057600080fd5b50600436106100575760003560e01c806312065fe01461005c57806338af3eed1461007a57806386d1a69f14610098578063b91d4001146100a2578063efb98bcf146100c0575b600080fd5b6100646100de565b60405161007191906101ff565b60405180910390f35b6100826100e6565b60405161008f919061025b565b60405180910390f35b6100a061010a565b005b6100aa6101b8565b6040516100b791906101ff565b60405180910390f35b6100c86101be565b6040516100d591906101ff565b60405180910390f35b600047905090565b60008054906101000a900473ffffffffffffffffffffffffffffffffffffffff1681565b60015442101561014f576040517f08c379a0000000000000000000000000000000000000000000000000000000008152600401610146906102f9565b60405180910390fd5b60008054906101000a900473ffffffffffffffffffffffffffffffffffffffff1673ffffffffffffffffffffffffffffffffffffffff166108fc479081150290604051600060405180830381858888f193505050501580156101b5573d6000803e3d6000fd5b50565b60015481565b600060015442106101d257600090506101e3565b426001546101e09190610348565b90505b90565b6000819050919050565b6101f9816101e6565b82525050565b600060208201905061021460008301846101f0565b92915050565b600073ffffffffffffffffffffffffffffffffffffffff82169050919050565b60006102458261021a565b9050919050565b6102558161023a565b82525050565b6000602082019050610270600083018461024c565b92915050565b600082825260208201905092915050565b7f43757272656e742074696d65206973206265666f72652072656c65617365207460008201527f696d650000000000000000000000000000000000000000000000000000000000602082015250565b60006102e3602383610276565b91506102ee82610287565b604082019050919050565b60006020820190508181036000830152610312816102d6565b9050919050565b7f4e487b7100000000000000000000000000000000000000000000000000000000600052601160045260246000fd5b6000610353826101e6565b915061035e836101e6565b925082820390508181111561037657610375610319565b5b9291505056fea264697066735822122015f61fac3a8126ec8823988f92c5f5f4d8930a0a61e7482e6efe8e152d1509a464736f6c63430008180033a264697066735822122081a864794b6755f64bea7ef14070960c0398fe968fd79255ae96b36aa826272164736f6c63430008180033","opcodes":"PUSH1 0x80 PUSH1 0x40 MSTORE CALLVALUE DUP1 ISZERO PUSH2 0x10 JUMPI PUSH1 0x0 DUP1 REVERT JUMPDEST POP PUSH2 0xC13 DUP1 PUSH2 0x20 PUSH1 0x0 CODECOPY PUSH1 0x0 RETURN INVALID PUSH1 0x80 PUSH1 0x40 MSTORE PUSH1 0x4 CALLDATASIZE LT PUSH3 0x38 JUMPI PUSH1 0x0 CALLDATALOAD PUSH1 0xE0 SHR DUP1 PUSH4 0x22EC598C EQ PUSH3 0x3D JUMPI DUP1 PUSH4 0x8F2900D5 EQ PUSH3 0x5D JUMPI DUP1 PUSH4 0xFB63FC6E EQ PUSH3 0xA1 JUMPI JUMPDEST PUSH1 0x0 DUP1 REVERT JUMPDEST PUSH3 0x5B PUSH1 0x4 DUP1 CALLDATASIZE SUB DUP2 ADD SWAP1 PUSH3 0x55 SWAP2 SWAP1 PUSH3 0x2D6 JUMP JUMPDEST PUSH3 0xD1 JUMP JUMPDEST STOP JUMPDEST CALLVALUE DUP1 ISZERO PUSH3 0x6A JUMPI PUSH1 0x0 DUP1 REVERT JUMPDEST POP PUSH3 0x89 PUSH1 0x4 DUP1 CALLDATASIZE SUB DUP2 ADD SWAP1 PUSH3 0x83 SWAP2 SWAP1 PUSH3 0x2D6 JUMP JUMPDEST PUSH3 0x1B8 JUMP JUMPDEST PUSH1 0x40 MLOAD PUSH3 0x98 SWAP2 SWAP1 PUSH3 0x393 JUMP JUMPDEST PUSH1 0x40 MLOAD DUP1 SWAP2 SUB SWAP1 RETURN JUMPDEST CALLVALUE DUP1 ISZERO PUSH3 0xAE JUMPI PUSH1 0x0 DUP1 REVERT JUMPDEST POP PUSH3 0xB9 PUSH3 0x1F8 JUMP JUMPDEST PUSH1 0x40 MLOAD PUSH3 0xC8 SWAP2 SWAP1 PUSH3 0x47E JUMP JUMPDEST PUSH1 0x40 MLOAD DUP1 SWAP2 SUB SWAP1 RETURN JUMPDEST PUSH1 0x0 CALLVALUE CALLER DUP4 PUSH1 0x40 MLOAD PUSH3 0xE4 SWAP1 PUSH3 0x288 JUMP JUMPDEST PUSH3 0xF1 SWAP3 SWAP2 SWAP1 PUSH3 0x4D8 JUMP JUMPDEST PUSH1 0x40 MLOAD DUP1 SWAP2 SUB SWAP1 DUP3 CREATE SWAP1 POP DUP1 ISZERO DUP1 ISZERO PUSH3 0x10F JUMPI RETURNDATASIZE PUSH1 0x0 DUP1 RETURNDATACOPY RETURNDATASIZE PUSH1 0x0 REVERT JUMPDEST POP SWAP1 POP PUSH1 0x0 DUP2 SWAP1 DUP1 PUSH1 0x1 DUP2 SLOAD ADD DUP1 DUP3 SSTORE DUP1 SWAP2 POP POP PUSH1 0x1 SWAP1 SUB SWAP1 PUSH1 0x0 MSTORE PUSH1 0x20 PUSH1 0x0 KECCAK256 ADD PUSH1 0x0 SWAP1 SWAP2 SWAP1 SWAP2 SWAP1 SWAP2 PUSH2 0x100 EXP DUP2 SLOAD DUP2 PUSH20 0xFFFFFFFFFFFFFFFFFFFFFFFFFFFFFFFFFFFFFFFF MUL NOT AND SWAP1 DUP4 PUSH20 0xFFFFFFFFFFFFFFFFFFFFFFFFFFFFFFFFFFFFFFFF AND MUL OR SWAP1 SSTORE POP PUSH32 0x1C8F7B440F482B06261AC96D409FD6B44D229993C0022AA2FE29DECA216DC93D DUP2 CALLER CALLVALUE DUP6 PUSH1 0x40 MLOAD PUSH3 0x1AC SWAP5 SWAP4 SWAP3 SWAP2 SWAP1 PUSH3 0x505 JUMP JUMPDEST PUSH1 0x40 MLOAD DUP1 SWAP2 SUB SWAP1 LOG1 POP POP JUMP JUMPDEST PUSH1 0x0 DUP2 DUP2 SLOAD DUP2 LT PUSH3 0x1C9 JUMPI PUSH1 0x0 DUP1 REVERT JUMPDEST SWAP1 PUSH1 0x0 MSTORE PUSH1 0x20 PUSH1 0x0 KECCAK256 ADD PUSH1 0x0 SWAP2 POP SLOAD SWAP1 PUSH2 0x100 EXP SWAP1 DIV PUSH20 0xFFFFFFFFFFFFFFFFFFFFFFFFFFFFFFFFFFFFFFFF AND DUP2 JUMP JUMPDEST PUSH1 0x60 PUSH1 0x0 DUP1 SLOAD DUP1 PUSH1 0x20 MUL PUSH1 0x20 ADD PUSH1 0x40 MLOAD SWAP1 DUP2 ADD PUSH1 0x40 MSTORE DUP1 SWAP3 SWAP2 SWAP1 DUP2 DUP2 MSTORE PUSH1 0x20 ADD DUP3 DUP1 SLOAD DUP1 ISZERO PUSH3 0x27E JUMPI PUSH1 0x20 MUL DUP3 ADD SWAP2 SWAP1 PUSH1 0x0 MSTORE PUSH1 0x20 PUSH1 0x0 KECCAK256 SWAP1 JUMPDEST DUP2 PUSH1 0x0 SWAP1 SLOAD SWAP1 PUSH2 0x100 EXP SWAP1 DIV PUSH20 0xFFFFFFFFFFFFFFFFFFFFFFFFFFFFFFFFFFFFFFFF AND PUSH20 0xFFFFFFFFFFFFFFFFFFFFFFFFFFFFFFFFFFFFFFFF AND DUP2 MSTORE PUSH1 0x20 ADD SWAP1 PUSH1 0x1 ADD SWAP1 DUP1 DUP4 GT PUSH3 0x233 JUMPI JUMPDEST POP POP POP POP POP SWAP1 POP SWAP1 JUMP JUMPDEST PUSH2 0x68B DUP1 PUSH3 0x553 DUP4 CODECOPY ADD SWAP1 JUMP JUMPDEST PUSH1 0x0 DUP1 REVERT JUMPDEST PUSH1 0x0 DUP2 SWAP1 POP SWAP2 SWAP1 POP JUMP JUMPDEST PUSH3 0x2B0 DUP2 PUSH3 0x29B JUMP JUMPDEST DUP2 EQ PUSH3 0x2BC JUMPI PUSH1 0x0 DUP1 REVERT JUMPDEST POP JUMP JUMPDEST PUSH1 0x0 DUP2 CALLDATALOAD SWAP1 POP PUSH3 0x2D0 DUP2 PUSH3 0x2A5 JUMP JUMPDEST SWAP3 SWAP2 POP POP JUMP JUMPDEST PUSH1 0x0 PUSH1 0x20 DUP3 DUP5 SUB SLT ISZERO PUSH3 0x2EF JUMPI PUSH3 0x2EE PUSH3 0x296 JUMP JUMPDEST JUMPDEST PUSH1 0x0 PUSH3 0x2FF DUP5 DUP3 DUP6 ADD PUSH3 0x2BF JUMP JUMPDEST SWAP2 POP POP SWAP3 SWAP2 POP POP JUMP JUMPDEST PUSH1 0x0 PUSH20 0xFFFFFFFFFFFFFFFFFFFFFFFFFFFFFFFFFFFFFFFF DUP3 AND SWAP1 POP SWAP2 SWAP1 POP JUMP JUMPDEST PUSH1 0x0 DUP2 SWAP1 POP SWAP2 SWAP1 POP JUMP JUMPDEST PUSH1 0x0 PUSH3 0x353 PUSH3 0x34D PUSH3 0x347 DUP5 PUSH3 0x308 JUMP JUMPDEST PUSH3 0x328 JUMP JUMPDEST PUSH3 0x308 JUMP JUMPDEST SWAP1 POP SWAP2 SWAP1 POP JUMP JUMPDEST PUSH1 0x0 PUSH3 0x367 DUP3 PUSH3 0x332 JUMP JUMPDEST SWAP1 POP SWAP2 SWAP1 POP JUMP JUMPDEST PUSH1 0x0 PUSH3 0x37B DUP3 PUSH3 0x35A JUMP JUMPDEST SWAP1 POP SWAP2 SWAP1 POP JUMP JUMPDEST PUSH3 0x38D DUP2 PUSH3 0x36E JUMP JUMPDEST DUP3 MSTORE POP POP JUMP JUMPDEST PUSH1 0x0 PUSH1 0x20 DUP3 ADD SWAP1 POP PUSH3 0x3AA PUSH1 0x0 DUP4 ADD DUP5 PUSH3 0x382 JUMP JUMPDEST SWAP3 SWAP2 POP POP JUMP JUMPDEST PUSH1 0x0 DUP2 MLOAD SWAP1 POP SWAP2 SWAP1 POP JUMP JUMPDEST PUSH1 0x0 DUP3 DUP3 MSTORE PUSH1 0x20 DUP3 ADD SWAP1 POP SWAP3 SWAP2 POP POP JUMP JUMPDEST PUSH1 0x0 DUP2 SWAP1 POP PUSH1 0x20 DUP3 ADD SWAP1 POP SWAP2 SWAP1 POP JUMP JUMPDEST PUSH3 0x3E7 DUP2 PUSH3 0x36E JUMP JUMPDEST DUP3 MSTORE POP POP JUMP JUMPDEST PUSH1 0x0 PUSH3 0x3FB DUP4 DUP4 PUSH3 0x3DC JUMP JUMPDEST PUSH1 0x20 DUP4 ADD SWAP1 POP SWAP3 SWAP2 POP POP JUMP JUMPDEST PUSH1 0x0 PUSH1 0x20 DUP3 ADD SWAP1 POP SWAP2 SWAP1 POP JUMP JUMPDEST PUSH1 0x0 PUSH3 0x421 DUP3 PUSH3 0x3B0 JUMP JUMPDEST PUSH3 0x42D DUP2 DUP6 PUSH3 0x3BB JUMP JUMPDEST SWAP4 POP PUSH3 0x43A DUP4 PUSH3 0x3CC JUMP JUMPDEST DUP1 PUSH1 0x0 JUMPDEST DUP4 DUP2 LT ISZERO PUSH3 0x471 JUMPI DUP2 MLOAD PUSH3 0x455 DUP9 DUP3 PUSH3 0x3ED JUMP JUMPDEST SWAP8 POP PUSH3 0x462 DUP4 PUSH3 0x407 JUMP JUMPDEST SWAP3 POP POP PUSH1 0x1 DUP2 ADD SWAP1 POP PUSH3 0x43E JUMP JUMPDEST POP DUP6 SWAP4 POP POP POP POP SWAP3 SWAP2 POP POP JUMP JUMPDEST PUSH1 0x0 PUSH1 0x20 DUP3 ADD SWAP1 POP DUP2 DUP2 SUB PUSH1 0x0 DUP4 ADD MSTORE PUSH3 0x49A DUP2 DUP5 PUSH3 0x414 JUMP JUMPDEST SWAP1 POP SWAP3 SWAP2 POP POP JUMP JUMPDEST PUSH1 0x0 PUSH3 0x4AF DUP3 PUSH3 0x308 JUMP JUMPDEST SWAP1 POP SWAP2 SWAP1 POP JUMP JUMPDEST PUSH3 0x4C1 DUP2 PUSH3 0x4A2 JUMP JUMPDEST DUP3 MSTORE POP POP JUMP JUMPDEST PUSH3 0x4D2 DUP2 PUSH3 0x29B JUMP JUMPDEST DUP3 MSTORE POP POP JUMP JUMPDEST PUSH1 0x0 PUSH1 0x40 DUP3 ADD SWAP1 POP PUSH3 0x4EF PUSH1 0x0 DUP4 ADD DUP6 PUSH3 0x4B6 JUMP JUMPDEST PUSH3 0x4FE PUSH1 0x20 DUP4 ADD DUP5 PUSH3 0x4C7 JUMP JUMPDEST SWAP4 SWAP3 POP POP POP JUMP JUMPDEST PUSH1 0x0 PUSH1 0x80 DUP3 ADD SWAP1 POP PUSH3 0x51C PUSH1 0x0 DUP4 ADD DUP8 PUSH3 0x4B6 JUMP JUMPDEST PUSH3 0x52B PUSH1 0x20 DUP4 ADD DUP7 PUSH3 0x4B6 JUMP JUMPDEST PUSH3 0x53A PUSH1 0x40 DUP4 ADD DUP6 PUSH3 0x4C7 JUMP JUMPDEST PUSH3 0x549 PUSH1 0x60 DUP4 ADD DUP5 PUSH3 0x4C7 JUMP JUMPDEST SWAP6 SWAP5 POP POP POP POP POP JUMP INVALID PUSH1 0x80 PUSH1 0x40 MSTORE PUSH1 0x40 MLOAD PUSH2 0x68B CODESIZE SUB DUP1 PUSH2 0x68B DUP4 CODECOPY DUP2 DUP2 ADD PUSH1 0x40 MSTORE DUP2 ADD SWAP1 PUSH2 0x25 SWAP2 SWAP1 PUSH2 0x168 JUMP JUMPDEST PUSH1 0x0 DUP2 GT PUSH2 0x68 JUMPI PUSH1 0x40 MLOAD PUSH32 0x8C379A000000000000000000000000000000000000000000000000000000000 DUP2 MSTORE PUSH1 0x4 ADD PUSH2 0x5F SWAP1 PUSH2 0x205 JUMP JUMPDEST PUSH1 0x40 MLOAD DUP1 SWAP2 SUB SWAP1 REVERT JUMPDEST DUP2 PUSH1 0x0 DUP1 PUSH2 0x100 EXP DUP2 SLOAD DUP2 PUSH20 0xFFFFFFFFFFFFFFFFFFFFFFFFFFFFFFFFFFFFFFFF MUL NOT AND SWAP1 DUP4 PUSH20 0xFFFFFFFFFFFFFFFFFFFFFFFFFFFFFFFFFFFFFFFF AND MUL OR SWAP1 SSTORE POP PUSH3 0x278D00 DUP2 PUSH2 0xB7 SWAP2 SWAP1 PUSH2 0x254 JUMP JUMPDEST TIMESTAMP PUSH2 0xC2 SWAP2 SWAP1 PUSH2 0x296 JUMP JUMPDEST PUSH1 0x1 DUP2 SWAP1 SSTORE POP POP POP PUSH2 0x2CA JUMP JUMPDEST PUSH1 0x0 DUP1 REVERT JUMPDEST PUSH1 0x0 PUSH20 0xFFFFFFFFFFFFFFFFFFFFFFFFFFFFFFFFFFFFFFFF DUP3 AND SWAP1 POP SWAP2 SWAP1 POP JUMP JUMPDEST PUSH1 0x0 PUSH2 0xFF DUP3 PUSH2 0xD4 JUMP JUMPDEST SWAP1 POP SWAP2 SWAP1 POP JUMP JUMPDEST PUSH2 0x10F DUP2 PUSH2 0xF4 JUMP JUMPDEST DUP2 EQ PUSH2 0x11A JUMPI PUSH1 0x0 DUP1 REVERT JUMPDEST POP JUMP JUMPDEST PUSH1 0x0 DUP2 MLOAD SWAP1 POP PUSH2 0x12C DUP2 PUSH2 0x106 JUMP JUMPDEST SWAP3 SWAP2 POP POP JUMP JUMPDEST PUSH1 0x0 DUP2 SWAP1 POP SWAP2 SWAP1 POP JUMP JUMPDEST PUSH2 0x145 DUP2 PUSH2 0x132 JUMP JUMPDEST DUP2 EQ PUSH2 0x150 JUMPI PUSH1 0x0 DUP1 REVERT JUMPDEST POP JUMP JUMPDEST PUSH1 0x0 DUP2 MLOAD SWAP1 POP PUSH2 0x162 DUP2 PUSH2 0x13C JUMP JUMPDEST SWAP3 SWAP2 POP POP JUMP JUMPDEST PUSH1 0x0 DUP1 PUSH1 0x40 DUP4 DUP6 SUB SLT ISZERO PUSH2 0x17F JUMPI PUSH2 0x17E PUSH2 0xCF JUMP JUMPDEST JUMPDEST PUSH1 0x0 PUSH2 0x18D DUP6 DUP3 DUP7 ADD PUSH2 0x11D JUMP JUMPDEST SWAP3 POP POP PUSH1 0x20 PUSH2 0x19E DUP6 DUP3 DUP7 ADD PUSH2 0x153 JUMP JUMPDEST SWAP2 POP POP SWAP3 POP SWAP3 SWAP1 POP JUMP JUMPDEST PUSH1 0x0 DUP3 DUP3 MSTORE PUSH1 0x20 DUP3 ADD SWAP1 POP SWAP3 SWAP2 POP POP JUMP JUMPDEST PUSH32 0x4475726174696F6E206D7573742062652067726561746572207468616E203000 PUSH1 0x0 DUP3 ADD MSTORE POP JUMP JUMPDEST PUSH1 0x0 PUSH2 0x1EF PUSH1 0x1F DUP4 PUSH2 0x1A8 JUMP JUMPDEST SWAP2 POP PUSH2 0x1FA DUP3 PUSH2 0x1B9 JUMP JUMPDEST PUSH1 0x20 DUP3 ADD SWAP1 POP SWAP2 SWAP1 POP JUMP JUMPDEST PUSH1 0x0 PUSH1 0x20 DUP3 ADD SWAP1 POP DUP2 DUP2 SUB PUSH1 0x0 DUP4 ADD MSTORE PUSH2 0x21E DUP2 PUSH2 0x1E2 JUMP JUMPDEST SWAP1 POP SWAP2 SWAP1 POP JUMP JUMPDEST PUSH32 0x4E487B7100000000000000000000000000000000000000000000000000000000 PUSH1 0x0 MSTORE PUSH1 0x11 PUSH1 0x4 MSTORE PUSH1 0x24 PUSH1 0x0 REVERT JUMPDEST PUSH1 0x0 PUSH2 0x25F DUP3 PUSH2 0x132 JUMP JUMPDEST SWAP2 POP PUSH2 0x26A DUP4 PUSH2 0x132 JUMP JUMPDEST SWAP3 POP DUP3 DUP3 MUL PUSH2 0x278 DUP2 PUSH2 0x132 JUMP JUMPDEST SWAP2 POP DUP3 DUP3 DIV DUP5 EQ DUP4 ISZERO OR PUSH2 0x28F JUMPI PUSH2 0x28E PUSH2 0x225 JUMP JUMPDEST JUMPDEST POP SWAP3 SWAP2 POP POP JUMP JUMPDEST PUSH1 0x0 PUSH2 0x2A1 DUP3 PUSH2 0x132 JUMP JUMPDEST SWAP2 POP PUSH2 0x2AC DUP4 PUSH2 0x132 JUMP JUMPDEST SWAP3 POP DUP3 DUP3 ADD SWAP1 POP DUP1 DUP3 GT ISZERO PUSH2 0x2C4 JUMPI PUSH2 0x2C3 PUSH2 0x225 JUMP JUMPDEST JUMPDEST SWAP3 SWAP2 POP POP JUMP JUMPDEST PUSH2 0x3B2 DUP1 PUSH2 0x2D9 PUSH1 0x0 CODECOPY PUSH1 0x0 RETURN INVALID PUSH1 0x80 PUSH1 0x40 MSTORE CALLVALUE DUP1 ISZERO PUSH2 0x10 JUMPI PUSH1 0x0 DUP1 REVERT JUMPDEST POP PUSH1 0x4 CALLDATASIZE LT PUSH2 0x57 JUMPI PUSH1 0x0 CALLDATALOAD PUSH1 0xE0 SHR DUP1 PUSH4 0x12065FE0 EQ PUSH2 0x5C JUMPI DUP1 PUSH4 0x38AF3EED EQ PUSH2 0x7A JUMPI DUP1 PUSH4 0x86D1A69F EQ PUSH2 0x98 JUMPI DUP1 PUSH4 0xB91D4001 EQ PUSH2 0xA2 JUMPI DUP1 PUSH4 0xEFB98BCF EQ PUSH2 0xC0 JUMPI JUMPDEST PUSH1 0x0 DUP1 REVERT JUMPDEST PUSH2 0x64 PUSH2 0xDE JUMP JUMPDEST PUSH1 0x40 MLOAD PUSH2 0x71 SWAP2 SWAP1 PUSH2 0x1FF JUMP JUMPDEST PUSH1 0x40 MLOAD DUP1 SWAP2 SUB SWAP1 RETURN JUMPDEST PUSH2 0x82 PUSH2 0xE6 JUMP JUMPDEST PUSH1 0x40 MLOAD PUSH2 0x8F SWAP2 SWAP1 PUSH2 0x25B JUMP JUMPDEST PUSH1 0x40 MLOAD DUP1 SWAP2 SUB SWAP1 RETURN JUMPDEST PUSH2 0xA0 PUSH2 0x10A JUMP JUMPDEST STOP JUMPDEST PUSH2 0xAA PUSH2 0x1B8 JUMP JUMPDEST PUSH1 0x40 MLOAD PUSH2 0xB7 SWAP2 SWAP1 PUSH2 0x1FF JUMP JUMPDEST PUSH1 0x40 MLOAD DUP1 SWAP2 SUB SWAP1 RETURN JUMPDEST PUSH2 0xC8 PUSH2 0x1BE JUMP JUMPDEST PUSH1 0x40 MLOAD PUSH2 0xD5 SWAP2 SWAP1 PUSH2 0x1FF JUMP JUMPDEST PUSH1 0x40 MLOAD DUP1 SWAP2 SUB SWAP1 RETURN JUMPDEST PUSH1 0x0 SELFBALANCE SWAP1 POP SWAP1 JUMP JUMPDEST PUSH1 0x0 DUP1 SLOAD SWAP1 PUSH2 0x100 EXP SWAP1 DIV PUSH20 0xFFFFFFFFFFFFFFFFFFFFFFFFFFFFFFFFFFFFFFFF AND DUP2 JUMP JUMPDEST PUSH1 0x1 SLOAD TIMESTAMP LT ISZERO PUSH2 0x14F JUMPI PUSH1 0x40 MLOAD PUSH32 0x8C379A000000000000000000000000000000000000000000000000000000000 DUP2 MSTORE PUSH1 0x4 ADD PUSH2 0x146 SWAP1 PUSH2 0x2F9 JUMP JUMPDEST PUSH1 0x40 MLOAD DUP1 SWAP2 SUB SWAP1 REVERT JUMPDEST PUSH1 0x0 DUP1 SLOAD SWAP1 PUSH2 0x100 EXP SWAP1 DIV PUSH20 0xFFFFFFFFFFFFFFFFFFFFFFFFFFFFFFFFFFFFFFFF AND PUSH20 0xFFFFFFFFFFFFFFFFFFFFFFFFFFFFFFFFFFFFFFFF AND PUSH2 0x8FC SELFBALANCE SWAP1 DUP2 ISZERO MUL SWAP1 PUSH1 0x40 MLOAD PUSH1 0x0 PUSH1 0x40 MLOAD DUP1 DUP4 SUB DUP2 DUP6 DUP9 DUP9 CALL SWAP4 POP POP POP POP ISZERO DUP1 ISZERO PUSH2 0x1B5 JUMPI RETURNDATASIZE PUSH1 0x0 DUP1 RETURNDATACOPY RETURNDATASIZE PUSH1 0x0 REVERT JUMPDEST POP JUMP JUMPDEST PUSH1 0x1 SLOAD DUP2 JUMP JUMPDEST PUSH1 0x0 PUSH1 0x1 SLOAD TIMESTAMP LT PUSH2 0x1D2 JUMPI PUSH1 0x0 SWAP1 POP PUSH2 0x1E3 JUMP JUMPDEST TIMESTAMP PUSH1 0x1 SLOAD PUSH2 0x1E0 SWAP2 SWAP1 PUSH2 0x348 JUMP JUMPDEST SWAP1 POP JUMPDEST SWAP1 JUMP JUMPDEST PUSH1 0x0 DUP2 SWAP1 POP SWAP2 SWAP1 POP JUMP JUMPDEST PUSH2 0x1F9 DUP2 PUSH2 0x1E6 JUMP JUMPDEST DUP3 MSTORE POP POP JUMP JUMPDEST PUSH1 0x0 PUSH1 0x20 DUP3 ADD SWAP1 POP PUSH2 0x214 PUSH1 0x0 DUP4 ADD DUP5 PUSH2 0x1F0 JUMP JUMPDEST SWAP3 SWAP2 POP POP JUMP JUMPDEST PUSH1 0x0 PUSH20 0xFFFFFFFFFFFFFFFFFFFFFFFFFFFFFFFFFFFFFFFF DUP3 AND SWAP1 POP SWAP2 SWAP1 POP JUMP JUMPDEST PUSH1 0x0 PUSH2 0x245 DUP3 PUSH2 0x21A JUMP JUMPDEST SWAP1 POP SWAP2 SWAP1 POP JUMP JUMPDEST PUSH2 0x255 DUP2 PUSH2 0x23A JUMP JUMPDEST DUP3 MSTORE POP POP JUMP JUMPDEST PUSH1 0x0 PUSH1 0x20 DUP3 ADD SWAP1 POP PUSH2 0x270 PUSH1 0x0 DUP4 ADD DUP5 PUSH2 0x24C JUMP JUMPDEST SWAP3 SWAP2 POP POP JUMP JUMPDEST PUSH1 0x0 DUP3 DUP3 MSTORE PUSH1 0x20 DUP3 ADD SWAP1 POP SWAP3 SWAP2 POP POP JUMP JUMPDEST PUSH32 0x43757272656E742074696D65206973206265666F72652072656C656173652074 PUSH1 0x0 DUP3 ADD MSTORE PUSH32 0x696D650000000000000000000000000000000000000000000000000000000000 PUSH1 0x20 DUP3 ADD MSTORE POP JUMP JUMPDEST PUSH1 0x0 PUSH2 0x2E3 PUSH1 0x23 DUP4 PUSH2 0x276 JUMP JUMPDEST SWAP2 POP PUSH2 0x2EE DUP3 PUSH2 0x287 JUMP JUMPDEST PUSH1 0x40 DUP3 ADD SWAP1 POP SWAP2 SWAP1 POP JUMP JUMPDEST PUSH1 0x0 PUSH1 0x20 DUP3 ADD SWAP1 POP DUP2 DUP2 SUB PUSH1 0x0 DUP4 ADD MSTORE PUSH2 0x312 DUP2 PUSH2 0x2D6 JUMP JUMPDEST SWAP1 POP SWAP2 SWAP1 POP JUMP JUMPDEST PUSH32 0x4E487B7100000000000000000000000000000000000000000000000000000000 PUSH1 0x0 MSTORE PUSH1 0x11 PUSH1 0x4 MSTORE PUSH1 0x24 PUSH1 0x0 REVERT JUMPDEST PUSH1 0x0 PUSH2 0x353 DUP3 PUSH2 0x1E6 JUMP JUMPDEST SWAP2 POP PUSH2 0x35E DUP4 PUSH2 0x1E6 JUMP JUMPDEST SWAP3 POP DUP3 DUP3 SUB SWAP1 POP DUP2 DUP2 GT ISZERO PUSH2 0x376 JUMPI PUSH2 0x375 PUSH2 0x319 JUMP JUMPDEST JUMPDEST SWAP3 SWAP2 POP POP JUMP INVALID LOG2 PUSH5 0x6970667358 0x22 SLT KECCAK256 ISZERO 0xF6 0x1F 0xAC GASPRICE DUP2 0x26 0xEC DUP9 0x23 SWAP9 DUP16 SWAP3 0xC5 CREATE2 DELEGATECALL 0xD8 SWAP4 EXP EXP PUSH2 0xE748 0x2E PUSH15 0xFE8E152D1509A464736F6C63430008 XOR STOP CALLER LOG2 PUSH5 0x6970667358 0x22 SLT KECCAK256 DUP2 0xA8 PUSH5 0x794B6755F6 0x4B 0xEA PUSH31 0xF14070960C0398FE968FD79255AE96B36AA826272164736F6C634300081800 CALLER "},"methodIdentifiers":{"createTimeLock(uint256)":"22ec598c","getTimeLocks()":"fb63fc6e","timeLocks(uint256)":"8f2900d5"}}}}}