{
  "_format": "hh-sol-artifact-1",
  "contractName": "ChainGuardEscrow",
  "sourceName": "contracts/ChainGuardEscrow.sol",
  "abi": [
    {
      "inputs": [
        {
          "internalType": "address",
          "name": "_arbiter",
          "type": "address"
        },
        {
          "internalType": "address payable",
          "name": "_depositor",
          "type": "address"
        },
        {
          "internalType": "address payable",
          "name": "_beneficiary",
          "type": "address"
        },
        {
          "internalType": "uint256",
          "name": "_durationInDays",
          "type": "uint256"
        }
      ],
      "stateMutability": "payable",
      "type": "constructor"
    },
    {
      "inputs": [],
      "name": "approve",
      "outputs": [],
      "stateMutability": "nonpayable",
      "type": "function"
    },
    {
      "inputs": [],
      "name": "arbiter",
      "outputs": [
        {
          "internalType": "address",
          "name": "",
          "type": "address"
        }
      ],
      "stateMutability": "view",
      "type": "function"
    },
    {
      "inputs": [],
      "name": "beneficiary",
      "outputs": [
        {
          "internalType": "address payable",
          "name": "",
          "type": "address"
        }
      ],
      "stateMutability": "view",
      "type": "function"
    },
    {
      "inputs": [],
      "name": "creationTime",
      "outputs": [
        {
          "internalType": "uint256",
          "name": "",
          "type": "uint256"
        }
      ],
      "stateMutability": "view",
      "type": "function"
    },
    {
      "inputs": [],
      "name": "depositor",
      "outputs": [
        {
          "internalType": "address payable",
          "name": "",
          "type": "address"
        }
      ],
      "stateMutability": "view",
      "type": "function"
    },
    {
      "inputs": [],
      "name": "duration",
      "outputs": [
        {
          "internalType": "uint256",
          "name": "",
          "type": "uint256"
        }
      ],
      "stateMutability": "view",
      "type": "function"
    },
    {
      "inputs": [],
      "name": "getRemainingTime",
      "outputs": [
        {
          "internalType": "uint256",
          "name": "",
          "type": "uint256"
        }
      ],
      "stateMutability": "view",
      "type": "function"
    },
    {
      "inputs": [],
      "name": "isApproved",
      "outputs": [
        {
          "internalType": "bool",
          "name": "",
          "type": "bool"
        }
      ],
      "stateMutability": "view",
      "type": "function"
    },
    {
      "inputs": [],
      "name": "refund",
      "outputs": [],
      "stateMutability": "nonpayable",
      "type": "function"
    }
  ],
  "bytecode": "0x608060405260405162000cc638038062000cc68339818101604052810190620000299190620001fd565b836000806101000a81548173ffffffffffffffffffffffffffffffffffffffff021916908373ffffffffffffffffffffffffffffffffffffffff16021790555082600160006101000a81548173ffffffffffffffffffffffffffffffffffffffff021916908373ffffffffffffffffffffffffffffffffffffffff16021790555081600260006101000a81548173ffffffffffffffffffffffffffffffffffffffff021916908373ffffffffffffffffffffffffffffffffffffffff1602179055504260038190555062015180816200010391906200029e565b60048190555050505050620002e9565b600080fd5b600073ffffffffffffffffffffffffffffffffffffffff82169050919050565b6000620001458262000118565b9050919050565b620001578162000138565b81146200016357600080fd5b50565b60008151905062000177816200014c565b92915050565b60006200018a8262000118565b9050919050565b6200019c816200017d565b8114620001a857600080fd5b50565b600081519050620001bc8162000191565b92915050565b6000819050919050565b620001d781620001c2565b8114620001e357600080fd5b50565b600081519050620001f781620001cc565b92915050565b600080600080608085870312156200021a576200021962000113565b5b60006200022a8782880162000166565b94505060206200023d87828801620001ab565b93505060406200025087828801620001ab565b92505060606200026387828801620001e6565b91505092959194509250565b7f4e487b7100000000000000000000000000000000000000000000000000000000600052601160045260246000fd5b6000620002ab82620001c2565b9150620002b883620001c2565b9250828202620002c881620001c2565b91508282048414831517620002e257620002e16200026f565b5b5092915050565b6109cd80620002f96000396000f3fe608060405234801561001057600080fd5b50600436106100935760003560e01c8063590e1ae311610066578063590e1ae3146100fc578063c7c4ff4614610106578063d8270dce14610124578063efb98bcf14610142578063fe25e00a1461016057610093565b80630fb5a6b41461009857806312424e3f146100b657806328f371aa146100c057806338af3eed146100de575b600080fd5b6100a061017e565b6040516100ad9190610610565b60405180910390f35b6100be610184565b005b6100c8610304565b6040516100d59190610646565b60405180910390f35b6100e6610317565b6040516100f391906106a2565b60405180910390f35b61010461033d565b005b61010e610565565b60405161011b91906106a2565b60405180910390f35b61012c61058b565b6040516101399190610610565b60405180910390f35b61014a610591565b6040516101579190610610565b60405180910390f35b6101686105d3565b60405161017591906106de565b60405180910390f35b60045481565b60008054906101000a900473ffffffffffffffffffffffffffffffffffffffff1673ffffffffffffffffffffffffffffffffffffffff163373ffffffffffffffffffffffffffffffffffffffff1614610212576040517f08c379a000000000000000000000000000000000000000000000000000000000815260040161020990610756565b60405180910390fd5b60004790506000600260009054906101000a900473ffffffffffffffffffffffffffffffffffffffff1673ffffffffffffffffffffffffffffffffffffffff168260405161025f906107a7565b60006040518083038185875af1925050503d806000811461029c576040519150601f19603f3d011682016040523d82523d6000602084013e6102a1565b606091505b50509050806102e5576040517f08c379a00000000000000000000000000000000000000000000000000000000081526004016102dc90610808565b60405180910390fd5b6001600560006101000a81548160ff0219169083151502179055505050565b600560009054906101000a900460ff1681565b600260009054906101000a900473ffffffffffffffffffffffffffffffffffffffff1681565b60008054906101000a900473ffffffffffffffffffffffffffffffffffffffff1673ffffffffffffffffffffffffffffffffffffffff163373ffffffffffffffffffffffffffffffffffffffff1614806103ff5750600160009054906101000a900473ffffffffffffffffffffffffffffffffffffffff1673ffffffffffffffffffffffffffffffffffffffff163373ffffffffffffffffffffffffffffffffffffffff161480156103fe57506004546003546103fa9190610857565b4210155b5b61043e576040517f08c379a0000000000000000000000000000000000000000000000000000000008152600401610435906108d7565b60405180910390fd5b600560009054906101000a900460ff161561048e576040517f08c379a000000000000000000000000000000000000000000000000000000000815260040161048590610943565b60405180910390fd5b60004790506000600160009054906101000a900473ffffffffffffffffffffffffffffffffffffffff1673ffffffffffffffffffffffffffffffffffffffff16826040516104db906107a7565b60006040518083038185875af1925050503d8060008114610518576040519150601f19603f3d011682016040523d82523d6000602084013e61051d565b606091505b5050905080610561576040517f08c379a000000000000000000000000000000000000000000000000000000000815260040161055890610808565b60405180910390fd5b5050565b600160009054906101000a900473ffffffffffffffffffffffffffffffffffffffff1681565b60035481565b60006004546003546105a39190610857565b42106105b257600090506105d0565b426004546003546105c39190610857565b6105cd9190610963565b90505b90565b60008054906101000a900473ffffffffffffffffffffffffffffffffffffffff1681565b6000819050919050565b61060a816105f7565b82525050565b60006020820190506106256000830184610601565b92915050565b60008115159050919050565b6106408161062b565b82525050565b600060208201905061065b6000830184610637565b92915050565b600073ffffffffffffffffffffffffffffffffffffffff82169050919050565b600061068c82610661565b9050919050565b61069c81610681565b82525050565b60006020820190506106b76000830184610693565b92915050565b60006106c882610661565b9050919050565b6106d8816106bd565b82525050565b60006020820190506106f360008301846106cf565b92915050565b600082825260208201905092915050565b7f4f6e6c7920617262697465722063616e20617070726f76650000000000000000600082015250565b60006107406018836106f9565b915061074b8261070a565b602082019050919050565b6000602082019050818103600083015261076f81610733565b9050919050565b600081905092915050565b50565b6000610791600083610776565b915061079c82610781565b600082019050919050565b60006107b282610784565b9150819050919050565b7f4661696c656420746f2073656e64204574686572000000000000000000000000600082015250565b60006107f26014836106f9565b91506107fd826107bc565b602082019050919050565b60006020820190508181036000830152610821816107e5565b9050919050565b7f4e487b7100000000000000000000000000000000000000000000000000000000600052601160045260246000fd5b6000610862826105f7565b915061086d836105f7565b925082820190508082111561088557610884610828565b5b92915050565b7f4e6f7420617574686f72697a656420746f20726566756e640000000000000000600082015250565b60006108c16018836106f9565b91506108cc8261088b565b602082019050919050565b600060208201905081810360008301526108f0816108b4565b9050919050565b7f416c726561647920617070726f76656400000000000000000000000000000000600082015250565b600061092d6010836106f9565b9150610938826108f7565b602082019050919050565b6000602082019050818103600083015261095c81610920565b9050919050565b600061096e826105f7565b9150610979836105f7565b925082820390508181111561099157610990610828565b5b9291505056fea2646970667358221220e12d803b37dc3b2f3af492a710223d73ae0d159d92717999d1753cf9fa16ca3864736f6c63430008180033",
  "linkReferences": {},
  "deployedLinkReferences": {}
}