{
  "_format": "hh-sol-artifact-1",
  "contractName": "ChainGuardEscrow",
  "sourceName": "contracts/ChainGuardEscrow.sol",
  "abi": [
    {
      "inputs": [
        {
          "internalType": "address",
          "name": "_arbiter",
          "type": "address"
        },
        {
          "internalType": "address payable",
          "name": "_beneficiary",
          "type": "address"
        }
      ],
      "stateMutability": "payable",
      "type": "constructor"
    },
    {
      "inputs": [],
      "name": "ReentrancyGuardReentrantCall",
      "type": "error"
    },
    {
      "anonymous": false,
      "inputs": [
        {
          "indexed": false,
          "internalType": "uint256",
          "name": "amount",
          "type": "uint256"
        }
      ],
      "name": "Approved",
      "type": "event"
    },
    {
      "anonymous": false,
      "inputs": [
        {
          "indexed": false,
          "internalType": "uint256",
          "name": "amount",
          "type": "uint256"
        }
      ],
      "name": "Refunded",
      "type": "event"
    },
    {
      "inputs": [],
      "name": "approve",
      "outputs": [],
      "stateMutability": "nonpayable",
      "type": "function"
    },
    {
      "inputs": [],
      "name": "arbiter",
      "outputs": [
        {
          "internalType": "address",
          "name": "",
          "type": "address"
        }
      ],
      "stateMutability": "view",
      "type": "function"
    },
    {
      "inputs": [],
      "name": "beneficiary",
      "outputs": [
        {
          "internalType": "address payable",
          "name": "",
          "type": "address"
        }
      ],
      "stateMutability": "view",
      "type": "function"
    },
    {
      "inputs": [],
      "name": "depositor",
      "outputs": [
        {
          "internalType": "address",
          "name": "",
          "type": "address"
        }
      ],
      "stateMutability": "view",
      "type": "function"
    },
    {
      "inputs": [],
      "name": "getBalance",
      "outputs": [
        {
          "internalType": "uint256",
          "name": "",
          "type": "uint256"
        }
      ],
      "stateMutability": "view",
      "type": "function"
    },
    {
      "inputs": [],
      "name": "isApproved",
      "outputs": [
        {
          "internalType": "bool",
          "name": "",
          "type": "bool"
        }
      ],
      "stateMutability": "view",
      "type": "function"
    },
    {
      "inputs": [],
      "name": "isRefunded",
      "outputs": [
        {
          "internalType": "bool",
          "name": "",
          "type": "bool"
        }
      ],
      "stateMutability": "view",
      "type": "function"
    },
    {
      "inputs": [],
      "name": "refund",
      "outputs": [],
      "stateMutability": "nonpayable",
      "type": "function"
    }
  ],
  "bytecode": "0x60e060405260405162000fc838038062000fc88339818101604052810190620000299190620001ca565b60016000819055506000341162000077576040517f08c379a00000000000000000000000000000000000000000000000000000000081526004016200006e9062000298565b60405180910390fd5b8173ffffffffffffffffffffffffffffffffffffffff1660808173ffffffffffffffffffffffffffffffffffffffff16815250503373ffffffffffffffffffffffffffffffffffffffff1660a08173ffffffffffffffffffffffffffffffffffffffff16815250508073ffffffffffffffffffffffffffffffffffffffff1660c08173ffffffffffffffffffffffffffffffffffffffff16815250505050620002ba565b600080fd5b600073ffffffffffffffffffffffffffffffffffffffff82169050919050565b60006200014d8262000120565b9050919050565b6200015f8162000140565b81146200016b57600080fd5b50565b6000815190506200017f8162000154565b92915050565b6000620001928262000120565b9050919050565b620001a48162000185565b8114620001b057600080fd5b50565b600081519050620001c48162000199565b92915050565b60008060408385031215620001e457620001e36200011b565b5b6000620001f4858286016200016e565b92505060206200020785828601620001b3565b9150509250929050565b600082825260208201905092915050565b7f4465706f73697420616d6f756e74206d7573742062652067726561746572207460008201527f68616e2030000000000000000000000000000000000000000000000000000000602082015250565b60006200028060258362000211565b91506200028d8262000222565b604082019050919050565b60006020820190508181036000830152620002b38162000271565b9050919050565b60805160a05160c051610cc262000306600039600081816102f701526104170152600081816105d301526106f10152600081816101670152818161044301526107150152610cc26000f3fe608060405234801561001057600080fd5b50600436106100885760003560e01c8063590e1ae31161005b578063590e1ae3146100f1578063779cd083146100fb578063c7c4ff4614610119578063fe25e00a1461013757610088565b806312065fe01461008d57806312424e3f146100ab57806328f371aa146100b557806338af3eed146100d3575b600080fd5b610095610155565b6040516100a291906107a0565b60405180910390f35b6100b361015d565b005b6100bd610402565b6040516100ca91906107d6565b60405180910390f35b6100db610415565b6040516100e89190610832565b60405180910390f35b6100f9610439565b005b6101036106de565b60405161011091906107d6565b60405180910390f35b6101216106ef565b60405161012e919061086e565b60405180910390f35b61013f610713565b60405161014c919061086e565b60405180910390f35b600047905090565b610165610737565b7f000000000000000000000000000000000000000000000000000000000000000073ffffffffffffffffffffffffffffffffffffffff163373ffffffffffffffffffffffffffffffffffffffff16146101f3576040517f08c379a00000000000000000000000000000000000000000000000000000000081526004016101ea906108e6565b60405180910390fd5b600160009054906101000a900460ff1615610243576040517f08c379a000000000000000000000000000000000000000000000000000000000815260040161023a90610952565b60405180910390fd5b60018054906101000a900460ff1615610291576040517f08c379a0000000000000000000000000000000000000000000000000000000008152600401610288906109be565b60405180910390fd5b6000479050600081116102d9576040517f08c379a00000000000000000000000000000000000000000000000000000000081526004016102d090610a2a565b60405180910390fd5b60018060006101000a81548160ff02191690831515021790555060007f000000000000000000000000000000000000000000000000000000000000000073ffffffffffffffffffffffffffffffffffffffff168260405161033990610a7b565b60006040518083038185875af1925050503d8060008114610376576040519150601f19603f3d011682016040523d82523d6000602084013e61037b565b606091505b50509050806103bf576040517f08c379a00000000000000000000000000000000000000000000000000000000081526004016103b690610b02565b60405180910390fd5b7f3ad93af63cb7967b23e4fb500b7d7d28b07516325dcf341f88bebf959d82c1cb826040516103ee91906107a0565b60405180910390a1505061040061077d565b565b600160009054906101000a900460ff1681565b7f000000000000000000000000000000000000000000000000000000000000000081565b610441610737565b7f000000000000000000000000000000000000000000000000000000000000000073ffffffffffffffffffffffffffffffffffffffff163373ffffffffffffffffffffffffffffffffffffffff16146104cf576040517f08c379a00000000000000000000000000000000000000000000000000000000081526004016104c690610b6e565b60405180910390fd5b600160009054906101000a900460ff161561051f576040517f08c379a000000000000000000000000000000000000000000000000000000000815260040161051690610952565b60405180910390fd5b60018054906101000a900460ff161561056d576040517f08c379a0000000000000000000000000000000000000000000000000000000008152600401610564906109be565b60405180910390fd5b6000479050600081116105b5576040517f08c379a00000000000000000000000000000000000000000000000000000000081526004016105ac90610bda565b60405180910390fd5b60018060016101000a81548160ff02191690831515021790555060007f000000000000000000000000000000000000000000000000000000000000000073ffffffffffffffffffffffffffffffffffffffff168260405161061590610a7b565b60006040518083038185875af1925050503d8060008114610652576040519150601f19603f3d011682016040523d82523d6000602084013e610657565b606091505b505090508061069b576040517f08c379a000000000000000000000000000000000000000000000000000000000815260040161069290610c6c565b60405180910390fd5b7f3d2a04f53164bedf9a8a46353305d6b2d2261410406df3b41f99ce6489dc003c826040516106ca91906107a0565b60405180910390a150506106dc61077d565b565b60018054906101000a900460ff1681565b7f000000000000000000000000000000000000000000000000000000000000000081565b7f000000000000000000000000000000000000000000000000000000000000000081565b600260005403610773576040517f3ee5aeb500000000000000000000000000000000000000000000000000000000815260040160405180910390fd5b6002600081905550565b6001600081905550565b6000819050919050565b61079a81610787565b82525050565b60006020820190506107b56000830184610791565b92915050565b60008115159050919050565b6107d0816107bb565b82525050565b60006020820190506107eb60008301846107c7565b92915050565b600073ffffffffffffffffffffffffffffffffffffffff82169050919050565b600061081c826107f1565b9050919050565b61082c81610811565b82525050565b60006020820190506108476000830184610823565b92915050565b6000610858826107f1565b9050919050565b6108688161084d565b82525050565b6000602082019050610883600083018461085f565b92915050565b600082825260208201905092915050565b7f4f6e6c7920617262697465722063616e20617070726f76650000000000000000600082015250565b60006108d0601883610889565b91506108db8261089a565b602082019050919050565b600060208201905081810360008301526108ff816108c3565b9050919050565b7f416c726561647920617070726f76656400000000000000000000000000000000600082015250565b600061093c601083610889565b915061094782610906565b602082019050919050565b6000602082019050818103600083015261096b8161092f565b9050919050565b7f416c726561647920726566756e64656400000000000000000000000000000000600082015250565b60006109a8601083610889565b91506109b382610972565b602082019050919050565b600060208201905081810360008301526109d78161099b565b9050919050565b7f4e6f2066756e647320746f20617070726f766500000000000000000000000000600082015250565b6000610a14601383610889565b9150610a1f826109de565b602082019050919050565b60006020820190508181036000830152610a4381610a07565b9050919050565b600081905092915050565b50565b6000610a65600083610a4a565b9150610a7082610a55565b600082019050919050565b6000610a8682610a58565b9150819050919050565b7f4661696c656420746f2073656e6420457468657220746f2062656e656669636960008201527f6172790000000000000000000000000000000000000000000000000000000000602082015250565b6000610aec602383610889565b9150610af782610a90565b604082019050919050565b60006020820190508181036000830152610b1b81610adf565b9050919050565b7f4f6e6c7920617262697465722063616e20726566756e64000000000000000000600082015250565b6000610b58601783610889565b9150610b6382610b22565b602082019050919050565b60006020820190508181036000830152610b8781610b4b565b9050919050565b7f4e6f2066756e647320746f20726566756e640000000000000000000000000000600082015250565b6000610bc4601283610889565b9150610bcf82610b8e565b602082019050919050565b60006020820190508181036000830152610bf381610bb7565b9050919050565b7f4661696c656420746f2073656e6420457468657220746f206465706f7369746f60008201527f7200000000000000000000000000000000000000000000000000000000000000602082015250565b6000610c56602183610889565b9150610c6182610bfa565b604082019050919050565b60006020820190508181036000830152610c8581610c49565b905091905056fea2646970667358221220073fa5314c2ffecbe82cac2f9f75f7b7e2180d3e0440f5f14cee7ca91a81348d64736f6c63430008180033",
  "linkReferences": {},
  "deployedLinkReferences": {}
}