{
  "_format": "hh-sol-artifact-1",
  "contractName": "EscrowFactory",
  "sourceName": "contracts/EscrowFactory.sol",
  "abi": [
    {
      "anonymous": false,
      "inputs": [
        {
          "indexed": false,
          "internalType": "address",
          "name": "escrowAddress",
          "type": "address"
        },
        {
          "indexed": false,
          "internalType": "address",
          "name": "arbiter",
          "type": "address"
        },
        {
          "indexed": false,
          "internalType": "address",
          "name": "depositor",
          "type": "address"
        },
        {
          "indexed": false,
          "internalType": "address",
          "name": "beneficiary",
          "type": "address"
        },
        {
          "indexed": false,
          "internalType": "uint256",
          "name": "amount",
          "type": "uint256"
        },
        {
          "indexed": false,
          "internalType": "uint256",
          "name": "duration",
          "type": "uint256"
        }
      ],
      "name": "EscrowCreated",
      "type": "event"
    },
    {
      "inputs": [
        {
          "internalType": "address",
          "name": "_arbiter",
          "type": "address"
        },
        {
          "internalType": "address payable",
          "name": "_beneficiary",
          "type": "address"
        },
        {
          "internalType": "uint256",
          "name": "_durationInDays",
          "type": "uint256"
        }
      ],
      "name": "createEscrow",
      "outputs": [
        {
          "internalType": "contract ChainGuardEscrow",
          "name": "",
          "type": "address"
        }
      ],
      "stateMutability": "payable",
      "type": "function"
    },
    {
      "inputs": [
        {
          "internalType": "uint256",
          "name": "",
          "type": "uint256"
        }
      ],
      "name": "escrows",
      "outputs": [
        {
          "internalType": "contract ChainGuardEscrow",
          "name": "",
          "type": "address"
        }
      ],
      "stateMutability": "view",
      "type": "function"
    },
    {
      "inputs": [],
      "name": "getEscrows",
      "outputs": [
        {
          "internalType": "contract ChainGuardEscrow[]",
          "name": "",
          "type": "address[]"
        }
      ],
      "stateMutability": "view",
      "type": "function"
    }
  ],
  "bytecode": "0x608060405234801561001057600080fd5b506117ae806100206000396000f3fe608060405260043610620000385760003560e01c8063012f52ee146200003d5780636afcb6da1462000081578063c361765014620000b1575b600080fd5b3480156200004a57600080fd5b50620000696004803603810190620000639190620002fc565b620000e7565b604051620000789190620003b9565b60405180910390f35b3480156200008e57600080fd5b506200009962000127565b604051620000a89190620004a4565b60405180910390f35b620000cf6004803603810190620000c9919062000552565b620001b7565b604051620000de9190620003b9565b60405180910390f35b60008181548110620000f857600080fd5b906000526020600020016000915054906101000a900473ffffffffffffffffffffffffffffffffffffffff1681565b60606000805480602002602001604051908101604052809291908181526020018280548015620001ad57602002820191906000526020600020905b8160009054906101000a900473ffffffffffffffffffffffffffffffffffffffff1673ffffffffffffffffffffffffffffffffffffffff168152602001906001019080831162000162575b5050505050905090565b6000803485338686604051620001cd90620002ae565b620001dc9493929190620005e1565b6040518091039082f0905080158015620001fa573d6000803e3d6000fd5b5090506000819080600181540180825580915050600190039060005260206000200160009091909190916101000a81548173ffffffffffffffffffffffffffffffffffffffff021916908373ffffffffffffffffffffffffffffffffffffffff1602179055507fae4afeae517547c89e021ef11c8647b223ef2849e6a4929e9e238dc5945c4e7c8186338734886040516200029b9695949392919062000653565b60405180910390a1809150509392505050565b6110b880620006c183390190565b600080fd5b6000819050919050565b620002d681620002c1565b8114620002e257600080fd5b50565b600081359050620002f681620002cb565b92915050565b600060208284031215620003155762000314620002bc565b5b60006200032584828501620002e5565b91505092915050565b600073ffffffffffffffffffffffffffffffffffffffff82169050919050565b6000819050919050565b600062000379620003736200036d846200032e565b6200034e565b6200032e565b9050919050565b60006200038d8262000358565b9050919050565b6000620003a18262000380565b9050919050565b620003b38162000394565b82525050565b6000602082019050620003d06000830184620003a8565b92915050565b600081519050919050565b600082825260208201905092915050565b6000819050602082019050919050565b6200040d8162000394565b82525050565b600062000421838362000402565b60208301905092915050565b6000602082019050919050565b60006200044782620003d6565b620004538185620003e1565b93506200046083620003f2565b8060005b83811015620004975781516200047b888262000413565b975062000488836200042d565b92505060018101905062000464565b5085935050505092915050565b60006020820190508181036000830152620004c081846200043a565b905092915050565b6000620004d5826200032e565b9050919050565b620004e781620004c8565b8114620004f357600080fd5b50565b6000813590506200050781620004dc565b92915050565b60006200051a826200032e565b9050919050565b6200052c816200050d565b81146200053857600080fd5b50565b6000813590506200054c8162000521565b92915050565b6000806000606084860312156200056e576200056d620002bc565b5b60006200057e86828701620004f6565b935050602062000591868287016200053b565b9250506040620005a486828701620002e5565b9150509250925092565b620005b981620004c8565b82525050565b620005ca816200050d565b82525050565b620005db81620002c1565b82525050565b6000608082019050620005f86000830187620005ae565b620006076020830186620005bf565b620006166040830185620005bf565b620006256060830184620005d0565b95945050505050565b60006200063b8262000380565b9050919050565b6200064d816200062e565b82525050565b600060c0820190506200066a6000830189620005ae565b620006796020830188620005ae565b620006886040830187620005ae565b62000697606083018662000642565b620006a66080830185620005d0565b620006b560a0830184620005d0565b97965050505050505056fe6080604052604051620010b8380380620010b8833981810160405281019062000029919062000358565b600073ffffffffffffffffffffffffffffffffffffffff168473ffffffffffffffffffffffffffffffffffffffff1614158015620000945750600073ffffffffffffffffffffffffffffffffffffffff168373ffffffffffffffffffffffffffffffffffffffff1614155b8015620000ce5750600073ffffffffffffffffffffffffffffffffffffffff168273ffffffffffffffffffffffffffffffffffffffff1614155b62000110576040517f08c379a000000000000000000000000000000000000000000000000000000000815260040162000107906200042b565b60405180910390fd5b6000811162000156576040517f08c379a00000000000000000000000000000000000000000000000000000000081526004016200014d906200049d565b60405180910390fd5b836000806101000a81548173ffffffffffffffffffffffffffffffffffffffff021916908373ffffffffffffffffffffffffffffffffffffffff16021790555082600160006101000a81548173ffffffffffffffffffffffffffffffffffffffff021916908373ffffffffffffffffffffffffffffffffffffffff16021790555081600260006101000a81548173ffffffffffffffffffffffffffffffffffffffff021916908373ffffffffffffffffffffffffffffffffffffffff160217905550426003819055506201518081620002309190620004ee565b6004819055506000600560006101000a81548160ff021916908360028111156200025f576200025e62000539565b5b02179055505050505062000568565b600080fd5b600073ffffffffffffffffffffffffffffffffffffffff82169050919050565b6000620002a08262000273565b9050919050565b620002b28162000293565b8114620002be57600080fd5b50565b600081519050620002d281620002a7565b92915050565b6000620002e58262000273565b9050919050565b620002f781620002d8565b81146200030357600080fd5b50565b6000815190506200031781620002ec565b92915050565b6000819050919050565b62000332816200031d565b81146200033e57600080fd5b50565b600081519050620003528162000327565b92915050565b600080600080608085870312156200037557620003746200026e565b5b60006200038587828801620002c1565b9450506020620003988782880162000306565b9350506040620003ab8782880162000306565b9250506060620003be8782880162000341565b91505092959194509250565b600082825260208201905092915050565b7f496e76616c696420616464726573736573000000000000000000000000000000600082015250565b600062000413601183620003ca565b91506200042082620003db565b602082019050919050565b60006020820190508181036000830152620004468162000404565b9050919050565b7f4475726174696f6e206d7573742062652067726561746572207468616e203000600082015250565b600062000485601f83620003ca565b915062000492826200044d565b602082019050919050565b60006020820190508181036000830152620004b88162000476565b9050919050565b7f4e487b7100000000000000000000000000000000000000000000000000000000600052601160045260246000fd5b6000620004fb826200031d565b915062000508836200031d565b925082820262000518816200031d565b91508282048414831517620005325762000531620004bf565b5b5092915050565b7f4e487b7100000000000000000000000000000000000000000000000000000000600052602160045260246000fd5b610b4080620005786000396000f3fe608060405234801561001057600080fd5b506004361061009e5760003560e01c8063c19d93fb11610066578063c19d93fb14610111578063c7c4ff461461012f578063d8270dce1461014d578063efb98bcf1461016b578063fe25e00a146101895761009e565b80630fb5a6b4146100a357806312424e3f146100c15780631865c57d146100cb57806338af3eed146100e9578063590e1ae314610107575b600080fd5b6100ab6101a7565b6040516100b89190610727565b60405180910390f35b6100c96101ad565b005b6100d36103b3565b6040516100e091906107b9565b60405180910390f35b6100f16103ca565b6040516100fe9190610815565b60405180910390f35b61010f6103f0565b005b610119610669565b60405161012691906107b9565b60405180910390f35b61013761067c565b6040516101449190610815565b60405180910390f35b6101556106a2565b6040516101629190610727565b60405180910390f35b6101736106a8565b6040516101809190610727565b60405180910390f35b6101916106ea565b60405161019e9190610851565b60405180910390f35b60045481565b60008054906101000a900473ffffffffffffffffffffffffffffffffffffffff1673ffffffffffffffffffffffffffffffffffffffff163373ffffffffffffffffffffffffffffffffffffffff161461023b576040517f08c379a0000000000000000000000000000000000000000000000000000000008152600401610232906108c9565b60405180910390fd5b6000600281111561024f5761024e610742565b5b600560009054906101000a900460ff16600281111561027157610270610742565b5b146102b1576040517f08c379a00000000000000000000000000000000000000000000000000000000081526004016102a890610935565b60405180910390fd5b60004790506000600260009054906101000a900473ffffffffffffffffffffffffffffffffffffffff1673ffffffffffffffffffffffffffffffffffffffff16826040516102fe90610986565b60006040518083038185875af1925050503d806000811461033b576040519150601f19603f3d011682016040523d82523d6000602084013e610340565b606091505b5050905080610384576040517f08c379a000000000000000000000000000000000000000000000000000000000815260040161037b906109e7565b60405180910390fd5b6001600560006101000a81548160ff021916908360028111156103aa576103a9610742565b5b02179055505050565b6000600560009054906101000a900460ff16905090565b600260009054906101000a900473ffffffffffffffffffffffffffffffffffffffff1681565b60008054906101000a900473ffffffffffffffffffffffffffffffffffffffff1673ffffffffffffffffffffffffffffffffffffffff163373ffffffffffffffffffffffffffffffffffffffff1614806104b25750600160009054906101000a900473ffffffffffffffffffffffffffffffffffffffff1673ffffffffffffffffffffffffffffffffffffffff163373ffffffffffffffffffffffffffffffffffffffff161480156104b157506004546003546104ad9190610a36565b4210155b5b6104f1576040517f08c379a00000000000000000000000000000000000000000000000000000000081526004016104e890610ab6565b60405180910390fd5b6000600281111561050557610504610742565b5b600560009054906101000a900460ff16600281111561052757610526610742565b5b14610567576040517f08c379a000000000000000000000000000000000000000000000000000000000815260040161055e90610935565b60405180910390fd5b60004790506000600160009054906101000a900473ffffffffffffffffffffffffffffffffffffffff1673ffffffffffffffffffffffffffffffffffffffff16826040516105b490610986565b60006040518083038185875af1925050503d80600081146105f1576040519150601f19603f3d011682016040523d82523d6000602084013e6105f6565b606091505b505090508061063a576040517f08c379a0000000000000000000000000000000000000000000000000000000008152600401610631906109e7565b60405180910390fd5b6002600560006101000a81548160ff021916908360028111156106605761065f610742565b5b02179055505050565b600560009054906101000a900460ff1681565b600160009054906101000a900473ffffffffffffffffffffffffffffffffffffffff1681565b60035481565b60006004546003546106ba9190610a36565b42106106c957600090506106e7565b426004546003546106da9190610a36565b6106e49190610ad6565b90505b90565b60008054906101000a900473ffffffffffffffffffffffffffffffffffffffff1681565b6000819050919050565b6107218161070e565b82525050565b600060208201905061073c6000830184610718565b92915050565b7f4e487b7100000000000000000000000000000000000000000000000000000000600052602160045260246000fd5b6003811061078257610781610742565b5b50565b600081905061079382610771565b919050565b60006107a382610785565b9050919050565b6107b381610798565b82525050565b60006020820190506107ce60008301846107aa565b92915050565b600073ffffffffffffffffffffffffffffffffffffffff82169050919050565b60006107ff826107d4565b9050919050565b61080f816107f4565b82525050565b600060208201905061082a6000830184610806565b92915050565b600061083b826107d4565b9050919050565b61084b81610830565b82525050565b60006020820190506108666000830184610842565b92915050565b600082825260208201905092915050565b7f4f6e6c7920617262697465722063616e20617070726f76650000000000000000600082015250565b60006108b360188361086c565b91506108be8261087d565b602082019050919050565b600060208201905081810360008301526108e2816108a6565b9050919050565b7f4e6f7420696e2070656e64696e67207374617465000000000000000000000000600082015250565b600061091f60148361086c565b915061092a826108e9565b602082019050919050565b6000602082019050818103600083015261094e81610912565b9050919050565b600081905092915050565b50565b6000610970600083610955565b915061097b82610960565b600082019050919050565b600061099182610963565b9150819050919050565b7f4661696c656420746f2073656e64204574686572000000000000000000000000600082015250565b60006109d160148361086c565b91506109dc8261099b565b602082019050919050565b60006020820190508181036000830152610a00816109c4565b9050919050565b7f4e487b7100000000000000000000000000000000000000000000000000000000600052601160045260246000fd5b6000610a418261070e565b9150610a4c8361070e565b9250828201905080821115610a6457610a63610a07565b5b92915050565b7f4e6f7420617574686f72697a656420746f20726566756e640000000000000000600082015250565b6000610aa060188361086c565b9150610aab82610a6a565b602082019050919050565b60006020820190508181036000830152610acf81610a93565b9050919050565b6000610ae18261070e565b9150610aec8361070e565b9250828203905081811115610b0457610b03610a07565b5b9291505056fea2646970667358221220d26080204875832a607a9234b5cea69aad75b8934905ff3e6e18f7f1115ad12e64736f6c63430008180033a2646970667358221220a89cfe2faf29db57434687e4de74e5a90482cf4f57c5f956e44d659b3bd447b764736f6c63430008180033",
  "linkReferences": {},
  "deployedLinkReferences": {}
}