{
  "_format": "hh-sol-artifact-1",
  "contractName": "EscrowFactory",
  "sourceName": "contracts/EscrowFactory.sol",
  "abi": [
    {
      "anonymous": false,
      "inputs": [
        {
          "indexed": false,
          "internalType": "address",
          "name": "escrowAddress",
          "type": "address"
        },
        {
          "indexed": false,
          "internalType": "address",
          "name": "arbiter",
          "type": "address"
        },
        {
          "indexed": false,
          "internalType": "address",
          "name": "depositor",
          "type": "address"
        },
        {
          "indexed": false,
          "internalType": "address",
          "name": "beneficiary",
          "type": "address"
        },
        {
          "indexed": false,
          "internalType": "uint256",
          "name": "amount",
          "type": "uint256"
        },
        {
          "indexed": false,
          "internalType": "uint256",
          "name": "duration",
          "type": "uint256"
        }
      ],
      "name": "EscrowCreated",
      "type": "event"
    },
    {
      "inputs": [
        {
          "internalType": "address",
          "name": "_arbiter",
          "type": "address"
        },
        {
          "internalType": "address payable",
          "name": "_beneficiary",
          "type": "address"
        },
        {
          "internalType": "uint256",
          "name": "_durationInDays",
          "type": "uint256"
        }
      ],
      "name": "createEscrow",
      "outputs": [
        {
          "internalType": "contract ChainGuardEscrow",
          "name": "",
          "type": "address"
        }
      ],
      "stateMutability": "payable",
      "type": "function"
    },
    {
      "inputs": [
        {
          "internalType": "uint256",
          "name": "",
          "type": "uint256"
        }
      ],
      "name": "escrows",
      "outputs": [
        {
          "internalType": "contract ChainGuardEscrow",
          "name": "",
          "type": "address"
        }
      ],
      "stateMutability": "view",
      "type": "function"
    },
    {
      "inputs": [],
      "name": "getEscrows",
      "outputs": [
        {
          "internalType": "contract ChainGuardEscrow[]",
          "name": "",
          "type": "address[]"
        }
      ],
      "stateMutability": "view",
      "type": "function"
    }
  ],
  "bytecode": "0x608060405234801561001057600080fd5b506113bc806100206000396000f3fe608060405260043610620000385760003560e01c8063012f52ee146200003d5780636afcb6da1462000081578063c361765014620000b1575b600080fd5b3480156200004a57600080fd5b50620000696004803603810190620000639190620002fc565b620000e7565b604051620000789190620003b9565b60405180910390f35b3480156200008e57600080fd5b506200009962000127565b604051620000a89190620004a4565b60405180910390f35b620000cf6004803603810190620000c9919062000552565b620001b7565b604051620000de9190620003b9565b60405180910390f35b60008181548110620000f857600080fd5b906000526020600020016000915054906101000a900473ffffffffffffffffffffffffffffffffffffffff1681565b60606000805480602002602001604051908101604052809291908181526020018280548015620001ad57602002820191906000526020600020905b8160009054906101000a900473ffffffffffffffffffffffffffffffffffffffff1673ffffffffffffffffffffffffffffffffffffffff168152602001906001019080831162000162575b5050505050905090565b6000803485338686604051620001cd90620002ae565b620001dc9493929190620005e1565b6040518091039082f0905080158015620001fa573d6000803e3d6000fd5b5090506000819080600181540180825580915050600190039060005260206000200160009091909190916101000a81548173ffffffffffffffffffffffffffffffffffffffff021916908373ffffffffffffffffffffffffffffffffffffffff1602179055507fae4afeae517547c89e021ef11c8647b223ef2849e6a4929e9e238dc5945c4e7c8186338734886040516200029b9695949392919062000653565b60405180910390a1809150509392505050565b610cc680620006c183390190565b600080fd5b6000819050919050565b620002d681620002c1565b8114620002e257600080fd5b50565b600081359050620002f681620002cb565b92915050565b600060208284031215620003155762000314620002bc565b5b60006200032584828501620002e5565b91505092915050565b600073ffffffffffffffffffffffffffffffffffffffff82169050919050565b6000819050919050565b600062000379620003736200036d846200032e565b6200034e565b6200032e565b9050919050565b60006200038d8262000358565b9050919050565b6000620003a18262000380565b9050919050565b620003b38162000394565b82525050565b6000602082019050620003d06000830184620003a8565b92915050565b600081519050919050565b600082825260208201905092915050565b6000819050602082019050919050565b6200040d8162000394565b82525050565b600062000421838362000402565b60208301905092915050565b6000602082019050919050565b60006200044782620003d6565b620004538185620003e1565b93506200046083620003f2565b8060005b83811015620004975781516200047b888262000413565b975062000488836200042d565b92505060018101905062000464565b5085935050505092915050565b60006020820190508181036000830152620004c081846200043a565b905092915050565b6000620004d5826200032e565b9050919050565b620004e781620004c8565b8114620004f357600080fd5b50565b6000813590506200050781620004dc565b92915050565b60006200051a826200032e565b9050919050565b6200052c816200050d565b81146200053857600080fd5b50565b6000813590506200054c8162000521565b92915050565b6000806000606084860312156200056e576200056d620002bc565b5b60006200057e86828701620004f6565b935050602062000591868287016200053b565b9250506040620005a486828701620002e5565b9150509250925092565b620005b981620004c8565b82525050565b620005ca816200050d565b82525050565b620005db81620002c1565b82525050565b6000608082019050620005f86000830187620005ae565b620006076020830186620005bf565b620006166040830185620005bf565b620006256060830184620005d0565b95945050505050565b60006200063b8262000380565b9050919050565b6200064d816200062e565b82525050565b600060c0820190506200066a6000830189620005ae565b620006796020830188620005ae565b620006886040830187620005ae565b62000697606083018662000642565b620006a66080830185620005d0565b620006b560a0830184620005d0565b97965050505050505056fe608060405260405162000cc638038062000cc68339818101604052810190620000299190620001fd565b836000806101000a81548173ffffffffffffffffffffffffffffffffffffffff021916908373ffffffffffffffffffffffffffffffffffffffff16021790555082600160006101000a81548173ffffffffffffffffffffffffffffffffffffffff021916908373ffffffffffffffffffffffffffffffffffffffff16021790555081600260006101000a81548173ffffffffffffffffffffffffffffffffffffffff021916908373ffffffffffffffffffffffffffffffffffffffff1602179055504260038190555062015180816200010391906200029e565b60048190555050505050620002e9565b600080fd5b600073ffffffffffffffffffffffffffffffffffffffff82169050919050565b6000620001458262000118565b9050919050565b620001578162000138565b81146200016357600080fd5b50565b60008151905062000177816200014c565b92915050565b60006200018a8262000118565b9050919050565b6200019c816200017d565b8114620001a857600080fd5b50565b600081519050620001bc8162000191565b92915050565b6000819050919050565b620001d781620001c2565b8114620001e357600080fd5b50565b600081519050620001f781620001cc565b92915050565b600080600080608085870312156200021a576200021962000113565b5b60006200022a8782880162000166565b94505060206200023d87828801620001ab565b93505060406200025087828801620001ab565b92505060606200026387828801620001e6565b91505092959194509250565b7f4e487b7100000000000000000000000000000000000000000000000000000000600052601160045260246000fd5b6000620002ab82620001c2565b9150620002b883620001c2565b9250828202620002c881620001c2565b91508282048414831517620002e257620002e16200026f565b5b5092915050565b6109cd80620002f96000396000f3fe608060405234801561001057600080fd5b50600436106100935760003560e01c8063590e1ae311610066578063590e1ae3146100fc578063c7c4ff4614610106578063d8270dce14610124578063efb98bcf14610142578063fe25e00a1461016057610093565b80630fb5a6b41461009857806312424e3f146100b657806328f371aa146100c057806338af3eed146100de575b600080fd5b6100a061017e565b6040516100ad9190610610565b60405180910390f35b6100be610184565b005b6100c8610304565b6040516100d59190610646565b60405180910390f35b6100e6610317565b6040516100f391906106a2565b60405180910390f35b61010461033d565b005b61010e610565565b60405161011b91906106a2565b60405180910390f35b61012c61058b565b6040516101399190610610565b60405180910390f35b61014a610591565b6040516101579190610610565b60405180910390f35b6101686105d3565b60405161017591906106de565b60405180910390f35b60045481565b60008054906101000a900473ffffffffffffffffffffffffffffffffffffffff1673ffffffffffffffffffffffffffffffffffffffff163373ffffffffffffffffffffffffffffffffffffffff1614610212576040517f08c379a000000000000000000000000000000000000000000000000000000000815260040161020990610756565b60405180910390fd5b60004790506000600260009054906101000a900473ffffffffffffffffffffffffffffffffffffffff1673ffffffffffffffffffffffffffffffffffffffff168260405161025f906107a7565b60006040518083038185875af1925050503d806000811461029c576040519150601f19603f3d011682016040523d82523d6000602084013e6102a1565b606091505b50509050806102e5576040517f08c379a00000000000000000000000000000000000000000000000000000000081526004016102dc90610808565b60405180910390fd5b6001600560006101000a81548160ff0219169083151502179055505050565b600560009054906101000a900460ff1681565b600260009054906101000a900473ffffffffffffffffffffffffffffffffffffffff1681565b60008054906101000a900473ffffffffffffffffffffffffffffffffffffffff1673ffffffffffffffffffffffffffffffffffffffff163373ffffffffffffffffffffffffffffffffffffffff1614806103ff5750600160009054906101000a900473ffffffffffffffffffffffffffffffffffffffff1673ffffffffffffffffffffffffffffffffffffffff163373ffffffffffffffffffffffffffffffffffffffff161480156103fe57506004546003546103fa9190610857565b4210155b5b61043e576040517f08c379a0000000000000000000000000000000000000000000000000000000008152600401610435906108d7565b60405180910390fd5b600560009054906101000a900460ff161561048e576040517f08c379a000000000000000000000000000000000000000000000000000000000815260040161048590610943565b60405180910390fd5b60004790506000600160009054906101000a900473ffffffffffffffffffffffffffffffffffffffff1673ffffffffffffffffffffffffffffffffffffffff16826040516104db906107a7565b60006040518083038185875af1925050503d8060008114610518576040519150601f19603f3d011682016040523d82523d6000602084013e61051d565b606091505b5050905080610561576040517f08c379a000000000000000000000000000000000000000000000000000000000815260040161055890610808565b60405180910390fd5b5050565b600160009054906101000a900473ffffffffffffffffffffffffffffffffffffffff1681565b60035481565b60006004546003546105a39190610857565b42106105b257600090506105d0565b426004546003546105c39190610857565b6105cd9190610963565b90505b90565b60008054906101000a900473ffffffffffffffffffffffffffffffffffffffff1681565b6000819050919050565b61060a816105f7565b82525050565b60006020820190506106256000830184610601565b92915050565b60008115159050919050565b6106408161062b565b82525050565b600060208201905061065b6000830184610637565b92915050565b600073ffffffffffffffffffffffffffffffffffffffff82169050919050565b600061068c82610661565b9050919050565b61069c81610681565b82525050565b60006020820190506106b76000830184610693565b92915050565b60006106c882610661565b9050919050565b6106d8816106bd565b82525050565b60006020820190506106f360008301846106cf565b92915050565b600082825260208201905092915050565b7f4f6e6c7920617262697465722063616e20617070726f76650000000000000000600082015250565b60006107406018836106f9565b915061074b8261070a565b602082019050919050565b6000602082019050818103600083015261076f81610733565b9050919050565b600081905092915050565b50565b6000610791600083610776565b915061079c82610781565b600082019050919050565b60006107b282610784565b9150819050919050565b7f4661696c656420746f2073656e64204574686572000000000000000000000000600082015250565b60006107f26014836106f9565b91506107fd826107bc565b602082019050919050565b60006020820190508181036000830152610821816107e5565b9050919050565b7f4e487b7100000000000000000000000000000000000000000000000000000000600052601160045260246000fd5b6000610862826105f7565b915061086d836105f7565b925082820190508082111561088557610884610828565b5b92915050565b7f4e6f7420617574686f72697a656420746f20726566756e640000000000000000600082015250565b60006108c16018836106f9565b91506108cc8261088b565b602082019050919050565b600060208201905081810360008301526108f0816108b4565b9050919050565b7f416c726561647920617070726f76656400000000000000000000000000000000600082015250565b600061092d6010836106f9565b9150610938826108f7565b602082019050919050565b6000602082019050818103600083015261095c81610920565b9050919050565b600061096e826105f7565b9150610979836105f7565b925082820390508181111561099157610990610828565b5b9291505056fea2646970667358221220e12d803b37dc3b2f3af492a710223d73ae0d159d92717999d1753cf9fa16ca3864736f6c63430008180033a2646970667358221220f669ddc6fd43cc9f2ab633ce97fc4ebd931d617153bb0803b4add9271d82dc1964736f6c63430008180033",
  "linkReferences": {},
  "deployedLinkReferences": {}
}