{
  "_format": "hh-sol-artifact-1",
  "contractName": "TimeLock",
  "sourceName": "contracts/TimeLock.sol",
  "abi": [
    {
      "inputs": [
        {
          "internalType": "address",
          "name": "_beneficiary",
          "type": "address"
        },
        {
          "internalType": "uint256",
          "name": "_durationInMonths",
          "type": "uint256"
        }
      ],
      "stateMutability": "payable",
      "type": "constructor"
    },
    {
      "inputs": [],
      "name": "beneficiary",
      "outputs": [
        {
          "internalType": "address",
          "name": "",
          "type": "address"
        }
      ],
      "stateMutability": "view",
      "type": "function"
    },
    {
      "inputs": [],
      "name": "getBalance",
      "outputs": [
        {
          "internalType": "uint256",
          "name": "",
          "type": "uint256"
        }
      ],
      "stateMutability": "view",
      "type": "function"
    },
    {
      "inputs": [],
      "name": "getRemainingTime",
      "outputs": [
        {
          "internalType": "uint256",
          "name": "",
          "type": "uint256"
        }
      ],
      "stateMutability": "view",
      "type": "function"
    },
    {
      "inputs": [],
      "name": "release",
      "outputs": [],
      "stateMutability": "nonpayable",
      "type": "function"
    },
    {
      "inputs": [],
      "name": "releaseTime",
      "outputs": [
        {
          "internalType": "uint256",
          "name": "",
          "type": "uint256"
        }
      ],
      "stateMutability": "view",
      "type": "function"
    }
  ],
  "bytecode": "0x608060405260405161068b38038061068b83398181016040528101906100259190610168565b60008111610068576040517f08c379a000000000000000000000000000000000000000000000000000000000815260040161005f90610205565b60405180910390fd5b816000806101000a81548173ffffffffffffffffffffffffffffffffffffffff021916908373ffffffffffffffffffffffffffffffffffffffff16021790555062278d00816100b79190610254565b426100c29190610296565b60018190555050506102ca565b600080fd5b600073ffffffffffffffffffffffffffffffffffffffff82169050919050565b60006100ff826100d4565b9050919050565b61010f816100f4565b811461011a57600080fd5b50565b60008151905061012c81610106565b92915050565b6000819050919050565b61014581610132565b811461015057600080fd5b50565b6000815190506101628161013c565b92915050565b6000806040838503121561017f5761017e6100cf565b5b600061018d8582860161011d565b925050602061019e85828601610153565b9150509250929050565b600082825260208201905092915050565b7f4475726174696f6e206d7573742062652067726561746572207468616e203000600082015250565b60006101ef601f836101a8565b91506101fa826101b9565b602082019050919050565b6000602082019050818103600083015261021e816101e2565b9050919050565b7f4e487b7100000000000000000000000000000000000000000000000000000000600052601160045260246000fd5b600061025f82610132565b915061026a83610132565b925082820261027881610132565b9150828204841483151761028f5761028e610225565b5b5092915050565b60006102a182610132565b91506102ac83610132565b92508282019050808211156102c4576102c3610225565b5b92915050565b6103b2806102d96000396000f3fe608060405234801561001057600080fd5b50600436106100575760003560e01c806312065fe01461005c57806338af3eed1461007a57806386d1a69f14610098578063b91d4001146100a2578063efb98bcf146100c0575b600080fd5b6100646100de565b60405161007191906101ff565b60405180910390f35b6100826100e6565b60405161008f919061025b565b60405180910390f35b6100a061010a565b005b6100aa6101b8565b6040516100b791906101ff565b60405180910390f35b6100c86101be565b6040516100d591906101ff565b60405180910390f35b600047905090565b60008054906101000a900473ffffffffffffffffffffffffffffffffffffffff1681565b60015442101561014f576040517f08c379a0000000000000000000000000000000000000000000000000000000008152600401610146906102f9565b60405180910390fd5b60008054906101000a900473ffffffffffffffffffffffffffffffffffffffff1673ffffffffffffffffffffffffffffffffffffffff166108fc479081150290604051600060405180830381858888f193505050501580156101b5573d6000803e3d6000fd5b50565b60015481565b600060015442106101d257600090506101e3565b426001546101e09190610348565b90505b90565b6000819050919050565b6101f9816101e6565b82525050565b600060208201905061021460008301846101f0565b92915050565b600073ffffffffffffffffffffffffffffffffffffffff82169050919050565b60006102458261021a565b9050919050565b6102558161023a565b82525050565b6000602082019050610270600083018461024c565b92915050565b600082825260208201905092915050565b7f43757272656e742074696d65206973206265666f72652072656c65617365207460008201527f696d650000000000000000000000000000000000000000000000000000000000602082015250565b60006102e3602383610276565b91506102ee82610287565b604082019050919050565b60006020820190508181036000830152610312816102d6565b9050919050565b7f4e487b7100000000000000000000000000000000000000000000000000000000600052601160045260246000fd5b6000610353826101e6565b915061035e836101e6565b925082820390508181111561037657610375610319565b5b9291505056fea264697066735822122015f61fac3a8126ec8823988f92c5f5f4d8930a0a61e7482e6efe8e152d1509a464736f6c63430008180033",
  "linkReferences": {},
  "deployedLinkReferences": {}
}